:020000040000fa
:080000000002040000000000f2
:020000040000fa
:04000800ca05000025
:020000040000fa
:04000c0048030000a5
:020000040000fa
:040010008a0300005f
:020000040000fa
:04001400680300007d
:020000040000fa
:04001800aa03000037
:020000040000fa
:04001c00ca05000011
:020000040000fa
:04002000ca0500000d
:020000040000fa
:04002400ca05000009
:020000040000fa
:040028004805000087
:020000040000fa
:04002c00ca05000001
:020000040000fa
:04003000ca050000fd
:020000040000fa
:04003400c004000004
:020000040000fa
:04003800ca050000f5
:020000040000fa
:04003c00ca050000f1
:020000040000fa
:04004000ca050000ed
:020000040000fa
:0400440004050000af
:020000040000fa
:04004800840500002b
:020000040000fa
:04004c00ca050000e1
:020000040000fa
:04005000ca050000dd
:020000040000fa
:040054004404000060
:020000040000fa
:04005800e8030000b9
:020000040000fa
:04005c00ca050000d1
:020000040000fa
:04006000ca050000cd
:020000040000fa
:04006400ca050000c9
:020000040000fa
:04006800ca050000c5
:020000040000fa
:04006c00ca050000c1
:020000040000fa
:04007000ca050000bd
:020000040000fa
:040074003403000051
:020000040000fa
:040078006605000019
:020000040000fa
:04007c00ca050000b1
:020000040000fa
:04008000ca050000ad
:020000040000fa
:04008400ca050000a9
:020000040000fa
:04008800ca050000a5
:020000040000fa
:04008c00ca050000a1
:020000040000fa
:04009000ca0500009d
:020000040000fa
:04009400ca05000099
:020000040000fa
:04009800ca05000095
:020000040000fa
:04009c00ca05000091
:020000040000fa
:0400a000ca0500008d
:020000040000fa
:0400a400ca05000089
:020000040000fa
:0400a800ca05000085
:020000040000fa
:0400ac00ca05000081
:020000040000fa
:0400b000ca0500007d
:020000040000fa
:0400b400ca05000079
:020000040000fa
:0400b800ca05000075
:020000040000fa
:0400bc00ca05000071
:020000040000fa
:0400c000ca0500006d
:020000040000fa
:0400c400ca05000069
:020000040000fa
:0400c800ca05000065
:020000040000fa
:0400cc00ca05000061
:020000040000fa
:0400d000ca0500005d
:020000040000fa
:0400d400ca05000059
:020000040000fa
:0400d800ca05000055
:020000040000fa
:0400dc00ca05000051
:020000040000fa
:0400e000ca0500004d
:020000040000fa
:0400e400ca05000049
:020000040000fa
:0400e800ca05000045
:020000040000fa
:0400ec00ca05000041
:020000040000fa
:0400f000ca0500003d
:020000040000fa
:0400f400ca05000039
:020000040000fa
:0400f800ca05000035
:020000040000fa
:0400fc00ca05000031
:020000040000fa
:04010000ca0500002c
:020000040000fa
:04010400ca05000028
:020000040000fa
:04010800ca05000024
:020000040000fa
:04010c00ca05000020
:020000040000fa
:04011000ca0500001c
:020000040000fa
:04011400ca05000018
:020000040000fa
:04011800ca05000014
:020000040000fa
:04011c00ca05000010
:020000040000fa
:04012000ca0300000e
:020000040000fa
:04012400ca05000008
:020000040000fa
:04012800ca05000004
:020000040000fa
:04012c00aa04000021
:020000040000fa
:04013000ca050000fc
:020000040000fa
:04013400ca050000f8
:020000040000fa
:04013800ca050000f4
:020000040000fa
:04013c00ca050000f0
:020000040000fa
:04014000ca050000ec
:020000040000fa
:04014400ca050000e8
:020000040000fa
:04014800ca050000e4
:020000040000fa
:04014c00ca050000e0
:020000040000fa
:04015000ca050000dc
:020000040000fa
:04015400ca050000d8
:020000040000fa
:04015800ca050000d4
:020000040000fa
:04015c00ca050000d0
:020000040000fa
:04016000ca050000cc
:020000040000fa
:04016400ca050000c8
:020000040000fa
:04016800ca050000c4
:020000040000fa
:04016c00ca050000c0
:020000040000fa
:04017000ca050000bc
:020000040000fa
:04017400ca050000b8
:020000040000fa
:04017800ca050000b4
:020000040000fa
:04017c00ca050000b0
:020000040000fa
:04018000ca050000ac
:020000040000fa
:04018400ca050000a8
:020000040000fa
:04018800ca050000a4
:020000040000fa
:04018c00ca050000a0
:020000040000fa
:04019000ca0500009c
:020000040000fa
:04019400ca05000098
:020000040000fa
:04019800ca05000094
:020000040000fa
:04019c00ca05000090
:020000040000fa
:0401a000ca0500008c
:020000040000fa
:0401a400ca05000088
:020000040000fa
:0401a800ca05000084
:020000040000fa
:0401ac00ca05000080
:020000040000fa
:0401b000ca0500007c
:020000040000fa
:0401b400ca05000078
:020000040000fa
:0401b800ca05000074
:020000040000fa
:0401bc00ca05000070
:020000040000fa
:0401c000ca0500006c
:020000040000fa
:0401c400ca05000068
:020000040000fa
:0401c800ca05000064
:020000040000fa
:0401cc00ca05000060
:020000040000fa
:0401d000ca0500005c
:020000040000fa
:0401d400ca05000058
:020000040000fa
:0401d800ca05000054
:020000040000fa
:0401dc00ca05000050
:020000040000fa
:0401e000ca0500004c
:020000040000fa
:0401e400ca05000048
:020000040000fa
:0401e800ca05000044
:020000040000fa
:0401ec00ca05000040
:020000040000fa
:0401f000ca0500003c
:020000040000fa
:0401f400ca05000038
:020000040000fa
:0401f800ca05000034
:020000040000fa
:0401fc00ca05000030
:020000040000fa
:04020800ca05000023
:020000040000fa
:04020c0048030000a3
:020000040000fa
:040210008a0300005d
:020000040000fa
:04021400680300007b
:020000040000fa
:04021800aa03000035
:020000040000fa
:04021c00ca0500000f
:020000040000fa
:04022000ca0500000b
:020000040000fa
:04022400ca05000007
:020000040000fa
:040228004805000085
:020000040000fa
:04022c00ca050000ff
:020000040000fa
:04023000ca050000fb
:020000040000fa
:04023400c004000002
:020000040000fa
:04023800ca050000f3
:020000040000fa
:04023c00ca050000ef
:020000040000fa
:04024000ca050000eb
:020000040000fa
:0402440004050000ad
:020000040000fa
:040248008405000029
:020000040000fa
:04024c00ca050000df
:020000040000fa
:04025000ca050000db
:020000040000fa
:04025400440400005e
:020000040000fa
:04025800e8030000b7
:020000040000fa
:04025c00ca050000cf
:020000040000fa
:04026000ca050000cb
:020000040000fa
:04026400ca050000c7
:020000040000fa
:04026800ca050000c3
:020000040000fa
:04026c00ca050000bf
:020000040000fa
:04027000ca050000bb
:020000040000fa
:04027400340300004f
:020000040000fa
:040278006605000017
:020000040000fa
:04027c00ca050000af
:020000040000fa
:04028000ca050000ab
:020000040000fa
:04028400ca050000a7
:020000040000fa
:04028800ca050000a3
:020000040000fa
:04028c00ca0500009f
:020000040000fa
:04029000ca0500009b
:020000040000fa
:04029400ca05000097
:020000040000fa
:04029800ca05000093
:020000040000fa
:04029c00ca0500008f
:020000040000fa
:0402a000ca0500008b
:020000040000fa
:0402a400ca05000087
:020000040000fa
:0402a800ca05000083
:020000040000fa
:0402ac00ca0500007f
:020000040000fa
:0402b000ca0500007b
:020000040000fa
:0402b400ca05000077
:020000040000fa
:0402b800ca05000073
:020000040000fa
:0402bc00ca0500006f
:020000040000fa
:0402c000ca0500006b
:020000040000fa
:0402c400ca05000067
:020000040000fa
:0402c800ca05000063
:020000040000fa
:0402cc00ca0500005f
:020000040000fa
:0402d000ca0500005b
:020000040000fa
:0402d400ca05000057
:020000040000fa
:0402d800ca05000053
:020000040000fa
:0402dc00ca0500004f
:020000040000fa
:0402e000ca0500004b
:020000040000fa
:0402e400ca05000047
:020000040000fa
:0402e800ca05000043
:020000040000fa
:0402ec00ca0500003f
:020000040000fa
:0402f000ca0500003b
:020000040000fa
:0402f400ca05000037
:020000040000fa
:0402f800ca05000033
:020000040000fa
:0402fc00ca0500002f
:020000040000fa
:04030000ca0500002a
:020000040000fa
:04030400ca05000026
:020000040000fa
:04030800ca05000022
:020000040000fa
:04030c00ca0500001e
:020000040000fa
:04031000ca0500001a
:020000040000fa
:04031400ca05000016
:020000040000fa
:04031800ca05000012
:020000040000fa
:04031c00ca0500000e
:020000040000fa
:04032000ca0300000c
:020000040000fa
:04032400ca05000006
:020000040000fa
:04032800ca05000002
:020000040000fa
:04032c00aa0400001f
:020000040000fa
:04033000ca050000fa
:020000040000fa
:04033400ca050000f6
:020000040000fa
:04033800ca050000f2
:020000040000fa
:04033c00ca050000ee
:020000040000fa
:04034000ca050000ea
:020000040000fa
:04034400ca050000e6
:020000040000fa
:04034800ca050000e2
:020000040000fa
:04034c00ca050000de
:020000040000fa
:04035000ca050000da
:020000040000fa
:04035400ca050000d6
:020000040000fa
:04035800ca050000d2
:020000040000fa
:04035c00ca050000ce
:020000040000fa
:04036000ca050000ca
:020000040000fa
:04036400ca050000c6
:020000040000fa
:04036800ca050000c2
:020000040000fa
:04036c00ca050000be
:020000040000fa
:04037000ca050000ba
:020000040000fa
:04037400ca050000b6
:020000040000fa
:04037800ca050000b2
:020000040000fa
:04037c00ca050000ae
:020000040000fa
:04038000ca050000aa
:020000040000fa
:04038400ca050000a6
:020000040000fa
:04038800ca050000a2
:020000040000fa
:04038c00ca0500009e
:020000040000fa
:04039000ca0500009a
:020000040000fa
:04039400ca05000096
:020000040000fa
:04039800ca05000092
:020000040000fa
:04039c00ca0500008e
:020000040000fa
:0403a000ca0500008a
:020000040000fa
:0403a400ca05000086
:020000040000fa
:0403a800ca05000082
:020000040000fa
:0403ac00ca0500007e
:020000040000fa
:0403b000ca0500007a
:020000040000fa
:0403b400ca05000076
:020000040000fa
:0403b800ca05000072
:020000040000fa
:0403bc00ca0500006e
:020000040000fa
:0403c000ca0500006a
:020000040000fa
:0403c400ca05000066
:020000040000fa
:0403c800ca05000062
:020000040000fa
:0403cc00ca0500005e
:020000040000fa
:0403d000ca0500005a
:020000040000fa
:0403d400ca05000056
:020000040000fa
:0403d800ca05000052
:020000040000fa
:0403dc00ca0500004e
:020000040000fa
:0403e000ca0500004a
:020000040000fa
:0403e400ca05000046
:020000040000fa
:0403e800ca05000042
:020000040000fa
:0403ec00ca0500003e
:020000040000fa
:0403f000ca0500003a
:020000040000fa
:0403f400ca05000036
:020000040000fa
:0403f800ca05000032
:020000040000fa
:0403fc00ca0500002e
:020000040000fa
:10040000af0c21000e7f22000e01880000000000ca
:10041000000020000000e000020032000001200087
:100420002002880014000700120207000000e0000c
:1004300003003a0080f6220001002000020037008d
:100440000000200001002000810f70000100320038
:1004500014000700000020000000e000020032004d
:100460000000020000000000b42a020000000000aa
:100470000040da000000fe004440a900801d20007a
:100480000000e000030032000020200090018800fe
:100490004440a800000006008a1f78008b1f7800e7
:1004a00000000600a1028800800478000000eb0034
:1004b0001f003700e284440054a0b4009905ba003c
:1004c000e284440054a0b4009906ba00e2844400d7
:1004d00054a0b4000006eb00476fde00fd07b20039
:1004e000ae018800636ce10003003a00eaff0700f8
:1004f0000000eb000e003700606ce10008003a00dd
:10050000004deb000a05e800020039003420ec0041
:100510000af0a0008b05e900f9ff3e000400370057
:100520006168e100010032000086eb000b0007006b
:1005300019c7ba001905ba000e04e00003003a001a
:100540000a00e000dbff3a0000000600fe07b200f0
:10055000ae0288008a047800f5ff37000cd0a300b3
:10056000e20f4d001c00390089027800354dba00b9
:100570000a05e800020039003420ec000af0a0006f
:100580008b05e9000f003200254dba000a05e8008e
:10059000020039003420ec000af0a0008b05e900cd
:1005a000080032000c00e0000600320015cdba0051
:1005b0000a05e800020039003420ec000af0a0002f
:1005c0008b05e9008984e80054a0b4000b00e0002a
:1005d000e2ff3a00000006009902ba00055d7800cb
:1005e0008b05e900f7ff3200c82ade00055d7800c0
:1005f0008b05e900f3ff32000c00e000f1ff320050
:1006000019ddba00eeff37009a2404000000000054
:10061000b8240400000000004a310400000000007b
:100620000232040000000000ba32040000000000a2
:10063000aa340400000000009c2e0400000000000a
:10064000ba2e0400000000002a2f04000000000061
:10065000ce12040000000000a40e04000000000000
:100660003207040000000000801f78000000fa003c
:1006700030048000680060000000e00001003200eb
:100680008660a9000080fa004f0078000040060054
:100690003600f800809fbe00829fbe00849fbe008f
:1006a000869fbe000000fa008020a9000000eb0039
:1006b000141907000080fa004f03be004f02be006d
:1006c0004f01be004f00be003600f900004006009a
:1006d0003600f800809fbe00829fbe00849fbe004f
:1006e000869fbe000000fa000b1907008040a90099
:1006f00010002000031907000080fa004f03be001d
:100700004f02be004f01be004f00be003600f90090
:10071000004006003600f800809fbe00829fbe00a9
:10072000849fbe00869fbe000000fa008060a90082
:1007300020002000f31807000080fa004f03be00dd
:100740004f02be004f01be004f00be003600f90050
:10075000004006003600f800809fbe00829fbe0069
:10076000849fbe00869fbe000000fa008080a90022
:1007700030002000e31807000080fa004f03be009d
:100780004f02be004f01be004f00be003600f90010
:10079000004006003600f800809fbe00829fbe0029
:1007a000849fbe00869fbe000000fa005d13070014
:1007b0008bc0a9000080fa004f03be004f02be00ac
:1007c0004f01be004f00be003600f9000040060099
:1007d0003600f800809fbe00829fbe00849fbe004e
:1007e000869fbe000000fa0050408000000001001b
:1007f0003140800020408000808f500002003a008d
:100800009580a900190037008580a90010003700e5
:1008100030408000904078008180fb0021288800d3
:100820000000e8003040880031408000300b21009b
:10083000808f500002003a00a00a2100304088005a
:100840003140800020408000808f50000600320040
:100850001128800000202000008060000000e000df
:10086000ebff320001003700000000000080fa00ba
:100870004f03be004f02be004f01be004f00be003e
:100880003600f900004006003600f800809fbe00e8
:10089000829fbe00849fbe00869fbe000000fa00bb
:1008a00060408000000001008560a9001e00370044
:1008b00001408000302880000040780080487800a7
:1008c00001408000b00b2100808f500009003200f1
:1008d000004080000000e80011408000810f5000bf
:1008e00004003200004080000000e8000040880062
:1008f0000d00370001408000b00b2100808f5000b8
:1009000007003a0011408000300b2100808f50001a
:1009100003003200300b2100004088000200370045
:1009200010c0b30008e8b700102880006100600024
:100930000000e000deff3a000080fa004f03be0036
:100940004f02be004f01be004f00be003600f9004e
:1009500000400600801f78000000fa001028800088
:10096000620060000000e000010032000225a900e2
:100970008c20a9000080fa004f007800004006009b
:100980003600f800809fbe00829fbe00849fbe009c
:10099000869fbe000000fa00804080000000e80052
:1009a0008040880080408000e30f50000600360041
:1009b000704080000000e0000200320070408000c3
:1009c000000001001028ef00100c210010407800fa
:1009d0008040e800100c210001487800000c210044
:1009e00011c0b300014878008460a9000080fa00bb
:1009f0004f03be004f02be004f01be004f00be00bd
:100a00003600f900004006003600f800809fbe0066
:100a1000829fbe00849fbe00869fbe000000fa0039
:100a2000a04080000000e800a0408800a0408000b6
:100a3000e10f500006003600904080000000e0000a
:100a40000200320090408000000001001428ef00f6
:100a5000300c2100104078008040e800300c21006c
:100a600001487800200c210011c0b3000148780033
:100a700084e0a9000080fa004f03be004f02be00d0
:100a80004f01be004f00be003600f90000400600d6
:100a90003600f800809fbe00829fbe00849fbe008b
:100aa000869fbe000000fa00c81707008400a90056
:100ab0000080fa004f03be004f02be004f01be008f
:100ac0004f00be003600f900004006003600f80076
:100ad000809fbe00829fbe00849fbe00869fbe0096
:100ae0000000fa00bc1707008680a9000080fa0009
:100af0004f03be004f02be004f01be004f00be00bc
:100b00003600f900004006003600f800809fbe0065
:100b1000829fbe00849fbe00869fbe000000fa0038
:100b2000c04080000000e800c0408800c140800054
:100b3000b0032000808f500006003600b0408000d7
:100b40000000e00002003200b04080000000010020
:100b50001828ef00500c2100104078008040e80079
:100b6000500c210001487800400c210011c0b30056
:100b7000014878008500a9000080fa004f03be00fc
:100b80004f02be004f01be004f00be003600f9000c
:100b9000004006000040da000000fe00ec8747003d
:100ba0008e1f78006c87570044002000041f7800d7
:100bb000000f78006c87570002afbe00e1bf9f00b6
:100bc0006c805700480907001e00be004f077800e0
:100bd000cf00b10000000600ec8747008e1f7800b0
:100be00011002000a1bf9f006c875700002f7800e4
:100bf0006c8057003e0907001e0078004f07780000
:100c0000cf00b100000006000800fa008e81e80065
:100c100080097800640047000108780066004700fa
:100c20000208780066004700100f78000a003700bd
:100c3000640047001000780010407800e40047008e
:100c4000910078000101e800e40047008208780084
:100c5000211507001e0fe9001e0078000000e000cb
:100c6000f3ff3a0066004700100078000080fa00a9
:100c700000000600000005000000fa004fb99700d0
:100c8000e8815700f70307000080fa000000060023
:100c90001c02070074020700240307004c0307002e
:100ca000a6023700889fbe008a9fbe00800478009d
:100cb0000200e0005a00320001407800814c7800c8
:100cc00082814400f1f99f00e20f51005400360088
:100cd00091449800a1449800e1f99f00d1f99f0048
:100ce000e60f51004e003600b1449800c1f99f0054
:100cf000e80f51004a0036000905ea006305650067
:100d00000a8444000a055100c1ff2f000105650057
:100d10000080fb008000eb00121020001310200068
:100d2000eb080700008cbe000a01440060b99f0078
:100d300071b99f00e80f5500390036002004980073
:100d400031049800400498005104980020b99f0095
:100d500031b99f0040b99f0051b99f00f80f55006d
:100d60002f0036006004980071049800000c980071
:100d7000110c9800200c9800310c9800400c980041
:100d8000510c980020b19f0031b19f0040b19f00ed
:100d900051b19f0060b19f0071b19f0000b99f00e9
:100da00011b99f006401640078014100020444000d
:100db000020555006011b8000203be000002be002b
:100dc0000403be006022b80000007200818072003f
:100dd00002017300838173000f003700080278005e
:100de000009abe00029abe00009abe000292be00a7
:100df000000c9800110c9800220c9800330c9800fd
:100e0000400c9800510c9800620c9800730c9800ec
:100e10000a02b1000802b000ff0f5500efff3e00cc
:100e2000090078004f05be004f04be000000060018
:100e300061818000910078000a06070011002000ff
:100e40000000e0000500350060818000900078001f
:100e5000a00020008c060700cf00de000100ea00a1
:100e6000000006000000060020032100000006002c
:100e7000fdff070080818800708188000000060067
:100e8000114290000482fb009180fb00c808dd0045
:100e90000482700080007800d181fb001081fb008b
:100ea0004811dd0003017100030037004811dd0027
:100eb0001180fb0002017000010078003104e000a5
:100ec00004003200840f5100f8ff3a000000e900ee
:100ed0000000060000000500114390008683fb001f
:100ee000060020001181fb008001eb00c811dd002d
:100ef00002002000020373008383730021419000ed
:100f00004811dd008001eb0002037300838373004e
:100f10008080e800104190008281fb0002002000e8
:100f20001082fb008002eb00c822dd0004002000dc
:100f300004017100858171001182fb004822dd00ef
:100f40008002eb0004017100858171000800370008
:100f50001182fb008002eb000402710085827100a7
:100f60004829dd00c821de00830171004821dd0031
:100f7000010078003104e00005003200860f5100c6
:100f8000878f5900f2ff3a000080e9000000060058
:100f900000000500889fbe00314290000482fb00e3
:100fa0008002eb00010178003283fb008003eb003c
:100fb000c833dd000600200006037200878372003c
:100fc0001281fb008001eb00c011dd000200200057
:100fd0000203730083837300214190004811dd00f8
:100fe0008001eb000203730083837300e300400081
:100ff0001182fb008002eb00800178003384fb004b
:101000008004eb00c844dd000800200008047200e2
:10101000898472001381fb008001eb00c012dd00a7
:1010200004002000040174008581740020429000b7
:101030004822dd008002eb0006003700481add0080
:10104000c812de00850272004812dd001181fb002b
:101050008001eb00020172008381720001007800c0
:101060003104e00005003200860f5100878f5900df
:10107000f2ff3a0063005000010037000000eb006f
:101080004f04be00000006008f22b000889fbe0003
:101090008a9fbe008c9fbe008e1f780000047800df
:1010a00081057800c0dc2f000f0040000f00090010
:1010b0000018eb000002b1000b01780088007800f6
:1010c0008004eb00100037000080fb00c401de004c
:1010d00083814100c4dc2f000f02420083014200e3
:1010e0006f02600015002000042add0093097200e1
:1010f0008584440000004000c7dc2f008f8343003c
:101100000080430009109800324078000004e0009d
:1011100005003a001a0020000a0078000001eb00e8
:101120008081eb00190037003104e000e6ff3a004f
:10113000a200370003824500e44278006bc27800c9
:1011400084cf520005003a008a0f50000c00320094
:101150000000e800820078000b00370084cf5200c6
:101160000200360003855000060037008200e800c8
:10117000820178001a0020000a007800020037007f
:101180000005780010002000010178008200400076
:10119000898f5000e7ff390011002000010078001e
:1011a0000002eb008086eb00160037008d824500c0
:1011b00065437800eb427900854f530005003a0003
:1011c000810f50000c0032000000e800040178009c
:1011d0000b003700854f5300020031008d00510095
:1011e000060037000401e8008406780011002000a2
:1011f0000100780002003700800078001000200015
:101200000202780004014000890f5100e7ff390015
:101210000d01e8000300e800800f510002003600d5
:101220000105780001003700830678000d02e80010
:101230008a804500040178000b00780084bf9f007d
:10124000640507000fba97000000e00008003200b4
:101250000905e9000d0555008d0f5500010031000d
:101260000d0578000a05e8008001eb000100370059
:101270008a815400080778000006eb000800570038
:10128000890f50001400310089027800f503b30083
:10129000050178008000eb000e007800e3b79f00a6
:1012a00084bf9f00f5b79f001a050700efb19700b4
:1012b0000fba9700ffb297000000e000050032006f
:1012c00088005000898f50003c00390000077800ea
:1012d00001003700050747008900440071f89700b6
:1012e0000080fb006f016000160020000233dd006b
:1012f0004401de0002014100c7dc2f008f83430060
:10130000e7027900050163000d0032000000400093
:101310000080430000109000008054000a0032005a
:101320000300e000150032000c00e0001300320062
:101330008a0f5000110031000a8054000f0037005e
:1013400001047800ccff37000c007800840f5600b1
:101350000300310004007800010037000000e800bd
:10136000eb4078000104e00006003200684178009c
:1013700082cf5000f9ff32000d00500000044400fd
:10138000bdff37000d0078008000e8008c8f500012
:10139000080036006b417800e84078000000e90062
:1013a000814f5100f8ff32000a0444000306780020
:1013b000b2ff370008007800010037000000eb00a2
:1013c0004f0778004f06be004f05be004f04be0019
:1013d000ef1fb100af02b10000000600881f7800c7
:1013e00001047800984078000104e00026003200f3
:1013f0008100fb00050607000000e000220032002b
:10140000984090000104e0001f00320090409000de
:101410000104e0001b003200a84090000104e0003d
:1014200003003a008800780095fe07001600370098
:10143000a04090000104e00012003200b84090008b
:101440000104e00003003a0088007800a2fe0700d3
:101450000d003700b04090000104e00009003200a8
:10146000c84090000104e00003003a0088007800c2
:10147000c8fe0700040037008800780002ff07005c
:10148000010037000000eb004f0478000000060068
:10149000889fbe000004be000800e00003003a0080
:1014a000388680000800e000130032000800be000b
:1014b00047050700000444001804e00004003a0057
:1014c0000000eb0030868800000478000a00370036
:1014d0000800be00ed0407000000440030868800cc
:1014e0001004e000020032000058eb000100370059
:1014f0000000eb0030868800080078004f04be0032
:1015000000000600ec874700889fbe008a9fbe004f
:101510008c9fbe008e1f78000006780001047800c2
:10152000180790002805900098067800cdb79f0016
:10153000b80590003202be002203be000400be00c7
:101540000601be004f18de006011b8008000eb00fd
:10155000d0b79f00e1b79f00f2b79f0083bf9f0005
:10156000800478000900e000060032006000b80046
:101570006011b8000402500085825800060359002b
:10158000878359000e00e000020035000d10a10015
:10159000cdb79f000900e00005003a004fb097006a
:1015a0000028a30002003a000038a3000200320025
:1015b0008a00e900010037008a007800f8815700ae
:1015c000a200200008007800860007000900e00063
:1015d00003003a00cfb097000128a30008003200b2
:1015e0000000e90000814500b1c2b3000900e0003d
:1015f00001003200d1c2b300014978000500370074
:101600000138a300030032000000e90001c2b3006a
:1016100081757800480190000201e9000001510045
:10162000808045004fb297008a0178000c00780056
:10163000e30107009c0090000188a3000400320031
:1016400098009000810f500001003d0001007800db
:101650004f0778004f06be004f05be004f04be0086
:10166000cf00b100000006000200fa00889fbe0013
:101670008a9fbe000005780001047800020078000f
:1016800018019000a805900098007800b1bf9f0055
:10169000b80490000200e000020035000110a10033
:1016a000b1bf9f00ea815700820020008b007800c4
:1016b0003002be002003be00080078004900070089
:1016c0003fb99700f0006100030032000000e9001c
:1016d00001c3b300817478003fb99700e80061004e
:1016e000030032000000e90001c2b30081747800f9
:1016f000480190000201e90000015100808044008f
:101700003fba97008b0178000a007800ac0107000f
:101710009a0090000188a300040032009800900015
:10172000810f500001003d00010078004f05be0010
:101730004f04be000080fa0000000600ea87470060
:10174000889fbe008a9fbe008e1f7800000478002c
:10175000030078007287570084e2260055c72600f0
:10176000049fbe00c3962200030f78006c875700c9
:10177000004feb0011059000a10490009105780046
:101780000200e0000200320002077800010037008a
:10179000728757000000e00002003a000e00780057
:1017a000730407000a00e000030035008a0f5000b0
:1017b000010036000a0078000b02780089017800e9
:1017c000000178008e007800080078007c01070096
:1017d0004f0778004f05be004f04be00af00b100b8
:1017e00000000600f4874700889fbe008a9fbe0065
:1017f0008c9fbe008e1f78000605be000404be004c
:1018000081bf9f0082b79f00f3b79f00b000900098
:10181000e1b79f001301780092b79f0090069000f7
:10182000400690000c06e9000d00e00001003d00bc
:101830001d002000efb197000c8041000048eb0034
:101840001e0020001f0037000c06e9000fb09700b3
:10185000cf80de006109b900a0b79f00b1b79f003b
:10186000c2b79f00d3b79f000203be000002be00b4
:101870000800be000a01be00c80607000007780085
:10188000efb097000c80400003c3b300034847004b
:101890008d06e9000fb897000000e90080bf9f00a7
:1018a0002fb29700bfb297004fb39700dfb39700f6
:1018b0000800be000a01be00b10607000205be0016
:1018c0000004be000c00e0000d003200e00f5400e8
:1018d000e08f5c00e00f5d00e08f5d00daff3a0012
:1018e0000d00e000d8ff3c008fb897000100e00039
:1018f000030034001fb197000218a300d2ff3a0082
:101900000e00e00002003a00ffb197001340a10072
:101910000c0078004f0778004f06be004f05be0050
:101920004f04be004f01b100000006000200fa00a3
:10193000889fbe008a9fbe00800478000104780062
:1019400002007800180190002805900098007800a7
:10195000b1bf9f00b80590000200e0000200350012
:101960000110a100b1bf9f00ea815700a200200032
:101970008a0078003002be002003be000800780014
:1019800098ff0700480190000201e90000015100a2
:10199000808045003fba97008a01780009007800ee
:1019a00007010700990090000188a300040032009d
:1019b00098009000810f500001003d000100780068
:1019c0004f05be004f04be000080fa000000060074
:1019d000fa874700889fbe008a9fbe008c9fbe008a
:1019e0008e1f78008004780001047800820578005a
:1019f000180190002805900018077800b8009000a2
:101a00000200e000020035000e10a10001003700c6
:101a10001200200070006700e0b79f00090032004c
:101a20003b02be002b03be00e00f5200e08f5a00c5
:101a3000e00f5b00e08f5b00020032008a86e90065
:101a4000010037008a067800e8026700f5b79f00ba
:101a5000010032008d06e9003b02be002b03be00f0
:101a6000e4af9f00f5af9f0086b79f0097b79f0038
:101a7000480690000c06e9000c8040000048eb008e
:101a8000efb297007fb29700890378008104780055
:101a9000d8af9f00020478008bbf9f008a057800b2
:101aa000034578002a0037000c06e9006fab970069
:101ab0006f006300e90f500002003c000003b0001b
:101ac000010037007005b0000a03fb001604b100e6
:101ad000f90f53000c003e00000378000650a000f0
:101ae0001606b100f90f530007003e00b4b79f007f
:101af000a5b79f00c7b79f0084040700cfb3970026
:101b0000afb297003fb2970080747e000804e900ee
:101b10008d06e9006fa89700ffa897000fb1970006
:101b20009fb19700460020008301d1000281d300bd
:101b30008180d3000080d3000603e900faff3a0059
:101b4000e0af9f00f1af9f0082b79f0093b79f0067
:101b5000e10f56000f0036006fa89700ffa897000e
:101b60000fb197009fb19700e00f5000e08f580031
:101b7000e00f5900e08f5900cbff3a000800e00069
:101b8000c9ff3c000d00e000020034000e18a30065
:101b9000c5ff3a0089007800f4b79f0087047800f9
:101ba0005fac97008a4178000b0578008fbd9700e5
:101bb0000500e000100032003b02be002b03be0017
:101bc000e4af9f00f5af9f0086b79f0097b79f00d7
:101bd000e00f5200e08f5a00e00f5b00e08f5b00e7
:101be000050032000c06e90083707e000c06e90057
:101bf00000c3b30080707e00ffb297000500e000d4
:101c0000030032000c06e90000c2b30080707e00c1
:101c1000480190000201e9000c0151008c80400055
:101c20000e0278008a01780009007800640007003d
:101c3000990090000188a3000400320098009000f1
:101c4000810f500001003d00010078004f0778002f
:101c50004f06be004f05be004f04be00af01b100ed
:101c600000000600f28747008e1f7800020278000d
:101c7000030178000000e000020032000007780055
:101c800001003700728757008002eb000100e0007e
:101c9000010032008102e90070805700060009004f
:101ca0000018eb007280570000a8eb002310200002
:101cb00093bf9f00aebf9f00b1bf9f00c5bf9f00f5
:101cc0000100e00004003d00b004200040868800d0
:101cd0000080eb0005003700004feb00eebf9f00d7
:101ce000debf9f0084007800710307004f07780073
:101cf0002f01b10000000600889fbe008a1f7800f7
:101d0000800478004900900002047800800f54009d
:101d10000100360000047800080178006a8544005c
:101d20001a007800b90207001a004400000d78007c
:101d3000e8844400990c14000048eb004f0578003b
:101d40004f04be000000060010007800aefb370014
:101d5000900190000388a30001003200e6ff3700e5
:101d60000348a30001003a00f7ff07000000060047
:101d7000889fbe008a1f7800800478004900900088
:101d800002047800800f540001003600000478003f
:101d9000080178006a8544001a0078009b02070059
:101da0001a004400000d7800e8844400990c1400e7
:101db0000048eb004f0578004f04be00000006000d
:101dc000f2874700889fbe008a9fbe008c9fbe009e
:101dd0008e1f7800800478000105780002047800e6
:101de000830578006107620002003a008b0f5400ff
:101df00008003900080178008a007800090078009e
:101e0000d3ff07008b0f54000200390088057800cb
:101e10001e003700088655000c017800f00f5600b0
:101e20000100360002012000010220007e805700e0
:101e30009cfb07008c06780005003700020120009b
:101e4000fe80570009007800c1ff0700f0865600a9
:101e5000ef8f5600f9ff3e004461de0000ff2f00c7
:101e60000091b90002014600fe8057000900780089
:101e7000b7ff07000e00e00004003a0008017800f8
:101e80008a00780009007800b1ff07000b00780095
:101e90004f0778004f06be004f05be004f04be003e
:101ea0002f01b10000000600000005000000050041
:101eb00000000500000178000040eb008080fb007e
:101ec000818040004309210063c278000404e000df
:101ed00003003a005009210060c0780000000600ad
:101ee00092017800934f520004003a0050092100fb
:101ef00060c078000309e800010037000040e800f6
:101f0000ea4f5000edff360000000600f68747005c
:101f1000889fbe008a9fbe008c9fbe008e1f7800e7
:101f200080047800010478008305780004067800b6
:101f30000000eb00c0b79f008080eb00d1b79f008e
:101f4000e0b79f00f2b79f000008200080bf9f000d
:101f500098007800010078000005eb0001003700d0
:101f60000a05e800304178000204e0000300320076
:101f700053c2b300834f5100f9ff3a000a00e0005a
:101f8000040032000a0178000900780070ff0700a1
:101f9000180c45001807780050c2b3009e4f10007f
:101fa00033013a000e07e8000e0c780010003700ed
:101fb000cfb097000100a0000b003700cfb0970012
:101fc0000110a00008003700cfb097000120a0004a
:101fd00005003700cfb097000130a00002003700a5
:101fe000cfb097000140a000c1b79f00000ce800ef
:101ff0001800780090407800b2c2b30082cf500041
:10200000f1ff320007003c0002c2b30082cf500053
:10201000f0ff320032c2b30082cf500007003a0016
:10202000efff3700d2c2b30082cf5000e0ff320092
:1020300002c3b30082cf5000e0ff3200a2c2b3005f
:1020400082cf50000d003a00000ce8001c80e9002f
:10205000000e780010007800e0b79f000000e0005c
:102060000f003d00cfb097000100a200c1b79f0054
:102070000000ea00e0b79f0009003700f602070001
:10208000e0b79f0001003700000ce800180078005e
:102090009000fb000103b100e98f5000faff360009
:1020a0004fb097000008a300020032000010a1000a
:1020b000c0b79f0018007800e1c2b30090cf1000b5
:1020c00016003a008000eb00d1b79f000000e80046
:1020d000000c7800a1c2b30090cf100006003a00b7
:1020e000000ce8001c80e900000e78001000780069
:1020f000d0b79f0009003700d7020700d0b79f0074
:1021000001003700000ce800180078009000fb0088
:102110000103b100e98f5000faff36000800780093
:1021200064ff070080467800180078001000fb006c
:10213000ef02070091062000810f500038003200a6
:1021400012003c0041062000810f50003400320094
:102150000a003c0011062000810f500020003200d0
:1021600031062000810f50009a00320051022000f9
:10217000810f5000ae003a00a70037007106200022
:10218000810f5000aa003c008200370001072000a8
:10219000810f50005c00320007003c00e106200087
:1021a000810f500074003200f1062000810f5000b2
:1021b0009f003a003900370051072000810f50007e
:1021c0002700320081072000810f500042003200ba
:1021d00031072000810f500095003a00850037003c
:1021e0008d80fb000c01780000fe2f000f004000e6
:1021f000cd0207000000e0009c00320018007800cb
:10220000000ce8009041780002fe2f000f01410011
:10221000f88057000900780024ff07000e003700ff
:102220008d80fb008c0178001200200000fe2f0042
:102230000f004000db0207000000e0008b003200ce
:10224000180ce80002fe2f000f014100f880570033
:1022500009007800abfc070000054500840037004a
:102260008d80fb008c0178000001eb0000fe2f0048
:102270000f004000cb0207000000e0007b003200ae
:10228000180ce80002fe2f000f014100f8805700f3
:1022900009007800a5fd0700efff37008d80fb00e7
:1022a0008c0178000001eb0000fe2f000f004000c1
:1022b000bc0207000000e0006c003200180ce800cf
:1022c00002fe2f000f014100f8805700090078003e
:1022d000e5fc0700e0ff37008d80fb008c017800f3
:1022e0000001eb0000fe2f000f004000ad020700d0
:1022f0000000e0005d00320018007800000ce800eb
:1023000090417800160037008c0178000001eb0046
:10231000010f200000fe2f000f004000a102070067
:102320000000e00051003200180ce8000fb09700e8
:102330009fb097002fb19700bfb19700e00f5000fa
:10234000e08f5800e00f5900e08f590003003a0079
:102350008001eb00e20821004000370083c7b30092
:1023600002fe2f000f014100f8805700090078009d
:1023700097fd0700b8ff37000b0145008d80fb007b
:102380008c01780000fe2f000f004000de020700e5
:10239000360037008d80fb000c01780000fe2f0016
:1023a0000f004000600207000000e0002f00320034
:1023b00018007800000ce8009041780002fe2f0021
:1023c0000f014100f880570009007800b7fe0700b0
:1023d000a1ff370000c8b30080cf560023003a00a9
:1023e000180ce8001c80e900000e7800104078000e
:1023f0000d00370000c8b30080cf56001b003a0024
:10240000180ce8001c80e900000e78008001eb0049
:10241000100178001100370001c8b30081cf5600c9
:1024200012003a00180ce800e0df9f0008003700b7
:1024300050c2b300e0df9f000e0c78000000eb00fc
:10244000c0b79f00e0b79f008080eb00d1b79f002e
:1024500013002000e2fd2f000f014100f88057001b
:1024600009007800b5fc07007bff3700180ce80076
:102470000a0078004f0778004f06be004f05be00e7
:102480004f04be006f01b100000006008200fa0098
:10249000889fbe008a1f78000005780082047800bb
:1024a000c13f9f000004eb001000370009027800d4
:1024b00088017800a2f72f000f01410081f72f005b
:1024c0008f8040000a00780090fe0700080040005e
:1024d000880f500004003d00b004200040868800b2
:1024e0000084eb0004003700000478004f389700a8
:1024f0001004e000edff3a00080078004f05780076
:102500004f04be000080fa0000000600889fbe0055
:102510008a1f780000047800010578000000eb00b5
:102520000800e0001a003200180090000058a300d4
:102530000c003200ea04440068009000990f10007b
:1025400008003600b80990000001eb008200780016
:1025500008007800030001000080eb001900e00093
:102560000b003200740044000008eb006c004400d3
:102570000008eb006a0044000008eb000000eb00dc
:102580000a00e000020032001800780092f907000b
:102590004f0578004f04be0000000600889fbe0073
:1025a0008a1f78000004be000000eb000800e00075
:1025b00029003200180090000058a30012003200d9
:1025c0006a054400680090009a0f10000800360069
:1025d000b80990000001eb00820078000800780044
:1025e000030001000080eb001a00e0001a00320036
:1025f000740044000008eb006c0044000008eb008d
:102600006a0044000008eb00780a9000081090006f
:10261000800f52000600310000025200110020001d
:10262000cfa2de00612bb900180078005bf907002b
:1026300000022000080040000008eb007e0044007b
:102640000008eb000000eb000900e000020032008f
:102650001800780060f907004f0578004f04be00ad
:1026600000000600889fbe008a1f78008004780062
:102670000105780009007800bd000700000478001b
:102680008a01780008017800110020000900780014
:102690000a000700800078000080eb00888f50005f
:1026a00001003a000000eb004f0578004f04be0027
:1026b000000006001000780053f93700889fbe0024
:1026c0008a9fbe00810478000204780009c5b90021
:1026d0000900e00001003a000004eb000a01780064
:1026e000800078000300780097fd070080007800e4
:1026f0008a8f500003003200110009008980d80041
:1027000000047800080078004f05be004f04be00aa
:10271000000006008180fb00010037000201e90093
:10272000800178000008a300060032000200e000eb
:10273000230032003082fb00810f5200f7ff3a0085
:10274000030037000000eb000200e0001e00320032
:102750001380fb00810f50001c0032001410200079
:10276000048ab90084027800010037000281e90080
:1027700003007800e10f51000a00360033826a003e
:10278000f6ef2f00040343000482ea000402630012
:102790000608280006026200f4ff3200010037003c
:1027a0000201e900800178000200e000050032002b
:1027b0003082fb00810f5200f9ff3a00030037001e
:1027c000000005000000eb00000006000300780098
:1027d00000000600010037000201e9000200e000ed
:1027e0000500320030427800b1417800834f52003a
:1027f000f9ff320001003700000005000480fb00f3
:102800008381fb0003005000000006008001780077
:1028100002003700b15978000201e9000200e0002f
:10282000fcff3a00000006000200fa0000017800f8
:1028300001007800e2ff9f00900090000188a30053
:1028400006003200ea0140009300780082587800c8
:102850000280fb0081097800090037001200200087
:102860008f80e90038fd0700800078000080eb00d1
:102870000100e00002003200eff897000180fb0049
:102880000080fa0000000600e7ff37002000fa0091
:10289000889fbe000004be00994078000104e0005b
:1028a00003003200194090000004e00004003a00e8
:1028b0008100fb00080078008b000700280037002b
:1028c000020220008000eb00c0fd2f000f0040003e
:1028d000f4f80700194078000004e00002003a0014
:1028e000880078000e0037008904e8000080fb00b3
:1028f000c400de006f006000120020000010dd0048
:1029000081804000c2fd2f000f0141008100410085
:102910001100700080087800eeff3a00f0ff3700e9
:1029200001007800114178000204e0000c00320040
:102930008100e8000281fb00ef016100140020002b
:102940000322dd004411de0002014100c5fd2f001d
:102950008f824200e501790003016200f0ff32003e
:10296000080050004f04be000080fa00000006007e
:1029700080007800040037003104e00002003a00d3
:102980000000510000000600010178000108a300ca
:10299000f9ff3a008101780031017800f4ef2f004f
:1029a000020242000281ea000201620004082800db
:1029b00004016100f7ff3200830078000101780014
:1029c0003104e000fdff3a00000051000000060065
:1029d0002000fa000f0178000202b1000f00090088
:1029e0000019eb00914178000001eb000304e000c6
:1029f0002c003200114190000204e00005003a0072
:102a00008000780001017800b1cf1100fdff320095
:102a100023003700114178000204e00002003a0070
:102a2000800078000e0037008100e8000281fb0082
:102a3000c411de006f016100140020000221dd00de
:102a40008381410004fe2f000f02420083014200f7
:102a50001301710082097800eeff3a00f0ff3700a1
:102a600001017800914178000304e0000c0032007d
:102a70008100e8008381fb006f8261001500200067
:102a8000842add00c419de008381410006fe2f0088
:102a90000f0343006682790084816200f0ff3a00f0
:102aa00000015100020078000080fa0000000600da
:102ab0000200fa00881f780000047800e2bf9f003f
:102ac000648157000800780070fe070098009000ad
:102ad0000148a300010032000080eb004f047800a1
:102ae0000080fa0000000600881f780000047800cb
:102af0008180fb000a003a00080078009cff070074
:102b000000004400220037001804e00020003200da
:102b10000804e8001081fb00810f51001c00320006
:102b2000080078000808a300f7ff3a0014102000fe
:102b3000048ab9000801780038007800f5ef2f000a
:102b4000808242008081ea008382620003082800bc
:102b50008382620007003a0000006a00f5ef2f0050
:102b6000808242000080ea000080620083016000f1
:102b7000f0ff3200020078001204e000040032008e
:102b80000201e8009081fb00818f5100f9ff3a00bb
:102b90004f047800000006000000fa00cfb897004c
:102ba00068815700070007000080fa000000060057
:102bb00054fa0700acfa07005cfb070084fb07002f
:102bc000defa37008201780001017800f1ff27006a
:102bd00024fc370061818000910078002aff3700d3
:102be000810178000002780030417800b14f510037
:102bf00002003a000204e000f9ff3a009480fb0072
:102c00001380fb000080500000000600881f780041
:102c10000104780088007800b3ff0700904f14008b
:102c2000010032000000eb004f04780000000600b5
:102c3000800078001000200002022000828f5000e7
:102c400004003200e9805000e48f5000010036009b
:102c50000000eb0000000600889fbe008a1f78007d
:102c600080047800090478008804780039457800e9
:102c70000a00fb00eeff07000000e000f9ff3a0049
:102c8000b0c2b300804f550005003200d0c2b3007f
:102c90008000eb00804f550005003a00020037002d
:102ca0008000eb0001003700110020000804e8005c
:102cb0000000eb00030037006a02b9000200520076
:102cc0000003b0003801fb0003fd2f0082814100aa
:102cd000e98f5100f8ff36000100e00001003a00e2
:102ce0000000ea004f0578004f04be000000060017
:102cf000f1fb2f0080804000f98f500001003e0062
:102d00000050a00000000600f9ff3700f1f92f0085
:102d100080804000f98f500001003e00f005b200b5
:102d200000000600f9ff3700881f780000047800d3
:102d300000082000808f5000170035001008200088
:102d4000808f50000b00340030082000808f50002e
:102d500011003a0092007800688050000009780065
:102d60003002be002003be00049cbe000694be00dc
:102d70000700370092027800648052000009780052
:102d80001000be009e000700009cbe000294be0022
:102d900010002000010037000000eb004f04780015
:102da0000000060084082000848f50001d003200bf
:102db0000d003c0014082000848f500027003200d2
:102dc00002003c0004082000040037002408200012
:102dd000848f50002a00320044082000848f500065
:102de00048003a003b003700040a2000848f50005e
:102df0002c00320004003c0004092000848f5000a5
:102e000040003a002d003700020c2000828f500055
:102e10001e003200020f2000828f500039003a005d
:102e2000300037009380e9000200e0000500320026
:102e3000810978001102fb00cfa2de00612bb900ee
:102e40002d00370081097800114278000482fb00d0
:102e50008002eb006033b8002700370013027800cf
:102e6000e40052000200e0000a003200810978000c
:102e70001102be004fabde00860378001e00370053
:102e800093027800e88052000e0037009302780029
:102e9000e4805200810978001102be006033b8005e
:102ea000150037009380e90081097800110278004d
:102eb000cfa2de00612bb9000f00370013037800aa
:102ec000e8005300810978003102be002103be00f2
:102ed000090037009380e9000200e00002003200a0
:102ee000f1ff37009380e900810978001102780032
:102ef0008002eb006033b8000498be000690be006c
:102f0000100005000000050044082000848f5000d8
:102f1000270032000a003c0014082000848f500073
:102f20001c00320024082000848f5000260032004c
:102f300004082000848f50002c003a001c00370049
:102f400004092000848f50001f00320004003c0060
:102f500084082000848f500024003a0007003700c6
:102f6000040a2000848f500011003200040c20005d
:102f7000848f50001d003a00060037009380e9005e
:102f80008109780091007800010878008248780073
:102f9000150037009380e9008109780091007800de
:102fa00001087800cf91de008288be000e00370055
:102fb0009380e90081097800910078000108780089
:102fc00082087800080037009380e90081097800c2
:102fd00091007800010878006112b900612bb900f6
:102fe0008498be008690be00100005000000050019
:102ff000000006009ef70700fdff0700fcff3700fa
:10300000810378001d0007000001be006000b800c9
:103010000478a30013003a006220e10015003e008e
:103020000d0039008301d1000281d3008180d300db
:103030008301d1000281d3008180d3008301d100bc
:103040000281d3008180d3000538b000c42add009e
:10305000f300b2008381720007f0a70003f0a00024
:103060000000060083ff2700020020006110b90065
:10307000f9ff370003ff2700f7ff3700c70ade001c
:10308000f107b200f50fb20008003200e1cf4200b4
:10309000020032000170a00024000500810f7000c2
:1030a000010032000408050044000500810f700093
:1030b00002003a00140005008502e900000040000b
:1030c00081c04800fcff3b000170a0002400050007
:1030d000020ab900001bb9000200b80081004200da
:1030e000810043000000060000c0da000000060076
:1030f00000c0da0000000600889fbe008a9fbe0064
:1031000030044200b0844a0030054b0090854b00eb
:103110006000b1000898be000a90be000440e100c3
:1031200005c8e10006d0e10007d8e1000200310047
:10313000680040001008e8004f05be004f04be00c4
:1031400000000600889fbe008a9fbe003004be00bb
:103150002005be000418540005985c0006185d00a8
:1031600007985d00110020000440e10005c8e1005f
:1031700006d0e10007d8e100010039008000eb0033
:10318000108810004f05be004f04be00000006006e
:10319000f4874700889fbe008a9fbe008c9fbe00b8
:1031a0008e1f7800d0b79f00e1b79f00f2b79f0055
:1031b00083bf9f000605be000404be00cfae97008b
:1031c0000000eb00c0b79f00b0b79f00a0b79f0002
:1031d00090b79f0080b79f00000678004fb097001f
:1031e000000140000000e00006003d003c00070038
:1031f0000f074700450007000f004000beff070013
:1032000005003700360007000f0747003f000700a2
:103210000f004000cbff07004fb797000e00e00003
:103220000c0035005fb29700efb297007fb39700b4
:103230008fbb970010002000010020006011b80033
:1032400000027200818272000203730083837300a4
:103250001c0007000c06e80001042000810f560046
:10326000deff3a000e00e00005003d000802be004f
:103270000a03be0000fe2f000f0040009eff070063
:103280000d00e00005003a000fb297009fb29700d2
:103290002fb39700bfb397000a0007005fb09700f5
:1032a000efb097007fb197008fb997004f07780074
:1032b0004f06be004f05be004f04be004f01b100d7
:1032c00000000600010007000000060094b79f0000
:1032d000a5b79f00b6b79f00c7b79f0000000600c4
:1032e0009fb097004f08de0002017000a2b79f0058
:1032f0000fb097004f01de00818040008100710017
:1033000091b79f000efe2f0000000600de0078003f
:103310004f09de00000040000000710080b79f00f0
:103320006fa897004f01de0081804000010f7100ff
:103330000e0007004f3ade0000004000040070005d
:10334000e0af9f00090007000402420085824a00a6
:1033500006034b0087834b00dcff07000802be001a
:103360000a03be0000fe2f00000006001fb29700f7
:10337000afb297003fb39700cfb3970000000600ad
:10338000881f780018002000881f780080ff070041
:103390008f87e9004f04780000000600801feb00d3
:1033a0007bff07008f87e90000000600889fbe00b2
:1033b0008a9fbe00e00f5000e08f5800e00f5900d8
:1033c000e08f59000c003d006044b8006055b80023
:1033d0000000540081805c0002015d0083815d007b
:1033e000180020001500070008003d001800070025
:1033f0000004eb00050037000004eb000f0007009d
:1034000002003d001200070018002000dcff07004a
:103410000800e000060032006022b8006033b80007
:103420000000520081805a0002015b0083815b0032
:103430004f05be004f04be0000000600e00f520022
:10344000e08f5a00e00f5b00e08f5b000000060099
:103450006044b8006055b8000402540085825c00e6
:1034600006035d0087835d0000000600889fbe00a4
:103470008a9fbe008c1f7800e00f5000e08f58003c
:10348000e00f5900e08f59000d003d006044b80086
:103490006055b8000000540081805c0002015d00ae
:1034a00083815d001c0020000820e10009a8e100e4
:1034b0000ab0e1000bb8e1000d003d000800370044
:1034c0000006eb00e00f5200e08f5a00e00f5b00b7
:1034d000e08f5b0006003d006044b8006055b80016
:1034e0000402540085825c0006035d0087835d0052
:1034f000aaff07000c00e000060032006022b800be
:103500006033b8000000520081805a0002015b0065
:1035100083815b004f0678004f05be004f04be005c
:0435200000000600a1
:020000040000fa
:10352400415400002b430000495000005345000063
:103534004e4400003d250000640d00000a00000018
:10354400536500006e640000696e0000672000008f
:1035540041540000206300006f6e00006e6500009f
:1035640063740000207400006f20000041500000cc
:1035740049200000636f00006d6d0000616e000063
:10358400642e00002e0d0000000a0000005300000d
:10359400656e0000646900006e6700002041000051
:1035a40054200000736900007a650000206f000059
:1035b400662000006d73000067200000636f000048
:1035c4006d6d0000616e0000642e00002e0d000081
:1035d40000530000656e0000646900006e6700001f
:1035e4002047000045540000206300006f6d000078
:1035f4006d6100006e640000203100002e2e00007a
:103604000d000000415400002b430000495000000d
:103614005354000041520000543d00002254000065
:1036240043500000222c000022360000352e0000fa
:1036340031300000392e000031340000332e0000f8
:1036440037340000222c00003830000038300000ed
:103654000d0a00000000000000000000000000004f
:103664000000000000000000000000000000000056
:103674000000000000000000000000000000000046
:103684000000000000000000000000000000000036
:103694000000000000000000000000000000000026
:1036a4000000000000000000000000000000000016
:1036b4000000000000000000000000000000000006
:1036c40000000000000000000000000000000000f6
:1036d40000000000000000000000000000000000e6
:1036e40000000000000000000000000000000000d6
:1036f40000000000000000000000000000000000c6
:1037040000000000000000000000000000000000b5
:1037140000000000000000000000000000000000a5
:103724000000000000000000000000000000000095
:103734000000000000000000000000000000000085
:103744000000000000000000000000000000000075
:1037540000000000004300004f4e00004e450000f2
:103764004354000000220000000d00000a00000085
:1037740047450000542000002f740000696d0000cc
:103784006520000048540000545000002f31000010
:103794002e3000000d0a0000486f00007374000012
:1037a4003a200000363500002e3100003039000088
:1037b4002e310000343300002e370000340d000099
:1037c4000a0d00000a0d00000a0000003a00000083
:1037d400415400002b4300004950000053540000a2
:1037e40041540000555300000d0a0000004700003a
:1037f40045540000202f000070650000726900002d
:103804006f6400002f25000064200000485400006d
:10381400545000002f3100002e3000000d0a00002b
:10382400486f0000737400003a2000003635000031
:103834002e310000303900002e31000034330000f6
:103844002e370000340d00000a0d00000a0d0000a0
:103854000a000000737400006172000074540000d8
:10386400696d000065000000504f000053540000d3
:10387400202f0000616c0000617200006d2f0000b9
:10388400256400002048000054540000502f00001c
:10389400312e0000300d00000a4800006f73000054
:1038a400743a000020360000352e0000313000004c
:1038b400392e000031340000332e0000373400006c
:1038c4000d0a00000d0a00000d0a000000000000af
:020000040000fa
:1038d400f002fa00a32e20008e81410080097800b6
:1038e400c02e20000e00400001087800e02e2000c9
:1038f4000e00400002087800740047008201200096
:103904008000eb00e6f4070074004700c12e20009d
:103914008e804000911f780021a92900811f780022
:103924009cfc0700e4875700124020008000eb0055
:10393400a0822000daf40700c102200081004700c1
:1039440042b0290028000900b2587800130c07007f
:1039540020aa290035f507000000eb00000f7800cd
:1039640006003700c00220000e0040001e00400088
:1039740010407800160407001e0fe80080022000a3
:103984009e007800808f5000f6ff3600400620002d
:103994009b0b0700d1b22900500520000e00400007
:1039a40011487800e1b22900600520000e004000b3
:1039b400114878008e0078007105b0007d00090080
:1039c4008058eb008000eb000e80e80001087800ce
:1039d40010003700a08220008e80e800910078005b
:1039e4000100400090407800500520000e00400087
:1039f4000e81e800120178000200400001487800be
:103a04000e80e800100078008000e8000e80e800d6
:103a1400010878000e80e80090007800f00720008c
:103a2400808f5000ebff3400500520000e00400052
:103a340071ac290095f60700800078006c004700ff
:103a44000108780071ac29000000eb008ff6070034
:103a5400800078006c00470001087800520d2000b7
:103a640002014700d1ba2900060009003159780043
:103a7400c00d20000e00400012c424002355240071
:103a84000288be006400400011442400010878004c
:103a94000080e80091c5b300014878000000e80008
:103aa4008000eb0064004700010878001100370033
:103ab40064004700900078006c0047001000780014
:103ac4000100400090407800300e20000e004000bd
:103ad40064014700120178000200400001487800a8
:103ae40064004700100078008000e800640047008c
:103af400010878006400470010007800e60f5000c9
:103b0400ebff36008000eb006e00470001087800f0
:103b1400c10d20008e804000500d20000e0040009a
:103b24002efc070080007800700047000108780030
:103b34006e004700100078000000e0000b003a001f
:103b440070004700100078000000e00007003a0011
:103b540071002000720047000108780072004700dd
:103b6400100078004c070700650037008b0b070036
:103b740090ac2900adf407008000eb00660047001c
:103b8400010878000b00370074004700e600470086
:103b94009100780001004000104078008c03070079
:103ba40066004700100078008000e80066004700c7
:103bb4000108780074004700e6004700910078008f
:103bc40001004000104078000004e000eeff3a00dd
:103bd400720b070040062000090b0700b0ae290055
:103be40092f407008000eb006800470001087800a9
:103bf4000d003700a02e20000e0040009000780039
:103c040068004700100078000080400010407800f1
:103c14006f03070068004700100078008000e80088
:103c24006800470001087800c02e20000e00400004
:103c3400900078006800470010007800808f5000e2
:103c4400ecff3e00a00e20000e00400002202000e9
:103c54008000eb0012f4070040062000e80a070089
:103c64008000eb006a004700010878001c00370060
:103c74006a00470090007800e02e20000e0040000b
:103c84001000780001004000ea00470011017800ac
:103c9400a182200081004100914078000148780011
:103ca4006a00470090007800a08220000080400055
:103cb40090407800a00e20000e0040006a014700ea
:103cc4001201780002004000014878006a004700b1
:103cd400100078008000e8006a00470001087800be
:103ce4006a00470090007800a08220000080400015
:103cf400104078000004e000ddff3a00270b0700c5
:103d04000080fa00000006006202fa006e0047001c
:103d1400022020008000eb00e1f30700e0202000f7
:103d24000e004000a1bb29002d0009003158780085
:103d3400e002b100ee004700e02020000e00400049
:103d44000101780051032000e1fe07006e004700e6
:103d540051bb2900cdf50700800078006c004700b6
:103d64000108780051bb29000000eb00c7f50700eb
:103d7400800078006c0047000108780070bb2900bf
:103d84002af407000000eb00000f78000a00370057
:103d94009e0078006c00470010007800010040008d
:103da40090407800c02320000e0040001e00400018
:103db400014878001e0fe8001e007800e30f500051
:103dc400f3ff34008000eb000e80e8000108780067
:103dd400120037000e80e8001000780065004000f3
:103de400ec0047009100780000804000904078008b
:103df400002420000e0040000e81e800120178002b
:103e040002004000014878000e80e80010007800ad
:103e14008000e8000e80e800010878000e80e800c9
:103e240010007800e10f5000eaff34008000eb003e
:103e3400640047000108780012003700640047005e
:103e44001000780068004000ec0047009100780002
:103e54000080400090407800202420000e004000a4
:103e64006401470012017800020040000148780014
:103e740064004700100078008000e80064004700f8
:103e8400010878006400470010007800e10f50003a
:103e9400eaff34008000eb00660047000108780068
:103ea4001200370066004700100078006b004000e5
:103eb400ec004700910078000080400090407800ba
:103ec400402420000e0040006601470012017800e3
:103ed40002004000014878006600470010007800a6
:103ee4008000e8006600470001087800660047008b
:103ef40010007800e10f5000eaff34008000eb006e
:103f04006800470001087800120037006800470085
:103f1400100078006e004000ec004700910078002b
:103f24000080400090407800602420000e00400093
:103f3400680147001201780002004000014878003f
:103f440068004700100078008000e800680047001f
:103f5400010878006800470010007800e10f500065
:103f6400eaff34008000eb006a0047000108780093
:103f7400120037006a00470010007800710040000a
:103f8400ec004700910078000080400090407800e9
:103f9400802420000e0040006a01470012017800ce
:103fa40002004000014878006a00470010007800d1
:103fb4008000e8006a004700010878006a004700b2
:103fc40010007800e10f5000eaff3400c023200005
:103fd4000e0040000000e800104078008000fb0064
:103fe400400620000088b90000017800c0232000aa
:103ff4000e004000104078000000fb0001fd2f007f
:1040040080804000803e20000088b90000007800d5
:104014008000410000d42e0000814000c023200015
:104024000e0040000080e800104078000000fb0013
:104034006a00b90000007800001eb1008000410051
:10404400c02320000e0040006300400010407800b0
:104054000000fb000003b1008080400040892f0075
:1040640080804000a02420000e0040006a00400030
:1040740001087800002420000e0040001040780061
:104084000000fb006a00b9000000780001e22f0084
:1040940080804000002420000e0040000000e80062
:1040a400104078000000fb000080400001fd2f005c
:1040b40080804000a02420000e00400068004000e2
:1040c40001087800202420000e00400010407800f1
:1040d4000000fb006a00b9000000780001e22f0034
:1040e40080804000202420000e0040000000e800f2
:1040f400104078000000fb000080400001fd2f000c
:1041040080804000a02420000e0040006600400093
:1041140001087800402420000e0040001040780080
:104124000000fb006a00b9000000780001e22f00e3
:1041340080804000402420000e0040000000e80081
:10414400104078000000fb000080400021fd2f009b
:1041540080804000a02420000e0040006400400045
:1041640001087800602420000e0040001040780010
:104174000000fb006a00b9000000780001e22f0093
:1041840080804000602420000e0040000000e80011
:10419400104078000000fb000080400001fd2f006b
:1041a40080804000a02420000e0040000080e80031
:1041b40001087800802420000e00400010407800a0
:1041c4000000fb006a00b9000000780001e22f0043
:1041d40080804000802420000e0040000000e800a1
:1041e400104078000000fb000080400001fd2f001b
:1041f40080804000a02420000e00400001087800c8
:10420400a02420000e004000110020006c0040009b
:1042140001087800a02420000e00400011002000b6
:104224006e00400001087800a02420000e00400029
:10423400cf0307000080fa00000006001601fa0010
:10424400d6090700e6004700a2be29000e000900b7
:10425400b2587800fe0107000004e0000b003200b1
:104264000000eb00000f78000500370066004700ef
:104274001e00400010407800d50107001e0fe80022
:104284001e007800ee0f5000f8ff360020032000d7
:104294005b0907008000eb000e80e800010878004d
:1042a4000f0037000e80e80090007800a082200004
:1042b4000080400090407800750047000e81e800bf
:1042c4001201780002004000014878000e80e800e6
:1042d400100078008000e8000e80e80001087800f3
:1042e4000e80e80090007800f00f2000808f5000ce
:1042f400ecff36007500470081be290063f4070017
:1043040080007800640047000108780081be29001d
:104314000000eb005df407008000780064004700b3
:10432400010878000e003700640047001000780090
:104334009040780050c3b30080cf500002003a0090
:104344000040eb000b00370081be29000000eb00a9
:104354004ef40700800078006400470001087800ec
:1043640064004700100078000000e000eeff3a000f
:1043740010c0b3000080fa00000006002402fa0016
:10438400889fbe008a1f78008f0478000f00780091
:1043940000057800b103200064004700010878009c
:1043a40064004700100478008800e90066004700b4
:1043b40001087800080078000000e8000000e80028
:1043c4000000d100800040000f0078008187470082
:1043d4000000e8000000d10000004000e8004700b1
:1043e40080087800960907008000780008007800ab
:1043f4006801470012017800811f780091bf2900ed
:10440400811f7800800078000200780019f207000c
:10441400e487570068004700900178007400470063
:1044240000017800640047009000780003007800e1
:1044340027fd0700422120000e0141001003220045
:10444400210323000089be00010320006400410011
:1044540001087800412120008e804000740047004c
:10446400ddf30700800078006a0047000108780047
:104474006a004700100078000000e000a400320049
:1044840074004700c1c22900d3f3070080007800fc
:104494006c0047000108780081be29006c004700c9
:1044a40010007800f9f30700800078006c004700e2
:1044b4000108780081be29000000eb00f3f3070037
:1044c400800078006c004700010878000000eb00d1
:1044d400000f78000a0037001e00e800ec004700d7
:1044e400910078000080400090407800a0212000d6
:1044f4000e0040001e004000014878001e0fe80036
:104504001e00e800ec0047009100780000804000a5
:104514009040780020c2b30080cf5000eeff3a00f4
:1045240081be29000000eb00d8f30700800078006a
:104534006c004700010878008000eb000e80e80062
:1045440001087800120037000e80e800100078009f
:104554000000e800ec004700910078000080400073
:1045640090407800f02120000e0040000e81e80009
:104574001201780002004000014878000e80e80033
:10458400100078008000e8000e80e8000108780040
:104594000e80e800100078000000e800ec004700fe
:1045a40091007800008040009040780020c2b30061
:1045b40080cf5000e4ff3a00a02120000e0040000c
:1045c4000000e800104078008000fb004006200056
:1045d4000088b90000017800a02120000e004000ee
:1045e400104078000000fb0001fd2f008080400097
:1045f400803e20000088b90000007800800041005f
:1046040000d42e0000814000a02120000e004000b4
:104614000080e800104078000000fb006a00b90048
:1046240000007800001eb10080004100a02120009d
:104634000e00400063004000104078000000fb00c2
:104644000003b100808040006e004700010878003c
:10465400f02120000e0040000000e8001040780027
:104664008000fb00400620000088b90000017800ab
:10467400f02120000e004000104078000000fb00f4
:1046840001fd2f0080804000803e20000088b9009a
:10469400000078008000410000d42e00008140001a
:1046a400f02120000e0040000080e8001040780057
:1046b4000000fb006a00b90000007800001eb10091
:1046c40080004100f02120000e0040006300400003
:1046d400104078000000fb000003b100808040001f
:1046e40070004700010878007000470090007800cf
:1046f4006e00470010007800db0807008000eb0024
:10470400720047000108780010c0b30001003700b0
:104714000040eb008a077800890778004f0578008d
:104724004f04be000080fa00000006000000fa00fa
:104734008ea1a90090012000310807008ea1a800d5
:10474400007d20002e0807000080fa00000006000b
:104754000000fa008aa1a9008ea1a8000080fa0036
:10476400000006000e02fa00889fbe008a1f78002f
:104774008f0478000f00780000057800b003200053
:10478400000f78001e0478008800e9000e80e8001d
:1047940001087800080078000000e8000000e80044
:1047a4000000d100800040000f007800818747009e
:1047b4000000e8000000d10000004000e4004700d1
:1047c400800878009e0807008000780008007800c0
:1047d4006401470012017800811f780061c3290039
:1047e400811f7800800078000200780021f1070022
:1047f400e487570064004700900178006800470090
:10480400000178009e0078000300780030fc070067
:10481400822020000e014100100322002103230006
:104824000089be00010320006400410001087800f3
:10483400812020008e80400068004700e6f20700d7
:104844008000780066004700010878006600470091
:10485400100078000000e0000200320010c0b30035
:10486400010037000040eb008a07780089077800d0
:104874004f0578004f04be000080fa0000000600d7
:104884000000fa009580a9009560a900800020002e
:10489400002888000225ef0020022000402888001c
:1048a4000a25ef000c25ef000e25ef001025ef0080
:1048b4001225ef001425ef00a00a210030408800e3
:1048c400a00a210020408800300b210010408800fd
:1048d400300b2100004088000868ef00a049220046
:1048e40007000700804b2200140007009560a80011
:1048f40001e5a8000345a8000080fa0000000600b6
:104904000200fa00000f78001e0078000000e000aa
:1049140003003a00a04922005040880002003700fa
:104924009e007800514088000080fa0000000600d4
:104934000000fa000080fa00000006000200fa00fd
:10494400000f78001e0078000000e00003003a0029
:10495400804b220060408800020037009e007800ef
:10496400614088000080fa00000006000000fa00a0
:104974000080fa00000006000200fa000040eb008c
:10498400004f7800000000001140800000408000cb
:10499400808f5000fcff320010408000104f7800e0
:1049a400104080000000e8001040880011408000a2
:1049b400c00b2100808f500002003a00300b210010
:1049c400104088001e4078000080fa0000000600b5
:1049d4000200fa00004f7800000000001c000700ed
:1049e4000004a2000004e000fcff3a002040800024
:1049f4001e487800204080000000e8002040880025
:104a040021408000300b2100808f500002003a00ca
:104a1400a00a2100204088009580a8000080fa00a8
:104a2400000006000000fa001140800000408000f1
:104a34000080680000f0a7000000ea000000ea001f
:104a44004f00de00004078000080fa0000000600fd
:104a54000400fa000e80e80031408000010878006c
:104a6400214080000e80e80010007800808f500004
:104a7400070031000e80e80090007800204080009c
:104a8400008050000000e900000f780006003700a5
:104a94000e80e800900078002040800000805000e4
:104aa40068004000000f78001e00780000f0a700a6
:104ab4000000ea000000ea004f00de000040780039
:104ac4000080fa00000006000000fa002140800087
:104ad40030408000808f500009003a001128800087
:104ae400001020000080600000f0a7000000ea0031
:104af4000000ea004f00de000040780001003700ab
:104b04000040eb000080fa00000006000400fa00f8
:104b14000e80e80001408000010878001140800008
:104b24000e80e80010007800810f5000070031006b
:104b34000e80e80090007800104080000080500053
:104b440069004000000f7800040037000e80e80080
:104b54009000780010408000008f5000f00f20007b
:104b64009e007800808f50000200360000c0eb00e9
:104b7400020037001e007800004078000080fa0030
:104b8400000006000400fa000e80e80031408000b6
:104b940001087800214080000e80e80010007800b1
:104ba400808f5000070031000e80e80090007800ec
:104bb40020408000008050000000e900000f7800d1
:104bc400060037000e80e800900078002040800046
:104bd4000080500068004000000f7800f00f2000b3
:104be4009e007800808f50000200360000c0eb0069
:104bf400020037001e007800004078000080fa00b0
:104c0400000006000800fa0064014700000978006b
:104c14006600470001087800bcff07000080fb0025
:104c2400000f780066004700100078009e0f5000c7
:104c34000200310066004700100f78008000eb008e
:104c44000e80e800010878000e0037004aff0700d4
:104c5400e400470091007800804878006400470031
:104c6400100078008000e800640047000108780024
:104c74000e80e800100078008000e8000e80e80054
:104c8400010878000e80e800100078009e0f5000a4
:104c9400eeff39001e0078000080fa0000000600d4
:104ca4000800fa0064014700000978006600470024
:104cb40001087800b3ff07000080fb00000f7800b4
:104cc40066004700100078009e0f5000020031007b
:104cd40066004700100f78008000eb000e80e800ab
:104ce400010878000e0037006400470010007800c7
:104cf40010407800e4004700910078000101e800ca
:104d0400e40047008208780031ff07000e80e800c5
:104d1400100078008000e8000e80e80001087800a8
:104d24000e80e800100078009e0f5000eeff39005e
:104d34001e0078000080fa00000006000400fa005b
:104d44000000eb00000f780070ff07008e80e80081
:104d5400804878008bff0700e30047008048780014
:104d64000e80e800104078000080fb000000e000a6
:104d740003003200e90f5000030032000400370042
:104d84001e20a000040037001e00a000020037000f
:104d94001e10a000000000006300470010407800cf
:104da4000080fb000000e00003003200e90f500027
:104db40003003200040037001e30a0000200370058
:104dc4001e40a000000000001e0078000080fa00d1
:104dd400000006000400fa008e80e80080087800d5
:104de400114080000e80e80010007800008f400021
:104df400020037009e007800698f5000c00b21002c
:104e04009e007800808f5000faff3e001e0078005c
:104e1400104078000080fa00000006000000fa004c
:104e24003aff07000080fb000000e9004f00de00ad
:104e3400004078000080fa00000006000000fa003c
:104e440050ff07000080fb000000e9004f00de0077
:104e5400004078000080fa00000006000000fa001c
:104e6400102880000080fa00000006000000fa000c
:104e740044ff07000004e0001000320031408000cd
:104e840020408000808f50000600360030408000b3
:104e94008000780020408000008050000000e9007d
:104ea40007003700304080008000780020408000f8
:104eb4000080500068004000010037000000eb0053
:104ec4000080fa00000006000000fa000fff07004f
:104ed4000004e00010003200114080000040800017
:104ee400808f50000600360010408000800078005b
:104ef40000408000008050000000e90007003700f7
:104f04001040800080007800004080000080500045
:104f140068004000010037000000eb000080fa0048
:104f2400000006000000fa0001e5a8000345a800ff
:104f34000080fa00000006000000fa0001e5a90064
:104f44000345a9000080fa00000006000000fa00f2
:104f540050052000303b8800a00a2000303b880028
:104f640025a1a80025e1a9002a0007000004a20049
:104f74000004e0000c003200210980000030200011
:104f84000100700020098800300220001009880008
:104f940030402000100988004011200010098800ca
:104fa400501522001009880021e1a90001098000a0
:104fb400f0cf2f00008060000090a000000988005e
:104fc40030402000f008880040112000f0088800dc
:104fd40050152200f008880000c02800000988004d
:104fe4002621ef0025e1a80025a1a9009bc0a80067
:104ff4000080fa00000006000200fa00004f78006a
:105004001e41780041822000824878000080fa0026
:10501400000006000000fa0024c8bf000080fa0067
:10502400000006000400fa008e80e8008008780082
:105034002109800000002100008060000000e000e1
:10504400020032000040eb004700370021098000d5
:105054000030200001007000200988001109800040
:10506400010f78001e007800004078001a01070044
:105074008080fb000e80e800100078006a00400089
:105084000108780011098000010f78001e007800e3
:105094004800de00004078000f0107008080fb001c
:1050a4000e80e800100078006800400001087800d5
:1050b4001e00780000407800070107008080fb0094
:1050c4000e80e800100078006600400001087800b7
:1050d40011098000010f78001e0078004800de00ee
:1050e40000407800fc0007008080fb000e80e80090
:1050f400100078006c004000010878001e00780061
:1051040000407800f40007008080fb000e80e80077
:105114001000780064004000010878001109800044
:10512400010f78001e0078004800de00004078007f
:10513400e90007008080fb000e80e8001000780082
:105144000080e800010878001e0078000040780024
:10515400e10007008080fb000e80e800100078006a
:105164000108780010c0b3000080fa0000000600b7
:105174000200fa00881f7800000f78005105200013
:10518400313b8800a10a2000313b880025a1a800fa
:1051940025e1a9008bc0a9009bc0a90021098000ba
:1051a4000030200001007000200988001e007800f3
:1051b4006a0040001000780000407800ac0007004e
:1051c4000080fb00100988001e0078006800400081
