:020000040000fa
:080000000002040000000000f2
:020000040000fa
:04000800a40500004b
:020000040000fa
:04000c0040030000ad
:020000040000fa
:040010008203000067
:020000040000fa
:040014006003000085
:020000040000fa
:04001800a20300003f
:020000040000fa
:04001c00a405000037
:020000040000fa
:04002000a405000033
:020000040000fa
:04002400a40500002f
:020000040000fa
:04002800a40500002b
:020000040000fa
:04002c00a405000027
:020000040000fa
:04003000a405000023
:020000040000fa
:04003400b80400000c
:020000040000fa
:04003800a40500001b
:020000040000fa
:04003c00a405000017
:020000040000fa
:04004000a405000013
:020000040000fa
:04004400fc040000b8
:020000040000fa
:040048005e05000051
:020000040000fa
:04004c00a405000007
:020000040000fa
:04005000a405000003
:020000040000fa
:040054003c04000068
:020000040000fa
:04005800e0030000c1
:020000040000fa
:04005c00a4050000f7
:020000040000fa
:04006000a4050000f3
:020000040000fa
:04006400a4050000ef
:020000040000fa
:04006800a4050000eb
:020000040000fa
:04006c00a4050000e7
:020000040000fa
:04007000a4050000e3
:020000040000fa
:040074002c03000059
:020000040000fa
:04007800400500003f
:020000040000fa
:04007c00a4050000d7
:020000040000fa
:04008000a4050000d3
:020000040000fa
:04008400a4050000cf
:020000040000fa
:04008800a4050000cb
:020000040000fa
:04008c00a4050000c7
:020000040000fa
:04009000a4050000c3
:020000040000fa
:04009400a4050000bf
:020000040000fa
:04009800a4050000bb
:020000040000fa
:04009c00a4050000b7
:020000040000fa
:0400a000a4050000b3
:020000040000fa
:0400a400a4050000af
:020000040000fa
:0400a800a4050000ab
:020000040000fa
:0400ac00a4050000a7
:020000040000fa
:0400b000a4050000a3
:020000040000fa
:0400b400a40500009f
:020000040000fa
:0400b800a40500009b
:020000040000fa
:0400bc00a405000097
:020000040000fa
:0400c000a405000093
:020000040000fa
:0400c400a40500008f
:020000040000fa
:0400c800a40500008b
:020000040000fa
:0400cc00a405000087
:020000040000fa
:0400d000a405000083
:020000040000fa
:0400d400a40500007f
:020000040000fa
:0400d800a40500007b
:020000040000fa
:0400dc00a405000077
:020000040000fa
:0400e000a405000073
:020000040000fa
:0400e400a40500006f
:020000040000fa
:0400e800a40500006b
:020000040000fa
:0400ec00a405000067
:020000040000fa
:0400f000a405000063
:020000040000fa
:0400f400a40500005f
:020000040000fa
:0400f800a40500005b
:020000040000fa
:0400fc00a405000057
:020000040000fa
:04010000a405000052
:020000040000fa
:04010400a40500004e
:020000040000fa
:04010800a40500004a
:020000040000fa
:04010c00a405000046
:020000040000fa
:04011000a405000042
:020000040000fa
:04011400a40500003e
:020000040000fa
:04011800a40500003a
:020000040000fa
:04011c00a405000036
:020000040000fa
:04012000c203000016
:020000040000fa
:04012400a40500002e
:020000040000fa
:04012800a40500002a
:020000040000fa
:04012c00a204000029
:020000040000fa
:04013000a405000022
:020000040000fa
:04013400a40500001e
:020000040000fa
:04013800a40500001a
:020000040000fa
:04013c00a405000016
:020000040000fa
:04014000a405000012
:020000040000fa
:04014400a40500000e
:020000040000fa
:04014800a40500000a
:020000040000fa
:04014c00a405000006
:020000040000fa
:04015000a405000002
:020000040000fa
:04015400a4050000fe
:020000040000fa
:04015800a4050000fa
:020000040000fa
:04015c00a4050000f6
:020000040000fa
:04016000a4050000f2
:020000040000fa
:04016400a4050000ee
:020000040000fa
:04016800a4050000ea
:020000040000fa
:04016c00a4050000e6
:020000040000fa
:04017000a4050000e2
:020000040000fa
:04017400a4050000de
:020000040000fa
:04017800a4050000da
:020000040000fa
:04017c00a4050000d6
:020000040000fa
:04018000a4050000d2
:020000040000fa
:04018400a4050000ce
:020000040000fa
:04018800a4050000ca
:020000040000fa
:04018c00a4050000c6
:020000040000fa
:04019000a4050000c2
:020000040000fa
:04019400a4050000be
:020000040000fa
:04019800a4050000ba
:020000040000fa
:04019c00a4050000b6
:020000040000fa
:0401a000a4050000b2
:020000040000fa
:0401a400a4050000ae
:020000040000fa
:0401a800a4050000aa
:020000040000fa
:0401ac00a4050000a6
:020000040000fa
:0401b000a4050000a2
:020000040000fa
:0401b400a40500009e
:020000040000fa
:0401b800a40500009a
:020000040000fa
:0401bc00a405000096
:020000040000fa
:0401c000a405000092
:020000040000fa
:0401c400a40500008e
:020000040000fa
:0401c800a40500008a
:020000040000fa
:0401cc00a405000086
:020000040000fa
:0401d000a405000082
:020000040000fa
:0401d400a40500007e
:020000040000fa
:0401d800a40500007a
:020000040000fa
:0401dc00a405000076
:020000040000fa
:0401e000a405000072
:020000040000fa
:0401e400a40500006e
:020000040000fa
:0401e800a40500006a
:020000040000fa
:0401ec00a405000066
:020000040000fa
:0401f000a405000062
:020000040000fa
:0401f400a40500005e
:020000040000fa
:0401f800a40500005a
:020000040000fa
:0401fc00a405000056
:020000040000fa
:04020800a405000049
:020000040000fa
:04020c0040030000ab
:020000040000fa
:040210008203000065
:020000040000fa
:040214006003000083
:020000040000fa
:04021800a20300003d
:020000040000fa
:04021c00a405000035
:020000040000fa
:04022000a405000031
:020000040000fa
:04022400a40500002d
:020000040000fa
:04022800a405000029
:020000040000fa
:04022c00a405000025
:020000040000fa
:04023000a405000021
:020000040000fa
:04023400b80400000a
:020000040000fa
:04023800a405000019
:020000040000fa
:04023c00a405000015
:020000040000fa
:04024000a405000011
:020000040000fa
:04024400fc040000b6
:020000040000fa
:040248005e0500004f
:020000040000fa
:04024c00a405000005
:020000040000fa
:04025000a405000001
:020000040000fa
:040254003c04000066
:020000040000fa
:04025800e0030000bf
:020000040000fa
:04025c00a4050000f5
:020000040000fa
:04026000a4050000f1
:020000040000fa
:04026400a4050000ed
:020000040000fa
:04026800a4050000e9
:020000040000fa
:04026c00a4050000e5
:020000040000fa
:04027000a4050000e1
:020000040000fa
:040274002c03000057
:020000040000fa
:04027800400500003d
:020000040000fa
:04027c00a4050000d5
:020000040000fa
:04028000a4050000d1
:020000040000fa
:04028400a4050000cd
:020000040000fa
:04028800a4050000c9
:020000040000fa
:04028c00a4050000c5
:020000040000fa
:04029000a4050000c1
:020000040000fa
:04029400a4050000bd
:020000040000fa
:04029800a4050000b9
:020000040000fa
:04029c00a4050000b5
:020000040000fa
:0402a000a4050000b1
:020000040000fa
:0402a400a4050000ad
:020000040000fa
:0402a800a4050000a9
:020000040000fa
:0402ac00a4050000a5
:020000040000fa
:0402b000a4050000a1
:020000040000fa
:0402b400a40500009d
:020000040000fa
:0402b800a405000099
:020000040000fa
:0402bc00a405000095
:020000040000fa
:0402c000a405000091
:020000040000fa
:0402c400a40500008d
:020000040000fa
:0402c800a405000089
:020000040000fa
:0402cc00a405000085
:020000040000fa
:0402d000a405000081
:020000040000fa
:0402d400a40500007d
:020000040000fa
:0402d800a405000079
:020000040000fa
:0402dc00a405000075
:020000040000fa
:0402e000a405000071
:020000040000fa
:0402e400a40500006d
:020000040000fa
:0402e800a405000069
:020000040000fa
:0402ec00a405000065
:020000040000fa
:0402f000a405000061
:020000040000fa
:0402f400a40500005d
:020000040000fa
:0402f800a405000059
:020000040000fa
:0402fc00a405000055
:020000040000fa
:04030000a405000050
:020000040000fa
:04030400a40500004c
:020000040000fa
:04030800a405000048
:020000040000fa
:04030c00a405000044
:020000040000fa
:04031000a405000040
:020000040000fa
:04031400a40500003c
:020000040000fa
:04031800a405000038
:020000040000fa
:04031c00a405000034
:020000040000fa
:04032000c203000014
:020000040000fa
:04032400a40500002c
:020000040000fa
:04032800a405000028
:020000040000fa
:04032c00a204000027
:020000040000fa
:04033000a405000020
:020000040000fa
:04033400a40500001c
:020000040000fa
:04033800a405000018
:020000040000fa
:04033c00a405000014
:020000040000fa
:04034000a405000010
:020000040000fa
:04034400a40500000c
:020000040000fa
:04034800a405000008
:020000040000fa
:04034c00a405000004
:020000040000fa
:04035000a405000000
:020000040000fa
:04035400a4050000fc
:020000040000fa
:04035800a4050000f8
:020000040000fa
:04035c00a4050000f4
:020000040000fa
:04036000a4050000f0
:020000040000fa
:04036400a4050000ec
:020000040000fa
:04036800a4050000e8
:020000040000fa
:04036c00a4050000e4
:020000040000fa
:04037000a4050000e0
:020000040000fa
:04037400a4050000dc
:020000040000fa
:04037800a4050000d8
:020000040000fa
:04037c00a4050000d4
:020000040000fa
:04038000a4050000d0
:020000040000fa
:04038400a4050000cc
:020000040000fa
:04038800a4050000c8
:020000040000fa
:04038c00a4050000c4
:020000040000fa
:04039000a4050000c0
:020000040000fa
:04039400a4050000bc
:020000040000fa
:04039800a4050000b8
:020000040000fa
:04039c00a4050000b4
:020000040000fa
:0403a000a4050000b0
:020000040000fa
:0403a400a4050000ac
:020000040000fa
:0403a800a4050000a8
:020000040000fa
:0403ac00a4050000a4
:020000040000fa
:0403b000a4050000a0
:020000040000fa
:0403b400a40500009c
:020000040000fa
:0403b800a405000098
:020000040000fa
:0403bc00a405000094
:020000040000fa
:0403c000a405000090
:020000040000fa
:0403c400a40500008c
:020000040000fa
:0403c800a405000088
:020000040000fa
:0403cc00a405000084
:020000040000fa
:0403d000a405000080
:020000040000fa
:0403d400a40500007c
:020000040000fa
:0403d800a405000078
:020000040000fa
:0403dc00a405000074
:020000040000fa
:0403e000a405000070
:020000040000fa
:0403e400a40500006c
:020000040000fa
:0403e800a405000068
:020000040000fa
:0403ec00a405000064
:020000040000fa
:0403f000a405000060
:020000040000fa
:0403f400a40500005c
:020000040000fa
:0403f800a405000058
:020000040000fa
:0403fc00a405000054
:020000040000fa
:10040000cf0a21000e7f22000e01880000000000ac
:10041000000020000000e000020032000001200087
:100420002002880014000700ff0107000000e00020
:1004300003003a00605a2200010020000200370049
:100440000000200001002000810f70000100320038
:1004500014000700000020000000e000020032004d
:10046000000002000000000060190200000000000f
:100470000040da000000fe004440a90040242000b3
:100480000000e000030032000020200090018800fe
:100490004440a800000006008a1f78008b1f7800e7
:1004a00000000600a1028800800478000000eb0034
:1004b0001f003700e284440054a0b4009905ba003c
:1004c000e284440054a0b4009906ba00e2844400d7
:1004d00054a0b4000006eb00476fde00fd07b20039
:1004e000ae018800636ce10003003a00eaff0700f8
:1004f0000000eb000e003700606ce10008003a00dd
:10050000004deb000a05e800020039003420ec0041
:100510000af0a0008b05e900f9ff3e000400370057
:100520006168e100010032000086eb000b0007006b
:1005300019c7ba001905ba000e04e00003003a001a
:100540000a00e000dbff3a0000000600fe07b200f0
:10055000ae0288008a047800f5ff37000cd0a300b3
:10056000e20f4d001c00390089027800354dba00b9
:100570000a05e800020039003420ec000af0a0006f
:100580008b05e9000f003200254dba000a05e8008e
:10059000020039003420ec000af0a0008b05e900cd
:1005a000080032000c00e0000600320015cdba0051
:1005b0000a05e800020039003420ec000af0a0002f
:1005c0008b05e9008984e80054a0b4000b00e0002a
:1005d000e2ff3a00000006009902ba00055d7800cb
:1005e0008b05e900f7ff3200c82ade00055d7800c0
:1005f0008b05e900f3ff32000c00e000f1ff320050
:1006000019ddba00eeff37005216040000000000aa
:100610007016040000000000202304000000000009
:10062000d823040000000000902404000000000013
:100630006028040000000000f02404000000000016
:10064000ca0a0400000000006e0a04000000000056
:10065000f606040000000000801f78000000fa0089
:1006600030048000680060000000e00001003200fb
:100670008660a9000080fa004f0078000040060064
:100680003600f800809fbe00829fbe00849fbe009f
:10069000869fbe000000fa008020a9000000eb0049
:1006a000cd1207000080fa004f03be004f02be00cb
:1006b0004f01be004f00be003600f90000400600aa
:1006c0003600f800809fbe00829fbe00849fbe005f
:1006d000869fbe000000fa00c41207008040a900f7
:1006e00010002000bc1207000080fa004f03be007b
:1006f0004f02be004f01be004f00be003600f900a1
:10070000004006003600f800809fbe00829fbe00b9
:10071000849fbe00869fbe000000fa008060a90092
:1007200020002000ac1207000080fa004f03be003a
:100730004f02be004f01be004f00be003600f90060
:10074000004006003600f800809fbe00829fbe0079
:10075000849fbe00869fbe000000fa008080a90032
:10076000300020009c1207000080fa004f03be00fa
:100770004f02be004f01be004f00be003600f90020
:10078000004006003600f800809fbe00829fbe0039
:10079000849fbe00869fbe000000fa00c90d0700be
:1007a0008bc0a9000080fa004f03be004f02be00bc
:1007b0004f01be004f00be003600f90000400600a9
:1007c0003600f800809fbe00829fbe00849fbe005e
:1007d000869fbe000000fa0050408000000001002b
:1007e0003140800020408000808f500002003a009d
:1007f0009580a900190037008580a90010003700f6
:1008000030408000904078008180fb0021288800e3
:100810000000e8003040880031408000700921006d
:10082000808f500002003a00e0082100304088002c
:100830003140800020408000808f50000600320050
:100840001128800000202000008060000000e000ef
:10085000ebff320001003700000000000080fa00ca
:100860004f03be004f02be004f01be004f00be004e
:100870003600f900004006003600f800809fbe00f8
:10088000829fbe00849fbe00869fbe000000fa00cb
:1008900060408000000001008560a9001e00370054
:1008a00001408000302880000040780080487800b7
:1008b00001408000f0092100808f500009003200c3
:1008c000004080000000e80011408000810f5000cf
:1008d00004003200004080000000e8000040880072
:1008e0000d00370001408000f0092100808f50008a
:1008f00007003a001140800070092100808f5000ed
:100900000300320070092100004088000200370017
:1009100010c0b30008e8b700102880006100600034
:100920000000e000deff3a000080fa004f03be0046
:100930004f02be004f01be004f00be003600f9005e
:1009400000400600801f78000000fa001028800098
:10095000620060000000e000010032000225a900f2
:100960008c20a9000080fa004f00780000400600ab
:100970003600f800809fbe00829fbe00849fbe00ac
:10098000869fbe000000fa00804080000000e80062
:100990008040880080408000e40f50000600360050
:1009a000704080000000e0000200320070408000d3
:1009b000000001001028ef00500a210010407800cc
:1009c0008040e800500a210001487800400a2100d8
:1009d00011c0b300014878008460a9000080fa00cb
:1009e0004f03be004f02be004f01be004f00be00cd
:1009f0003600f900004006003600f800809fbe0077
:100a0000829fbe00849fbe00869fbe000000fa0049
:100a1000a04080000000e800a0408800a0408000c6
:100a2000e10f500006003600904080000000e0001a
:100a30000200320090408000000001001428ef0006
:100a4000700a2100104078008040e800700a210000
:100a500001487800600a210011c0b3000148780005
:100a600084e0a9000080fa004f03be004f02be00e0
:100a70004f01be004f00be003600f90000400600e6
:100a80003600f800809fbe00829fbe00849fbe009b
:100a9000869fbe000000fa00c21107008680a900f0
:100aa0000080fa004f03be004f02be004f01be009f
:100ab0004f00be003600f900004006003600f80086
:100ac000809fbe00829fbe00849fbe00869fbe00a6
:100ad0000000fa00c04080000000e800c04088002c
:100ae000c1408000b0032000808f50000600360017
:100af000b04080000000e00002003200b040800002
:100b0000000001001828ef00900a21001040780032
:100b10008040e800900a210001487800800a210006
:100b200011c0b300014878008500a9000080fa00d8
:100b30004f03be004f02be004f01be004f00be007b
:100b40003600f900004006000040da000000fe0018
:100b5000ec8747008e1f78006c8757004400200008
:100b6000041f7800000f78006c87570002afbe00aa
:100b7000e1bf9f006c8057000d0407001e00be00ff
:100b80004f077800cf00b10000000600ec87470057
:100b90008e1f780011002000a1bf9f006c875700b6
:100ba000002f78006c805700030407001e007800b7
:100bb0004f077800cf00b100000006000800fa00df
:100bc0008e81e80080097800640047000108780001
:100bd000660047000208780066004700100f7800a2
:100be0000a003700640047001000780010407800c9
:100bf000e4004700910078000101e800e4004700ac
:100c0000820878001f0e07001e0fe9001e00780002
:100c10000000e000f3ff3a00660047001000780093
:100c20000080fa000000060000000500889fbe005a
:100c30008a9fbe00800478000200e0005a00320063
:100c400001407800814c780082814400f1f99f00d6
:100c5000e20f51005400360091449800a1449800de
:100c6000e1f99f00d1f99f00e60f51004e003600d8
:100c7000b1449800c1f99f00e80f51004a003600c6
:100c80000905ea00630565000a8444000a0551006d
:100c9000c1ff2f00010565000080fb008000eb0014
:100ca0001210200013102000bb030700008cbe00b0
:100cb0000a01440060b99f0071b99f00e80f550018
:100cc0003900360020049800310498004004980050
:100cd0005104980020b99f0031b99f0040b99f008e
:100ce00051b99f00f80f55002f003600600498009e
:100cf00071049800000c9800110c9800200c9800ca
:100d0000310c9800400c9800510c980020b19f00c5
:100d100031b19f0040b19f0051b19f0060b19f0071
:100d200071b19f0000b99f0011b99f006401640078
:100d30007801410002044400020555006011b8002a
:100d40000203be000002be000403be006022b80021
:100d500000007200818072000201730083817300c1
:100d60000f00370008027800009abe00029abe0009
:100d7000009abe000292be00000c9800110c980070
:100d8000220c9800330c9800400c9800510c9800ed
:100d9000620c9800730c98000a02b1000802b000bf
:100da000ff0f5500efff3e00090078004f05be0021
:100db0004f04be00000006006181800091007800b1
:100dc00026020700110020000000e00005003500a9
:100dd0006081800090007800a0002000a802070039
:100de000cf00de000100ea0000000600000006005f
:100df0002003210000000600fdff0700808188001d
:100e00007081880000000600114290000482fb00ff
:100e10009180fb00c808dd0004827000800078002b
:100e2000d181fb001081fb004811dd00030171003e
:100e3000030037004811dd001180fb000201700043
:100e4000010078003104e00004003200840f5100fa
:100e5000f8ff3a000000e90000000600000005006d
:100e6000114390008683fb00060020001181fb00e7
:100e70008001eb00c811dd000200200002037300b6
:100e800083837300214190004811dd008001eb0055
:100e900002037300838373008080e8001041900098
:100ea0008281fb00020020001082fb008002eb0028
:100eb000c822dd000400200004017100858171005a
:100ec0001182fb004822dd008002eb00040171006a
:100ed00085817100080037001182fb008002eb0061
:100ee00004027100858271004829dd00c821de00fe
:100ef000830171004821dd00010078003104e00029
:100f000005003200860f5100878f5900f2ff3a002a
:100f10000080e9000000060000000500889fbe0078
:100f2000314290000482fb008002eb000101780056
:100f30003283fb008003eb00c833dd000600200095
:100f400006037200878372001281fb008001eb00b0
:100f5000c011dd00020020000203730083837300d0
:100f6000214190004811dd008001eb000203730075
:100f700083837300e30040001182fb008002eb00da
:100f8000800178003384fb008004eb00c844dd005e
:100f90000800200008047200898472001381fb009d
:100fa0008001eb00c012dd00040020000401740089
:100fb00085817400204290004822dd008002eb0011
:100fc00006003700481add00c812de0085027200f4
:100fd0004812dd001181fb008001eb00020172006c
:100fe00083817200010078003104e00005003200c6
:100ff000860f5100878f5900f2ff3a0063005000be
:10100000010037000000eb004f04be0000000600a6
:101010008f22b000889fbe008a9fbe008c9fbe00ba
:101020008e1f78000004780081057800c0dc2f0056
:101030000f0040000f0009000018eb000002b10093
:101040000b017800880078008004eb001000370066
:101050000080fb00c401de0083814100c4dc2f005e
:101060000f024200830142006f0260001500200061
:10107000042add00930972008584440000004000ca
:10108000c7dc2f008f8343000080430009109800c5
:10109000324078000004e00005003a001a00200009
:1010a0000a0078000001eb008081eb001900370096
:1010b0003104e000e6ff3a00a20037000382450059
:1010c000e44278006bc2780084cf520005003a00f9
:1010d0008a0f50000c0032000000e8008200780007
:1010e0000b00370084cf5200020036000385500009
:1010f000060037008200e800820178001a00200014
:101100000a00780002003700000578001000200077
:101110000101780082004000898f5000e7ff39000c
:1011200011002000010078000002eb008086eb0037
:10113000160037008d82450065437800eb42790048
:10114000854f530005003a00810f50000c0032001b
:101150000000e800040178000b003700854f5300c1
:10116000020031008d005100060037000401e80044
:10117000840678001100200001007800020037008a
:101180008000780010002000020278000401400076
:10119000890f5100e7ff39000d01e8000300e80066
:1011a000800f510002003600010578000100370071
:1011b000830678000d02e8008a804500040178006b
:1011c0000b00780084bf9f00800107000fba9700d2
:1011d0000000e000080032000905e9000d05550097
:1011e0008d0f5500010031000d0578000a05e8005b
:1011f0008001eb00010037008a8154000807780065
:101200000006eb0008005700890f50001400310061
:1012100089027800f503b300050178008000eb0037
:101220000e007800e3b79f0084bf9f00f5b79f00d2
:1012300036010700efb197000fba9700ffb2970091
:101240000000e0000500320088005000898f500047
:101250003c0039000007780001003700050747000f
:101260008900440071f897000080fb006f01600066
:10127000160020000233dd004401de0002014100bf
:10128000c7dc2f008f834300e7027900050163006c
:101290000d0032000000400000804300001090006c
:1012a000008054000a0032000300e0001500320004
:1012b0000c00e000130032008a0f500011003100d2
:1012c0000a8054000f00370001047800ccff37007b
:1012d0000c007800840f56000300310004007800f1
:1012e000010037000000e800eb4078000104e00056
:1012f000060032006841780082cf5000f9ff3200ca
:101300000d00500000044400bdff37000d007800c0
:101310008000e8008c8f5000080036006b41780098
:10132000e84078000000e900814f5100f8ff3200ea
:101330000a04440003067800b2ff37000800780072
:10134000010037000000eb004f0778004f06be0099
:101350004f05be004f04be00ef1fb100af02b10049
:1013600000000600881f780001047800984078008b
:101370000104e000260032008100fb00f9010700b3
:101380000000e00022003200984090000104e000dc
:101390001f003200904090000104e0001b0032006a
:1013a000a84090000104e00003003a0088007800a3
:1013b00095fe070016003700a04090000104e000f1
:1013c00012003200b84090000104e00003003a002f
:1013d00088007800a2fe07000d003700b0409000a2
:1013e0000104e00009003200c84090000104e00060
:1013f00003003a0088007800c8fe070004003700a8
:101400008800780002ff0700010037000000eb00b1
:101410004f04780000000600889fbe000004be0054
:101420000800e00003003a00588580000800e00052
:10143000130032000800be006301070000044400ee
:101440001804e00004003a000000eb00508588001a
:10145000000478000a0037000800be0009010700f8
:1014600000004400508588001004e00002003200b3
:101470000058eb00010037000000eb0050858800a9
:10148000080078004f04be0000000600889fbe00e0
:101490008a1f7800800478004900900002047800d8
:1014a000800f540001003600000478000801780025
:1014b0006a8544001a007800d20007001a00440030
:1014c000000d7800e8844400990c14000048eb00fb
:1014d0004f0578004f04be000000060010007800a1
:1014e000b6fd3700900190000388a3000100320090
:1014f000e6ff37000348a30001003a00f7ff0700aa
:1015000000000600889fbe008a1f78000004780053
:10151000010578000000eb000800e0001a0032002e
:10152000180090000058a3000c003200ea044400a8
:1015300068009000990f100008003600b80990006c
:101540000001eb0082007800080078000300010031
:101550000080eb001900e0000b0032007400440032
:101560000008eb006c0044000008eb006a00440037
:101570000008eb000000eb000a00e000020032006f
:101580001800780081fd07004f0578004f04be0069
:1015900000000600889fbe008a1f78000004be007d
:1015a0000000eb000800e000290032001800900065
:1015b0000058a300120032006a0544006800900041
:1015c0009a0f100008003600b80990000001eb00e7
:1015d0008200780008007800030001000080eb0022
:1015e0001a00e0001a003200740044000008eb000a
:1015f0006c0044000008eb006a0044000008eb00a7
:10160000780a900008109000800f52000600310008
:101610000002520011002000cfa2de00612bb900b1
:10162000180078004afd0700000220000800400072
:101630000008eb007e0044000008eb000000eb0017
:101640000900e00002003200180078004ffd07009a
:101650004f0578004f04be0000000600889fbe00c2
:101660008a1f78008004780001057800090078005e
:10167000bd000700000478008a01780008017800a6
:1016800011002000090078000a000700800078009f
:101690000080eb00888f500001003a000000eb0052
:1016a0004f0578004f04be000000060010007800cf
:1016b00042fd3700889fbe008a9fbe0081047800eb
:1016c0000204780009c5b9000900e00001003a00f1
:1016d0000004eb000a017800800078000300780025
:1016e0007eff0700800078008a8f500003003200e0
:1016f000110009008980d8000004780008007800f3
:101700004f05be004f04be00000006008180fb00b4
:10171000010037000201e900800178000008a30001
:10172000060032000200e000230032003082fb009d
:10173000810f5200f7ff3a00030037000000eb0072
:101740000200e0001e0032001380fb00810f5000f9
:101750001c00320014102000048ab90084027800b2
:10176000010037000281e90003007800e10f510019
:101770000a00360033826a00f6ef2f0004034300ac
:101780000482ea00040263000608280006026200e0
:10179000f4ff3200010037000201e9008001780007
:1017a0000200e000050032003082fb00810f520091
:1017b000f9ff3a0003003700000005000000eb00cd
:1017c000000006000300780000000600010037005a
:1017d0000201e9000200e00005003200304278001a
:1017e000b1417800834f5200f9ff32000100370009
:1017f000000005000480fb008381fb000300500013
:10180000000006008001780002003700b15978001e
:101810000201e9000200e000fcff3a0000000600bf
:101820000200fa000001780001007800e2ff9f004a
:10183000900090000188a30006003200ea014000f9
:1018400093007800825878000280fb0081097800bc
:1018500009003700120020008f80e9001fff0700f9
:10186000800078000080eb000100e0000200320000
:10187000eff897000180fb000080fa0000000600ee
:10188000e7ff37002000fa00889fbe000004be007a
:10189000994078000104e0000300320019409000f4
:1018a0000004e00004003a008100fb00080078001a
:1018b0007d00070028003700020220008000eb00b6
:1018c000c0fd2f000f004000d8fc07001940780031
:1018d0000004e00002003a00880078000e003700a3
:1018e0008904e8000080fb00c400de006f00600097
:1018f000120020000010dd0081804000c2fd2f009a
:101900000f01410081004100110070008008780043
:10191000eeff3a00f0ff3700010078001141780037
:101920000204e0000c0032008100e8000281fb00ac
:10193000ef016100140020000322dd004411de00ed
:1019400002014100c5fd2f008f824200e5017900b0
:1019500003016200f0ff3200080050004f04be0097
:101960000080fa00000006008000780004003700c4
:101970003104e00002003a000000510000000600bf
:10198000010178000108a300f9ff3a008101780005
:1019900031017800f4ef2f00020242000281ea00d8
:1019a000020162000408280004016100f7ff320010
:1019b00083007800010178003104e000fdff3a0067
:1019c00000005100000006002000fa000f0178001e
:1019d0000202b1000f0009000019eb0091417800ec
:1019e0000001eb000304e0002c00320011419000e4
:1019f0000204e00005003a00800078000101780050
:101a0000b1cf1100fdff32002300370011417800f3
:101a10000204e00002003a00800078000e00370067
:101a20008100e8000281fb00c411de006f0161004b
:101a3000140020000221dd008381410004fe2f00fc
:101a40000f024200830142001301710082097800f5
:101a5000eeff3a00f0ff3700010178009141780075
:101a60000304e0000c0032008100e8008381fb00e9
:101a70006f82610015002000842add00c419de0099
:101a80008381410006fe2f000f0343006682790028
:101a900084816200f0ff3a000001510002007800ea
:101aa0000080fa0000000600881f7800000478001b
:101ab0008180fb000a003a0008007800aaff0700b6
:101ac00000004400220037001804e000200032002b
:101ad0000804e8001081fb00810f51001c00320057
:101ae000080078000808a300f7ff3a00141020004f
:101af000048ab9000801780038007800f5ef2f005b
:101b0000808242008081ea0083826200030828000c
:101b10008382620007003a0000006a00f5ef2f00a0
:101b2000808242000080ea00008062008301600041
:101b3000f0ff3200020078001204e00004003200de
:101b40000201e8009081fb00818f5100f9ff3a000b
:101b50004f04780000000600618180009100780049
:101b600047ff3700881f780001047800880078005c
:101b7000cdff0700904f1400010032000000eb0081
:101b80004f04780000000600000006009afc0700e1
:101b9000fdff0700fcff3700020ab900001bb90077
:101ba0000200b800810042008100430000000600ee
:101bb00000c0da000000060000c0da0000000600e5
:020000040000fa
:101bc000536500006e640000696e0000672000002d
:101bd000746900006d6500002072000065710000ee
:101be0007565000073740000207400006f20000011
:101bf0007365000072760000657200002e2e0000f2
:101c00000d0000007b22000072650000717500006d
:101c100065730000742200003a220000676500002e
:101c20007444000061740000652200007d0d000016
:101c30000a0000003a000000415400002b4300005d
:101c40004950000053540000415400005553000017
:101c50000d0a0000007b0000227200006571000088
:101c60007565000073740000223a000022610000d4
:101c70006c610000726d0000222c0000226f0000d9
:101c8000776e000065720000223a000022340000e6
:101c900033320000312200007d0d00000a000000f8
:101ca000536500006e640000696e0000672000004c
:101cb00041540000206300006f6e00006e6500005c
:101cc00063740000207400006f200000736f000038
:101cd000636b000065740000206300006f6d0000fe
:101ce0006d6100006e6400002e2e00000d000000eb
:101cf000536500006e640000696e000067200000fc
:101d000074720000616e000073660000657200006e
:101d1000206d00006f64000065200000636f00000c
:101d20006d6d0000616e000064200000746f0000a3
:101d3000207300006f6300006b650000742e0000cc
:101d40002e0d000000410000542b0000434900000c
:101d50005053000054410000525400003d22000046
:101d600054430000502200002c22000036350000b1
:101d70002e310000303900002e31000034330000d5
:101d80002e370000342200002c39000030390000ca
:101d9000300d00000a000000415400002b430000f9
:101da000495000004d4f0000444500003d31000007
:101db0000d0a000000410000542b000043490000c0
:101dc00050530000454e0000440d00000a00000082
:101dd0000000000000000000000000000000000003
:101de00000000000000000000000000000000000f3
:101df00000000000000000000000000000000000e3
:101e000000000000000000000000000000000000d2
:101e100000000000000000000000000000000000c2
:101e200000000000000000000000000000000000b2
:101e300000000000000000000000000000000000a2
:101e40000000000000000000000000000000000092
:101e50000000000000000000000000000000000082
:101e60000000000000000000000000000000000072
:101e70000000000000000000000000000000000062
:101e80000000000000000000000000000000000052
:101e90000000000000000000000000000000000042
:101ea0000000000000000000000000000000000032
:101eb0000000000000000000000000000000000022
:101ec0000000000000000000000000000000000012
:101ed000536500006e640000696e0000672000001a
:101ee00041540000206300006f6e00006e6500002a
:101ef00063740000207400006f2000004150000057
:101f000049200000636f00006d6d0000616e0000ed
:101f1000642e00002e0d0000007b000022720000e5
:101f2000657100007565000073740000223a0000be
:101f3000227200006567000069730000746500008c
:101f4000722200002c2200007479000070650000ed
:101f5000223a0000226e00006f640000652200003b
:101f60002c220000646500007669000063650000b3
:101f700049640000223a000022310000222c0000b7
:101f8000226f0000776e000065720000223a0000a8
:101f90002234000033320000312200002c220000e5
:101fa0006e690000634e0000616d00006522000054
:101fb0003a22000073740000756500006e22000074
:101fc0002c22000073740000617200007454000041
:101fd000696d0000652200003a22000032300000e6
:101fe00030300000222c0000226500006e640000ea
:101ff000546900006d650000223a000022300000a4
:1020000037300000302200007d0d00000a00000083
:10201000446500007669000063650000206e0000e2
:102020006f640000652000007265000067690000b1
:102030007374000065720000656400003a200000bf
:082040004f4b000000000000fe
:020000040000fa
:102048008602fa0070004700022020008000eb00a2
:10205800f4fa0700002120000e00400021e02800cb
:1020680017000900315878008001b100250c0700dd
:1020780000000000510307000004a2000004e00073
:10208800fcff3a0000de280049fb07000000eb00d7
:10209800000f780006003700002120000e004000e5
:1020a8001e00400010407800240307001e0fe800bf
:1020b8001e007800f70f5000f7ff3600401f200081
:1020c800a90b07008000eb000e80e80001087800eb
:1020d800100037000e80e80090007800a0822000f1
:1020e8000080400090407800802220000e004000d0
:1020f8000e81e800120178000200400001487800d3
:102108000e80e800100078008000e8000e80e800eb
:10211800010878000e80e800900078007003200025
:10212800808f5000ebff36008000eb006400470012
:10213800010878001200370064004700100078009a
:102148000000e800812220008e80400000804000ce
:1021580090407800602620000e004000640147008f
:10216800120178000200400001487800640047002e
:10217800100078008000e80064004700010878003b
:102188006400470010007800e10f5000eaff3400b7
:102198008000eb0066004700010878001200370055
:1021a800660047001000780064004000812220008b
:1021b8008e8040000080400090407800402620003b
:1021c8000e0040006601470012017800020040003e
:1021d8000148780066004700100078008000e80099
:1021e8006600470001087800660047001000780084
:1021f800e10f5000eaff34008000eb006800470060
:1022080001087800120037006800470010007800c5
:1022180067004000812220008e804000008040003e
:1022280090407800002620000e004000680147001a
:102238001201780002004000014878006800470059
:10224800100078008000e800680047000108780066
:102258006800470010007800e30f5000eaff3400e0
:102268008000eb006a004700010878001200370080
:102278006a004700100078006c00400081222000ae
:102288008e8040000080400090407800802620002a
:102298000e0040006a014700120178000200400069
:1022a800014878006a004700100078008000e800c4
:1022b8006a004700010878006a00470010007800ab
:1022c800e10f5000eaff34008000eb006c0047008b
:1022d80001087800120037006c00470010007800f1
:1022e8006f004000812220008e8040000080400066
:1022f80090407800a02620000e0040006c014700a6
:102308001201780002004000014878006c00470084
:10231800100078008000e8006c0047000108780091
:102328006c00470010007800e10f5000eaff34000d
:102338008000eb006e0047000108780012003700ab
:102348006e004700100078007200400081222000d3
:102358008e8040000080400090407800c026200019
:102368000e0040006e014700120178000200400094
:10237800014878006e004700100078008000e800ef
:102388006e004700010878006e00470010007800d2
:10239800e10f5000eaff3400002620000e00400044
:1023a8000000e800104078008000fb004006200094
:1023b8000088b90000017800002620000e004000c7
:1023c800104078000000fb0001fd2f0080804000d5
:1023d800803e20000088b90000007800800041009d
:1023e80000d42e0000814000002620000e0040008e
:1023f8000080e800104078000000fb006a00b90087
:1024080000007800001eb100800041000026200076
:102418000e00400063004000104078000000fb0000
:102428000003b1008080400040892f008080400078
:10243800e02620000e0040006a00400001087800f5
:10244800402620000e004000104078000000fb00ed
:102458006a00b9000000780001e22f008080400087
:10246800402620000e0040000000e80010407800e0
:102478000000fb000080400001fd2f00808040002c
:10248800e02620000e0040006800400001087800a7
:10249800602620000e004000104078000000fb007d
:1024a8006a00b9000000780001e22f008080400037
:1024b800602620000e0040000000e8001040780070
:1024c8000000fb000080400001fd2f0080804000dc
:1024d800e02620000e004000660040000108780059
:1024e800802620000e004000104078000000fb000d
:1024f8006a00b9000000780001e22f0080804000e7
:10250800802620000e0040000000e80010407800ff
:102518000000fb000080400001fd2f00808040008b
:10252800e02620000e00400064004000010878000a
:10253800a02620000e004000104078000000fb009c
:102548006a00b9000000780001e22f008080400096
:10255800a02620000e0040000000e800104078008f
:102568000000fb000080400001fd2f00808040003b
:10257800e02620000e0040000080e80001087800f6
:10258800c02620000e004000104078000000fb002c
:102598006a00b9000000780001e22f008080400046
:1025a800c02620000e0040000000e800104078001f
:1025b8000000fb000080400001fd2f0080804000eb
:1025c800e02620000e00400001087800e0262000e8
:1025d8000e004000110020006c0040000108780047
:1025e800e02620000e004000110020006e00400090
:1025f80001087800e02620000e004000430507008f
:10260800c00a07000080fa00000006001601fa0060
:10261800bc0a0700e6004700c2e128000e000900d6
:10262800b2587800e50107000004e0000b00320012
:102638000000eb00000f7800050037006600470037
:102648001e00400010407800bc0107001e0fe80083
:102658001e007800ee0f5000f8ff3600200320001f
:10266800410a07008000eb000e80e80001087800ae
:102678000f0037000e80e80090007800a08220004c
:102688000080400090407800750047000e81e80007
:102698001201780002004000014878000e80e8002e
:1026a800100078008000e8000e80e800010878003b
:1026b8000e80e80090007800f00f2000808f500016
:1026c800ecff360075004700a1e1280050fb070029
:1026d800800078006400470001087800a1e1280024
:1026e8000000eb004afb0700800078006400470008
:1026f80001087800210037006400470010007800c6
:102708009040780040c3b30080cf500012003200e0
:1027180064004700100078009040780030c3b30090
:1027280080cf50000c003200640047001000780091
:102738009040780020c3b30080cf500006003200dc
:1027480064004700100078009040780010c3b30080
:1027580080cf500003003a006a0a070010c0b30097
:102768000c003700a1e128000000eb0028fb07005f
:102778008000780064004700010878006400470082
:10278800100078000000e000dbff3a005d0a070057
:102798000040eb000080fa00000006000000fa008c
:1027a8008ea1a90090012000ef0907008ea1a800c2
:1027b800007d2000ec0907000080fa0000000600f8
:1027c8000000fa008aa1a9008ea1a8000080fa00e2
:1027d800000006002a02fa00e4004700b2e22800de
:1027e80024000900b25878000000eb00000f7800c0
:1027f80005003700640047001e00400010407800c4
:102808004e0107001e0fe800400220009e007800dd
:10281800808f5000f7ff36008000eb000e80e80044
:102828000108780010c0b3000080fa00000006001c
:10283800d200fa00ea00470032ea2800280009001e
:10284800b25878003103200081004700c2ec28000c
:102858000e000900b25878002104200081004700ca
:10286800b2ed28000c000900b25878001240200090
:102878008000eb00a0822000eaf80700210a070088
:1028880000e528004af907000000eb00000f780077
:10289800050037006a0047001e004000104078001d
:1028a800260107001e0fe800800220009e00780025
:1028b800808f5000f7ff360040062000aa09070065
:1028c80081ee2800f00420000e0040001148780036
:1028d80091ee2800000520000e0040001148780005
:1028e8008e0078001105b0007d0009008058eb00cb
:1028f8008000eb000e80e800010878001000370027
:10290800a08220008e80e80091007800010040003d
:1029180090407800f00420000e0040000e81e8008e
:102928001201780002004000014878000e80e8009b
:10293800100078008000e8000e80e80001087800a8
:102948000e80e80090007800f0072000808f50008b
:10295800ebff3400f00c20000e004000f1c4b3007f
:10296800014878000000e800b1c4b30001487800cd
:102978000000e8008040eb00014878000000e80013
:10298800f10c20008e804000f00420000e00400072
:1029980072fa070080007800680047000108780094
:1029a80068004700100078000000e00002003a00cc
:1029b8000040eb002f003700d209070080e728000d
:1029c800fbf807008000eb0064004700010878006e
:1029d8000c003700300320000e004000e4004700e0
:1029e800910078000100400010407800d3000700f3
:1029f80064004700100078008000e8006400470089
:102a0800010878006400470010007800ee0f5000bd
:102a1800f0ff360040062000530907008000eb0055
:102a280066004700010878000c00370020042000e9
:102a38000e004000e60047009100780001004000c9
:102a480010407800bd0007006600470010007800bd
:102a58008000e8006600470001087800660047002b
:102a680010007800ec0f5000f0ff3600a5090700b1
:102a780010c0b3000080fa00000006009c01fa00b4
:102a8800124020008000eb00a082200065f80700bb
:102a9800e6004700d2f828007a000900b25878000a
:102aa8009809070080f62800c1f807000000000018
:102ab800c20007000004a2000004e000fcff3a0086
:102ac8000000eb00000f78000500370066004700a3
:102ad8001e00400010407800980007001e0fe80014
:102ae800a00720009e007800808f5000f7ff360076
:102af800401f20001c09070081ee28001008200054
:102b08000e0040001148780091ee280020082000af
:102b18000e004000114878008e0078003108b0009f
:102b2800fd0009008058eb008000eb000e80e800f3
:102b38000108780010003700a08220008e80e8008d
:102b480091007800010040009040780010082000b3
:102b58000e0040000e81e8001201780002004000db
:102b6800014878000e80e800100078008000e80036
:102b78000e80e800010878000e80e80090007800d8
:102b8800f00f2000808f5000ebff36001218200055
:102b980002014700810029001a0009003159780014
:102ba800111820008e804000100820000e00400000
:102bb800eaf90700800078006400470001087800ff
:102bc80064004700100078000000e00003003a00ad
:102bd8004c0907000040eb000200370049090700d4
:102be80010c0b3000080fa00000006000000fa00e0
:102bf8009580a9009560a900800020000028880021
:102c08000225ef0020022000402888000a25ef0056
:102c18000c25ef000e25ef001025ef001225ef0020
:102c28001425ef00e008210030408800e00821006a
:102c38002040880070092100104088007009210098
:102c4800004088000868ef002065210007000700a1
:102c580000672100140007009560a80001e5a8009e
:102c68000345a8000080fa00000006000200fa00f0
:102c7800000f78001e0078000000e00003003a0012
:102c88002065210050408800020037009e0078002f
:102c9800514088000080fa00000006000000fa0099
:102ca8000080fa00000006000200fa00000f780019
:102cb8001e0078000000e00003003a0000672100d1
:102cc80060408800020037009e007800614088005c
:102cd8000080fa00000006000000fa000080fa00f8
:102ce800000006000200fa000040eb00004f7800e8
:102cf800000000001140800000408000808f5000dc
:102d0800fcff320010408000104f78001040800017
:102d18000000e8001040880011408000000a2100ef
:102d2800808f500002003a0070092100104088008e
:102d38001e4078000080fa00000006000200fa0039
:102d4800004f7800000000001c0007000004a200eb
:102d58000004e000fcff3a00204080001e48780094
:102d6800204080000000e8002040880021408000ca
:102d780070092100808f500002003a00e00821000d
:102d8800204088009580a8000080fa000000060016
:102d98000000fa00114080000040800000806800b8
:102da80000f0a7000000ea000000ea004f00de0083
:102db800004078000080fa00000006000400fa00d5
:102dc8000e80e80031408000010878002140800032
:102dd8000e80e80010007800808f50000700310056
:102de8000e80e800900078002040800000805000ad
:102df8000000e900000f7800060037000e80e800a8
:102e0800900078002040800000805000680040005a
:102e1800000f78001e00780000f0a7000000ea000c
:102e28000000ea004f00de00004078000080fa0051
:102e3800000006000000fa002140800030408000b9
:102e4800808f500009003a001128800000102000ef
:102e58000080600000f0a7000000ea000000ea001f
:102e68004f00de0000407800010037000040eb0012
:102e78000080fa00000006000400fa000e80e80056
:102e88000140800001087800114080000e80e800b1
:102e980010007800810f5000070031000e80e80014
:102ea80090007800104080000080500069004000c9
:102eb800000f7800040037000e80e80090007800ca
:102ec80010408000008f5000f00f20009e00780016
:102ed800808f50000200360000c0eb00020037006f
:102ee8001e007800004078000080fa00000006000c
:102ef8000400fa000e80e8003140800001087800e4
:102f0800214080000e80e80010007800808f50007b
:102f1800070031000e80e800900078002040800013
:102f2800008050000000e900000f7800060037001c
:102f38000e80e8009000780020408000008050005b
:102f480068004000000f7800f00f20009e00780015
:102f5800808f50000200360000c0eb0002003700ee
:102f68001e007800004078000080fa00000006008b
:102f78000800fa006401470000097800660047006d
:102f880001087800bcff07000080fb00000f7800f4
:102f980066004700100078009e0f500002003100c4
:102fa80066004700100f78008000eb000e80e800f4
:102fb800010878000e0037004aff0700e4004700c8
:102fc800910078008048780064004700100078007d
:102fd8008000e80064004700010878000e80e800df
:102fe800100078008000e8000e80e80001087800f2
:102ff8000e80e800100078009e0f5000eeff3900a8
:103008001e0078000080fa00000006000800fa00a0
:10301800640147000009780066004700010878004d
:10302800b3ff07000080fb00000f78006600470030
:10303800100078009e0f5000020031006600470023
:10304800100f78008000eb000e80e800010878007f
:103058000e00370064004700100078001040780028
:10306800e4004700910078000101e800e40047000f
:103078008208780031ff07000e80e8001000780011
:103088008000e8000e80e800010878000e80e80063
:10309800100078009e0f5000eeff39001e007800e7
:1030a8000080fa00000006000400fa000000eb00af
:1030b800000f780070ff07008e80e80080487800d5
:1030c8008bff0700e3004700804878000e80e80087
:1030d800104078000080fb000000e0000300320090
:1030e800e90f500003003200040037001e20a00042
:1030f800040037001e00a000020037001e10a000c8
:103108000000000063004700104078000080fb00ca
:103118000000e00003003200e90f50000300320015
:10312800040037001e30a000020037001e40a00037
:10313800000000001e0078000080fa000000060071
:103148000400fa008e80e8008008780011408000b2
:103158000e80e80010007800008f40000200370061
:103168009e007800698f5000000a21009e007800b8
:10317800808f5000faff3e001e0078001040780053
:103188000080fa00000006000000fa003aff07007d
:103198000080fb000000e9004f00de0000407800de
:1031a8000080fa00000006000000fa0050ff070047
:1031b8000080fb000000e9004f00de0000407800be
:1031c8000080fa00000006000000fa0010288000c5
:1031d8000080fa00000006000000fa0044ff070023
:1031e8000004e000100032003140800020408000e0
:1031f800808f500006003600304080008000780044
:1032080020408000008050000000e90007003700df
:10321800304080008000780020408000008050000e
:1032280068004000010037000000eb000080fa0051
:10323800000006000000fa000fff07000004e0008d
:10324800100032001140800000408000808f500044
:1032580006003600104080008000780000408000a2
:10326800008050000000e90007003700104080008f
:103278008000780000408000008050006800400016
:10328800010037000000eb000080fa000000060093
:103298000000fa0001e5a8000345a8000080fa0034
:1032a800000006000000fa0001e5a9000345a90096
:1032b8000080fa00000006000200fa00aa070700d2
:1032c80050052000a10a2000b703070012002000c3
:1032d8000070250011002000fe030700b703070057
:1032e800017d2000004b2000c90607002d000700c3
:1032f8000300370000000000010037000000000054
:1033080084030700000f78001e007800cf80de00dd
:10331800a200200003002000820f5000838f580075
:10332800f4ff3e00006001000b0037000c0037007e
:103338000800370016003700130037000a0037006e
:103348000b00370014003700ecff37000c00370083
:10335800090037007c0007008700070010003700cd
:103368008d0007000e0037000e0007000c00370024
:103378000c0007000a003700690007000800370042
:10338800080007000600370088000700040037001f
:103398008f81a800ffff37008e00070000000000a3
:1033a800d7ff37000c00fa005a030700e60f500059
:1033b8002600320057030700e50f500018003200be
:1033c80048000700c00207005a030700fcfc07007a
:1033d800720607000004a2000004e00005003200a5
:1033e80080002000000f78001e007800c10207004e
:1033f8003a00370085fc07000004a2000004e00042
:1034080007003200410020000e80e8000108780023
:103418000e80e80010007800b60207002f00370081
:1034280003fd07000004a2000004e00007003200ca
:10343800a1002000640047000108780064004700ec
:1034480010007800ab020700240037008bfd07004e
:103458000004a2000004e00007003200b1002000d0
:1034680066004700010878006600470010007800f1
:10347800a002070019003700f1fa0700e30207006d
:103488000004e000070032008000eb0068004700fd
:1034980001087800680047001000780095020700ce
:1034a8000b003700d90207000004a2000004e00066
:1034b80007003200110020006a0047000108780068
:1034c8006a004700100078008a0207001d050700ff
:1034d8005da2a9000fe1a900000000000080fa0029
:1034e800000006000400fa009680a9000086220069
:1034f800000f7800014f22000e80e80001087800d4
:103508001e007800e8fd07000e80e8001000780033
:103518004c0407005b0407000080fa000000060066
:103528000000fa004f0407000100370031000700cf
:10353800f8020700ea0f5000fcff320051040700b0
:103548000080fa00000006000200fa00f5020700f9
:10355800a0fc070000712200830607000103070092
:103568000000eb00000f78001e00780061020700e1
:103578000080fa00000006000000fa00f1020700cf
:103588009680a8001b0007001e0007009680a9006f
:103598000080fa00000006000000fa00150007008d
:1035a800180007000080fa00000006000000fa007a
:1035b8002c040700010037000e000700d5020700a1
:1035c800e40f5000fcff32002e0407000080fa00d0
:1035d800000006000000fa0001003700050007009f
:1035e800cc020700e70f5000fcff32000080fa0011
:1035f800000006000000fa000140fe000080fa000a
:10360800000006002801fa00803e20005606070048
:103618000000eb00000f780007003700a0822000b0
:103628001e004000904078006c0047001e004000db
:10363800014878001e0fe800f00f20009e00780077
:10364800808f5000f5ff3600c01020000e004000ab
:1036580032572600430725000288be006400400058
:103668005226270093f626000288be006400400018
:1036780041062000010878000080e800c010200002
:103688000e00400080007800a082200033f7070079
:10369800800078000e80e800010878000e80e800bd
:1036a800100078000000e0008d003200601120005a
:1036b8000e00400032472700132627000288be006c
:1036c800640040004247250093d626000288be00c9
:1036d8006400400051062000010878000080e800de
:1036e80050e6260041462500021220000e01410046
:1036f8000089be0090d62600510620004212200004
:103708000e0141000089be00611120008e8040003a
:103718006c00470011f70700800078000e80e80071
:10372800010878000e80e800100078006d00400065
:10373800104078008000fb00400620000088b90097
:10374800000178000e80e800100078006c0040004e
:10375800104078000000fb0001fd2f008080400031
:10376800803e20000088b9000000780080004100f9
:1037780000d42e00008140000e80e8001000780080
:103788006e004000104078000000fb006a00b9009d
:1037980000007800001eb100800041000e80e800a3
:1037a800100078006f004000104078000000fb0017
:1037b8000003b100808040006400470001087800e1
:1037c800011220008e8040006c004700e3f60700dd
:1037d800800078000e80e800010878000e80e8007c
:1037e800100078006b004000104078008000fb005b
:1037f800400620000088b900000178000e80e8002b
:10380800100078006a004000104078000000fb00bb
:1038180001fd2f0080804000803e20000088b90014
:10382800000078008000410000d42e000081400094
:103838000e80e800100078006c004000104078000e
:103848000000fb006a00b90000007800001eb1000b
:10385800800041000e80e800100078006d004000f4
:10386800104078000000fb000003b1008080400099
:10387800660047000108780066004700900078005d
:10388800640047001000780061050700df010700a9
:103898000004e000070032008000eb0068004700e9
:1038a80001087800680047001000780091010700bf
:1038b80006003700110020006a0047000108780060
:1038c8006a004700100078008a0107006c00470072
:1038d800021020008000eb00d2f407000906070060
:1038e8000080fa00000006000000fa0050052000e1
:1038f800303b8800a00a2000303b880025a1a800a2
:1039080025e1a9002a0007000004a2000004e00045
:103918000c003200210980000030200001007000f6
:10392800200988003002200010098800304020005b
:103938001009880040112000100988005015220045
:103948001009880021e1a90001098000f0cf2f00ab
:10395800008060000090a00000098800304020002e
:10396800f008880040112000f00888005015220057
:10397800f008880000c02800000988002621ef0010
:1039880025e1a80025a1a9009bc0a8000080fa0095
:10399800000006000200fa00004f78001e4178007f
:1039a80041822000824878000080fa00000006006a
:1039b8000000fa0024c8bf000080fa0000000600da
:1039c8000400fa008e80e800800878002109800051
:1039d80000002100008060000000e00002003200ca
:1039e8000040eb004700370021098000003020002c
:1039f800010070002009880011098000010f78007b
:103a08001e007800004078001a0107008080fb0043
:103a18000e80e800100078006a0040000108780075
:103a280011098000010f78001e0078004800de00b0
:103a3800004078000f0107008080fb000e80e8003e
:103a48001000780068004000010878001e00780027
:103a580000407800070107008080fb000e80e80026
:103a68001000780066004000010878001109800005
:103a7800010f78001e0078004800de000040780042
:103a8800fc0007008080fb000e80e8001000780032
:103a98006c004000010878001e00780000407800a3
:103aa800f40007008080fb000e80e800100078001a
:103ab800640040000108780011098000010f7800b7
:103ac8001e0078004800de0000407800e90007008a
:103ad8008080fb000e80e800100078000080e8007d
:103ae800010878001e00780000407800e100070017
:103af8008080fb000e80e800100078000108780044
:103b080010c0b3000080fa00000006000200fa00ae
:103b1800881f7800000f780051052000313b88008d
:103b2800a10a2000313b880025a1a80025e1a900b1
:103b38008bc0a9009bc0a90021098000003020008b
:103b480001007000200988001e0078006a0040000b
:103b58001000780000407800ac0007000080fb00ef
:103b6800100988001e0078006800400010007800e6
:103b780000407800a50007000080fb004804dd0035
:103b88001e007800660040001000780000407800b1
:103b98009e0007000080fb000800700010098800e4
:103ba8001e0078006c00400010007800004078008b
:103bb800960007000080fb004804dd001e00780026
:103bc8006400400010007800004078008f00070073
:103bd8000080fb0008007000100988001e007800b3
:103be8000080e80010007800004078008700070097
:103bf8000080fb004804dd001e00780010007800fb
:103c080000407800810007000080fb000800700079
:103c18001009880025e1a80025a1a9009bc0a800db
:103c28004f0478000080fa00000006000400fa0043
:103c38008e80e800800878002109800000002100bb
:103c4800008060000000e000020032000040eb004d
:103c58003b0037002109800000302000010070007f
:103c68002009880011098000010f78009e00780063
:103c78000e80e800100078006a0040000108780013
:103c880011098000010f78001e0078004800de004e
:103c9800800078000e80e80010007800680040007e
:103ca800010878009e007800f00f200080806000f6
:103cb8000e80e800100078006600400001087800d7
:103cc80011098000010f78001e0078004800de000e
:103cd800800078000e80e800100078006c0040003a
:103ce800010878009e007800f00f200080806000b6
:103cf8000e80e80010007800640040000108780099
:103d080011098000010f78001e0078004800de00cd
:103d1800800078000e80e800100078000080e8003d
:103d2800010878009e007800f00f20008080600075
:103d38000e80e800100078000108780010c0b30079
:103d48000080fa00000006000200fa00000f780068
:103d580051052000313b8800a10a2000313b880032
:103d680025a1a80025e1a9008bc0a9009bc0a90036
:103d7800210980000030200001007000200988001f
:103d88001e0078006a0040001000780010098800c2
:103d98001e00780068004000100078004800dd0030
:103da8009e007800e6804000910078000080700056
:103db800100988001e0078006c0040001000780090
:103dc8004800dd009e007800e48040009100780003
:103dd80000807000100988001e0078000080e8004c
:103de800100078004800dd009e00780091007800ff
:103df800008070001009880025e1a80025a1a9000d
:103e08009bc0a8000080fa00000006000400fa0029
:103e18008e80e800804878000e80e8001040780026
:103e28008080fb00d0cc2c000008b8004308de00de
:103e3800004078004400dd00004f78000e80e80064
:103e4800104078000081fb00d0cc2c000010b80096
:103e58004308de006a00b900000078000000510045
:103e6800004078001e4f70001e4078000080fa0065
:103e7800000006000400fa008e80e8008048780000
:103e88000e80e800104078000080fb004400de004f
:103e9800004078006a00b90000007800804078008f
:103ea8000e80e800104078006f40600000cf4000ae
:103eb8001e4078000080fa00000006000000fa00aa
:103ec8000080fa00000006000000fa008ba1a9009b
:103ed8008b81a9008b61a9008b41a900a100070073
:103ee800a4000700a7000700aa0007000080fa0046
:103ef800000006000200fa00000f78009900070091
:103f08009c0007009f000700a20007001e00780021
:103f1800cf80de00a200200003002000820f5000a6
:103f2800838f580035003e00006001000d00370007
:103f38000e00370008003700300037000f00370048
:103f480013003700170037001e0037002000370025
:103f58002600370016003700200020004041880066
:103f6800280037002828ef002600370071000700d6
:103f7800100020004041880022003700750007002b
:103f88006800070040002000404188001d003700fd
:103f980050002000404188006e00070069000700bb
:103fa80018003700600020004041880015003700e5
:103fb800680007005f000700a0002000404188005b
:103fc8001000370070002000404188000d003700c5
:103fd80054000700570007005e000700590007005b
:103fe800800020004041880006003700510007008b
:103ff800900020004041880002003700b2ff07000f
:10400800000000000080fa00000006002000fa000e
:10401800680047006afe070071030700000f780078
:1040280075030700800078000e80e800010878001a
:104038006c00470090007800400620000088b90016
:1040480000007800ea0047009100780081004000f5
:1040580064004700010878008000eb006600470014
:10406800010878000e80e800100078009e007800b3
:10407800808f50001800340064004700100078005a
:104088009e0f50000600350064004700900078003d
:104098000e80e80010007800808f50000a003d0074
:1040a80064004700100078009e0f500008003c0094
:1040b80064004700900078000e80e8001000780047
:1040c800808f500002003c0010c0b3000f00370082
:1040d8000040eb000d003700640047001000780036
:1040e8009e0f5000080034006400470090007800dc
:1040f8000e80e80010007800808f500002003d001c
:1041080010c0b300010037000040eb000080fa0047
:10411800000006000000fa00404180000080fa001c
:10412800000006000000fa008f61a8000080fa0075
:10413800000006000000fa008f81a8000080fa0045
:10414800000006000000fa008fa1a8000080fa0015
:10415800000006000000fa008f41a8000080fa0065
:10416800000006000000fa008f61a9000080fa0034
:10417800000006000000fa008f81a9000080fa0004
:10418800000006000000fa008fa1a9000080fa00d4
:10419800000006000000fa008f41a9000080fa0024
:0441a800000006000d
:020000040000fa
:1041ac000000fe00020a21000019780001097800c5
:1041bc00000006000000fe000000eb008000eb0099
:1041cc00f8ff07006627ef00000006000000fe0065
:1041dc00801f7800811f7800010a21000600fc0076
:1041ec0031007800303b880011007800303b8800ab
:1041fc0061e7a8000000000000000000cf0078007c
:10420c004f00780000000600a2028000a102880086
:10421c009080ba001000ba00a202880000000600cc
:10422c00a2028000a10288001000ba00a20288003d
:10423c00000006000000fe0061e7af00feff370043
:10424c00f23f2000000161000c003a00220424001f
:10425c00023b8800a2028000a10288000008bb007b
:10426c00ee2002000000000061e7af00feff370007
:10427c00a20288001000200061a7af0000002000ff
:10428c000000060061e7af00feff37000000a7004a
:10429c000d003700a4028000a10288003100240028
:1042ac00013b88000208bb000388bb00ee20020023
:1042bc000000000061e7af00feff3700a402880099
:1042cc001000200061a7af000000200000000600d5
:1042dc0061e7af00feff37000000a7000e003700bb
:1042ec0033002400033b8800a3028000a102880055
:1042fc000208bb00f20f20000288bb00ee20020077
:10430c000000000061e7af00feff3700a302880049
:10431c001000200061a7af00000020000000060084
:10432c0061e7af00feff3700f307200080816100da
:10433c0010003a0013002400033b8800a302800005
:10434c00a1028800040420003208bb003298bb0094
:10435c001400b100fcff3a00ee2002000000000047
:10436c0061e7af00feff3700a302880010002000b9
:10437c0061a7af00000020000000060061e7af005d
:10438c00feff3700f30720008081610011003a0026
:10439c0013002400033b8800a3028000a1028800c4
:1043ac0004042000f10f20003208bb000198bb0070
:1043bc001400b100fcff3a00ee20020000000000e7
:1043cc0061e7af00feff3700a30288001000200059
:1043dc0061a7af000000200000000600f23f2000a3
:1043ec00000061000000060002c02f000000610008
:0c43fc00f2ff2f008100610000000600ad
:020000040000fa
:104408000000fa0080002000b02888001825ef007e
:1044180020022000f02888002025ef002225ef0048
:104428002425ef002625ef002825ef002a25ef0098
:1044380017e5a8001945a8000080fa00000006004a
:104448000000fa0000000000c02880006100600041
:104458000000e000fcff3200c0288000620060001d
:104468000000e000010032001825a900e0288000c3
:10447800004078000080fa00000006000200fa0000
:10448800004f780000000000c128800000202000b4
:10449800008060000000e000fbff3a001e80fb0087
:1044a800d02888000080fa00000006000000fa000a
:1044b800c028800000407800614060000080fb0058
:1044c80000f0a7000000ea000000ea004f00de004c
:1044d800004078000080fa00000006000000fa00a2
:1044e800c128800000202000008060000000e0005b
:1044f80007003a00c12880000040200000806000ca
:104508000000e00002003200100020000100370027
:104518000000eb00004078000080fa000000060070
:104528000000fa00c02880004800de0061406000fa
:104538000080fb0000f0a7000000ea000000ea008d
:104548004f00de00004078000080fa0000000600fe
:104558000000fa00c02880000080fa000000060071
:104568000000fa0017e5a8001945a8000080fa0025
:10457800000006000000fa0017e5a9001945a90087
:104588000080fa00000006000000fa004c22ef004c
:1045980030422f0070128800000328008012880023
:1045a800704080000000e00002003a000032220063
:1045b800240007008460a9009460a800400a210034
:1045c8008040eb00014878000080fa0000000600f7
:1045d8000200fa00000f78009e007800711288002f
:1045e800400a21008040eb00014878000080fa0072
:1045f800000006000000fa00701280000080fa0037
:10460800000006000200fa00000f78009e00780003
:1046180061128800400a21008040eb0001487800c0
:104628000080fa00000006000000fa006012800016
:104638000080fa00000006000000fa000080fa007e
:10464800000006000200fa00000f78009460a9003c
:104658009e007800714088009460a8000080fa00ed
:10466800000006000000fa00400a21008040eb002c
:10467800014878009460a80051e2a8000080fa0080
:10468800000006000000fa0051e2a9009460a900a9
:104698000080fa00000006000200fa00400a21002b
:1046a800104f78001e4078000004e000030032003c
:1046b800400a21008040eb00014878001e40780045
:1046c8000080fa00000006000000fa00500a2100ed
:1046d800104078000080fb000080fa00000006000f
:1046e8000000fa00500a21008040eb0001487800e1
:1046f8000080fa00000006000000fa005222ef00d5
:1047080030422f00c012880000032800e012880001
:10471800904080000000e00002003a00803d220046
:104728002400070084e0a90094e0a800600a2100a2
:104738008040eb00014878000080fa000000060085
:104748000200fa00000f78009e007800c11288006d
:10475800600a21008040eb00014878000080fa00e0
:10476800000006000000fa00c01280000080fa0075
:10477800000006000200fa00000f78009e00780092
:1047880091128800600a21008040eb0001487800ff
:104798000080fa00000006000000fa009012800075
:1047a8000080fa00000006000000fa000080fa000d
:1047b800000006000200fa00000f780094e0a9004b
:1047c8009e0078009140880094e0a8000080fa00dc
:1047d800000006000000fa00600a21008040eb009b
:1047e8000148780094e0a8005de2a8000080fa0083
:1047f800000006000000fa005de2a90094e0a900ac
:104808000080fa00000006000200fa00600a210099
:10481800104f78001e4078000004e00003003200ca
:10482800600a21008040eb00014878001e407800b3
:104838000080fa00000006000000fa00700a21005b
:10484800104078000080fb000080fa00000006009d
:104858000000fa00700a21008040eb00014878004f
:104868000080fa00000006000000fa005622ef005f
:1048780030422f00d012880000032800f012880070
:10488800b04080000000e00002003a000049220029
:10489800240007008500a9009500a800800a2100cf
:1048a8008040eb00014878000080fa000000060014
:1048b8000200fa00000f78009e007800d1128800ec
:1048c800800a21008040eb00014878000080fa004f
:1048d800000006000000fa00d01280000080fa00f4
:1048e800000006000200fa00000f78009e00780021
:1048f800b1128800800a21008040eb00014878004e
:104908000080fa00000006000000fa00b0128000e3
:104918000080fa00000006000000fa000080fa009b
:10492800000006000200fa00000f78009500a900b8
:104938009e007800b14088009500a8000080fa0029
:10494800000006000000fa00800a21008040eb0009
:10495800014878009500a8005fe2a8000080fa00ee
:10496800000006000000fa005fe2a9009500a90017
:104978000080fa00000006000200fa00800a210008
:10498800104f78001e4078000004e0000300320059
:10499800800a21008040eb00014878001e40780022
:1049a8000080fa00000006000000fa00900a2100ca
:1049b800104078000080fb000080fa00000006002c
:1049c8000000fa00900a21008040eb0001487800be
:1049d8000080fa00000006000400fa00cdfd070080
:1049e800ea0f50000d003a00d6fd07002003200012
:1049f8005d010700e3fd070068f707008cf7070073
:104a08000004e0001500320060002000000f78006c
:104a18001e00780037fd070010003700bdfd0700b5
:104a2800e40f50000d003a00c6fd070020032000e7
:104a38004d010700d3fd070058f70700f3f60700fc
:104a48000004e00005003200510020000e80e8005c
:104a5800010878005000200026fd07000080fa00b9
:104a6800000006000400fa00aafd07000000e000ac
:104a780003003200e70f5000160032002f00370005
:104a8800b0fd07004006200037010700bdfd070004
:104a9800d0408000ef0f50000a003a00dbf6070014
:104aa8000004a2000004e0000400320070002000ae
:104ab800000f78001e0078000efd07000080eb0054
:104ac800d0408800d04080000000e800d040880036
:104ad8001a00370097fd0700400620002201070052
:104ae800a4fd0700c9f607000004a2000004e000c6
:104af8000a003200e0408000e20f500003003a0054
:104b080026f707001c28ef000c003700e040800063
:104b18000000e800e0408800080037001c28ef008b
:104b28008000eb000e80e800010878000e80e800a5
:104b380010007800effc0700000000000080fa0079
:044b48000000060063
:020000040000fa
:104b4c00a01000000400000082000000ffffff0026
:104b5c00ff0000006e10000020000000800000002c
:104b6c00220800000200000082000000ffff00008d
:104b7c002408000002000000800000008e100000dd
:104b8c001200000080000000000800000e00000071
:104b9c0080000000a4100000020000008000000053
:104bac000e0800000400000080000000a6100000a9
:104bbc000200000080000000120800000400000049
:104bcc0080000000a810000002000000800000001f
:104bdc001608000004000000800000002a080000f5
:104bec0002080000800000002608000002000000ff
:104bfc00800000001a080000040000008000000083
:104c0c001e080000040000008000000028080000be
:104c1c0002000000800000002c1000004200000088
:104c2c00820000003010320010321000010003002e
:104c3c000000000000000000000000000000ca009e
:104c4c000a00000000000000006e0a00f6060000da
:104c5c000000000000000000000000000000000048
:104c6c000000000000000000000000000000000038
:104c7c00000000000000000000000000aa1000006e
:0c4c8c000200000080000000000000009a
:020000040000fa
:104c98000000fa008421ef0080942000700c880046
:104ca80070002000000c8800f0eb2f00500c8800ea
:104cb8005620ef005820ef005a20ef000000210096
:104cc800700388007020ef007220ef008621ef004b
:104cd8009021ef0070002000400c8800c0002700e1
:104ce800900c880001088000f00b20000081600013
:104cf800600420007105200003102000804978001e
:104d08008149780082497800f11e800000fc2f005c
:104d1800008060003000b300f01e8800611c800035
:104d2800f00f2c008080600000f02000010070006f
:104d3800601c8800811d800000fc2f00008060003e
:104d48009000b300801d8800e11e800000fc2f0049
:104d5800008060005000b300e01e8800911d8000b4
:104d680000fc2f00008060007000b300901d8800d8
:104d780000088000000178000260a00060042000a4
:104d880071052000031020008049780081497800cf
:104d9800824978000080fa00000006000000fa004e
:104da80000702500110020001efd0700e10f4000e3
:104db80002003a000040eb000100370010c0b300c9
:104dc8000080fa00000006000000fa0000702500cc
:104dd8001100200013fd07000080fa000000060003
:104de8000000fa0040702500110020000dfd0700aa
:104df8000080fa00000006000000fa00807025001c
:104e08001100200007fd07000080fa0000000600de
:104e18000a00fa00660147000009780068004700a8
:104e280001087800e8ff0700000f7800500520000f
:104e3800a10a2000dcfc07004070250011002000ba
:104e48006afd07000e81e8000089be000e80e800b8
:104e58001000be00f9fc07001e0178000070250054
:104e6800110020001bfd07006600470010007800b5
:104e780000017800407025001100200015fd070092
:104e88006800470010007800000178008070250055
:104e9800110020000ffd0700c8fc07000080fa0081
:104ea800000006000000fa0011068000f08f2f00b5
:104eb800008060000080a000100688006105800066
:104ec800f0ff28000080600000c0a0006005880096
:104ed80021068000f0f82f00008060000040a0004c
:104ee800200688005105800080ff2f0000806000a8
:104ef8003000b3005005880041058000f0ff28000d
:104f080080806000000023000100700040058800d8
:104f18007105800080ff2f00008060000000a00065
:104f2800700588004105800080ff2f000080600028
:104f38000010a0004005880031058000f0ff28001f
:104f48000080600000d0a0003005880021058000a6
:104f5800f0ff28000080600000d0a0002005880035
:104f68000080fa00000006000200fa00000f780036
:104f78000300370000e82300010020006c00070050
:104f88001e00780000f0a7000000ea000000ea0018
:104f98004f00de00004078001e0fe9000004e0002a
:104fa800f4ff3a000080fa00000006000200fa0050
:104fb800000f7800050037000020200001002000c5
:104fc8005b00070001fe2f001e8f40001e007800c6
:104fd800ff0f5000f8ff3e000300370000012000db
:104fe80001002000520007001e00780000f0a70012
:104ff8000000ea000000ea004f00de0000407800f0
:105008001e0fe9000004e000f4ff3a000080fa00f7
:10501800000006000000fa000000230010088800c5
:105028000621ef006821ef006a21ef006e21ef00f2
:105038007021ef007221ef007421ef007621ef005c
:105048007a21ef007c21ef007e21ef001200200082
:1050580080072000a1092000131020008049780053
:1050680081497800824978003200200060042000dd
:1050780071052000031020008049780081497800dc
:10508800824978000000000000088000610060008c
:105098000000e000fcff3a0000000000010880006a
:1050a80000022000008060000000e000fbff3200ea
:1050b8000080fa00000006000200fa000c00370029
:1050c80008f70700004f78001e80fb00a0f20700d9
:1050d800324180009e407800a082200002004000fb
:1050e80001487800304180000000e8003041880025
:1050f80027f707000004e000f1ff3a000080fa00fb
:10510800000006000000fa00228020008000eb006a
:10511800a0822000c3ee07002628ef00a08220000e
:105128008040eb00014878000080fa00000006008b
:020000040000fa
:10513800f03fb1000180b10006003500ee03090020
:1051480000000000403fb1000180b100fbff3d00be
:105158001000b000203fb0000200350000800900b8
:08516800000000000000060039
:020000040000fa
:105170000000fa00c8fe0700a8ff07004bff070069
:10518000a1fc07009bf60700b9fd07005cfd0700c6
:10519000d7f907000a000700fdfc07000080fa00ad
:1051a000000006000200fa0020002000000f780036
