:020000040000fa
:080000000002040000000000f2
:020000040000fa
:0400080012050000dd
:020000040000fa
:04000c005603000097
:020000040000fa
:040010009803000051
:020000040000fa
:04001400760300006f
:020000040000fa
:04001800b803000029
:020000040000fa
:04001c0012050000c9
:020000040000fa
:0400200012050000c5
:020000040000fa
:0400240012050000c1
:020000040000fa
:0400280012050000bd
:020000040000fa
:04002c0012050000b9
:020000040000fa
:0400300012050000b5
:020000040000fa
:04003400ce040000f6
:020000040000fa
:0400380012050000ad
:020000040000fa
:04003c0012050000a9
:020000040000fa
:0400400012050000a5
:020000040000fa
:0400440012050000a1
:020000040000fa
:04004800120500009d
:020000040000fa
:04004c001205000099
:020000040000fa
:040050001205000095
:020000040000fa
:040054005204000052
:020000040000fa
:04005800f6030000ab
:020000040000fa
:04005c001205000089
:020000040000fa
:040060001205000085
:020000040000fa
:040064001205000081
:020000040000fa
:04006800120500007d
:020000040000fa
:04006c001205000079
:020000040000fa
:040070001205000075
:020000040000fa
:04007400280300005d
:020000040000fa
:04007800120500006d
:020000040000fa
:04007c001205000069
:020000040000fa
:040080001205000065
:020000040000fa
:040084001205000061
:020000040000fa
:04008800120500005d
:020000040000fa
:04008c001205000059
:020000040000fa
:040090001205000055
:020000040000fa
:040094001205000051
:020000040000fa
:04009800120500004d
:020000040000fa
:04009c001205000049
:020000040000fa
:0400a0001205000045
:020000040000fa
:0400a4001205000041
:020000040000fa
:0400a800120500003d
:020000040000fa
:0400ac001205000039
:020000040000fa
:0400b0001205000035
:020000040000fa
:0400b4001205000031
:020000040000fa
:0400b800120500002d
:020000040000fa
:0400bc001205000029
:020000040000fa
:0400c0001205000025
:020000040000fa
:0400c4001205000021
:020000040000fa
:0400c800120500001d
:020000040000fa
:0400cc001205000019
:020000040000fa
:0400d0001205000015
:020000040000fa
:0400d4001205000011
:020000040000fa
:0400d800120500000d
:020000040000fa
:0400dc001205000009
:020000040000fa
:0400e0001205000005
:020000040000fa
:0400e4001205000001
:020000040000fa
:0400e80012050000fd
:020000040000fa
:0400ec0012050000f9
:020000040000fa
:0400f00012050000f5
:020000040000fa
:0400f40012050000f1
:020000040000fa
:0400f80012050000ed
:020000040000fa
:0400fc0012050000e9
:020000040000fa
:0401000012050000e4
:020000040000fa
:0401040012050000e0
:020000040000fa
:0401080012050000dc
:020000040000fa
:04010c0012050000d8
:020000040000fa
:0401100012050000d4
:020000040000fa
:0401140012050000d0
:020000040000fa
:0401180012050000cc
:020000040000fa
:04011c0012050000c8
:020000040000fa
:04012000d803000000
:020000040000fa
:0401240012050000c0
:020000040000fa
:0401280012050000bc
:020000040000fa
:04012c00b804000013
:020000040000fa
:0401300012050000b4
:020000040000fa
:0401340012050000b0
:020000040000fa
:0401380012050000ac
:020000040000fa
:04013c0012050000a8
:020000040000fa
:0401400012050000a4
:020000040000fa
:0401440012050000a0
:020000040000fa
:04014800120500009c
:020000040000fa
:04014c001205000098
:020000040000fa
:040150001205000094
:020000040000fa
:040154001205000090
:020000040000fa
:04015800120500008c
:020000040000fa
:04015c001205000088
:020000040000fa
:040160001205000084
:020000040000fa
:040164001205000080
:020000040000fa
:04016800120500007c
:020000040000fa
:04016c001205000078
:020000040000fa
:040170001205000074
:020000040000fa
:040174001205000070
:020000040000fa
:04017800120500006c
:020000040000fa
:04017c001205000068
:020000040000fa
:040180001205000064
:020000040000fa
:040184001205000060
:020000040000fa
:04018800120500005c
:020000040000fa
:04018c001205000058
:020000040000fa
:040190001205000054
:020000040000fa
:040194001205000050
:020000040000fa
:04019800120500004c
:020000040000fa
:04019c001205000048
:020000040000fa
:0401a0001205000044
:020000040000fa
:0401a4001205000040
:020000040000fa
:0401a800120500003c
:020000040000fa
:0401ac001205000038
:020000040000fa
:0401b0001205000034
:020000040000fa
:0401b4001205000030
:020000040000fa
:0401b800120500002c
:020000040000fa
:0401bc001205000028
:020000040000fa
:0401c0001205000024
:020000040000fa
:0401c4001205000020
:020000040000fa
:0401c800120500001c
:020000040000fa
:0401cc001205000018
:020000040000fa
:0401d0001205000014
:020000040000fa
:0401d4001205000010
:020000040000fa
:0401d800120500000c
:020000040000fa
:0401dc001205000008
:020000040000fa
:0401e0001205000004
:020000040000fa
:0401e4001205000000
:020000040000fa
:0401e80012050000fc
:020000040000fa
:0401ec0012050000f8
:020000040000fa
:0401f00012050000f4
:020000040000fa
:0401f40012050000f0
:020000040000fa
:0401f80012050000ec
:020000040000fa
:0401fc0012050000e8
:020000040000fa
:0402080012050000db
:020000040000fa
:04020c005603000095
:020000040000fa
:04021000980300004f
:020000040000fa
:04021400760300006d
:020000040000fa
:04021800b803000027
:020000040000fa
:04021c0012050000c7
:020000040000fa
:0402200012050000c3
:020000040000fa
:0402240012050000bf
:020000040000fa
:0402280012050000bb
:020000040000fa
:04022c0012050000b7
:020000040000fa
:0402300012050000b3
:020000040000fa
:04023400ce040000f4
:020000040000fa
:0402380012050000ab
:020000040000fa
:04023c0012050000a7
:020000040000fa
:0402400012050000a3
:020000040000fa
:04024400120500009f
:020000040000fa
:04024800120500009b
:020000040000fa
:04024c001205000097
:020000040000fa
:040250001205000093
:020000040000fa
:040254005204000050
:020000040000fa
:04025800f6030000a9
:020000040000fa
:04025c001205000087
:020000040000fa
:040260001205000083
:020000040000fa
:04026400120500007f
:020000040000fa
:04026800120500007b
:020000040000fa
:04026c001205000077
:020000040000fa
:040270001205000073
:020000040000fa
:04027400280300005b
:020000040000fa
:04027800120500006b
:020000040000fa
:04027c001205000067
:020000040000fa
:040280001205000063
:020000040000fa
:04028400120500005f
:020000040000fa
:04028800120500005b
:020000040000fa
:04028c001205000057
:020000040000fa
:040290001205000053
:020000040000fa
:04029400120500004f
:020000040000fa
:04029800120500004b
:020000040000fa
:04029c001205000047
:020000040000fa
:0402a0001205000043
:020000040000fa
:0402a400120500003f
:020000040000fa
:0402a800120500003b
:020000040000fa
:0402ac001205000037
:020000040000fa
:0402b0001205000033
:020000040000fa
:0402b400120500002f
:020000040000fa
:0402b800120500002b
:020000040000fa
:0402bc001205000027
:020000040000fa
:0402c0001205000023
:020000040000fa
:0402c400120500001f
:020000040000fa
:0402c800120500001b
:020000040000fa
:0402cc001205000017
:020000040000fa
:0402d0001205000013
:020000040000fa
:0402d400120500000f
:020000040000fa
:0402d800120500000b
:020000040000fa
:0402dc001205000007
:020000040000fa
:0402e0001205000003
:020000040000fa
:0402e40012050000ff
:020000040000fa
:0402e80012050000fb
:020000040000fa
:0402ec0012050000f7
:020000040000fa
:0402f00012050000f3
:020000040000fa
:0402f40012050000ef
:020000040000fa
:0402f80012050000eb
:020000040000fa
:0402fc0012050000e7
:020000040000fa
:0403000012050000e2
:020000040000fa
:0403040012050000de
:020000040000fa
:0403080012050000da
:020000040000fa
:04030c0012050000d6
:020000040000fa
:0403100012050000d2
:020000040000fa
:0403140012050000ce
:020000040000fa
:0403180012050000ca
:020000040000fa
:04031c0012050000c6
:020000040000fa
:04032000d8030000fe
:020000040000fa
:0403240012050000be
:020000040000fa
:0403280012050000ba
:020000040000fa
:04032c00b804000011
:020000040000fa
:0403300012050000b2
:020000040000fa
:0403340012050000ae
:020000040000fa
:0403380012050000aa
:020000040000fa
:04033c0012050000a6
:020000040000fa
:0403400012050000a2
:020000040000fa
:04034400120500009e
:020000040000fa
:04034800120500009a
:020000040000fa
:04034c001205000096
:020000040000fa
:040350001205000092
:020000040000fa
:04035400120500008e
:020000040000fa
:04035800120500008a
:020000040000fa
:04035c001205000086
:020000040000fa
:040360001205000082
:020000040000fa
:04036400120500007e
:020000040000fa
:04036800120500007a
:020000040000fa
:04036c001205000076
:020000040000fa
:040370001205000072
:020000040000fa
:04037400120500006e
:020000040000fa
:04037800120500006a
:020000040000fa
:04037c001205000066
:020000040000fa
:040380001205000062
:020000040000fa
:04038400120500005e
:020000040000fa
:04038800120500005a
:020000040000fa
:04038c001205000056
:020000040000fa
:040390001205000052
:020000040000fa
:04039400120500004e
:020000040000fa
:04039800120500004a
:020000040000fa
:04039c001205000046
:020000040000fa
:0403a0001205000042
:020000040000fa
:0403a400120500003e
:020000040000fa
:0403a800120500003a
:020000040000fa
:0403ac001205000036
:020000040000fa
:0403b0001205000032
:020000040000fa
:0403b400120500002e
:020000040000fa
:0403b800120500002a
:020000040000fa
:0403bc001205000026
:020000040000fa
:0403c0001205000022
:020000040000fa
:0403c400120500001e
:020000040000fa
:0403c800120500001a
:020000040000fa
:0403cc001205000016
:020000040000fa
:0403d0001205000012
:020000040000fa
:0403d400120500000e
:020000040000fa
:0403d800120500000a
:020000040000fa
:0403dc001205000006
:020000040000fa
:0403e0001205000002
:020000040000fa
:0403e40012050000fe
:020000040000fa
:0403e80012050000fa
:020000040000fa
:0403ec0012050000f6
:020000040000fa
:0403f00012050000f2
:020000040000fa
:0403f40012050000ee
:020000040000fa
:0403f80012050000ea
:020000040000fa
:0403fc0012050000e6
:020000040000fa
:10040000af0921000e7f22000e01880000000000cd
:10041000000020000000e000020032000001200087
:100420002002880014000700b60107000000e00069
:1004300003003a0060d621000100200002003700ce
:100440000000200001002000810f70000100320038
:1004500014000700000020000000e000020032004d
:100460000000020000000000121c0200000000005a
:100470000040da000000fe004440a900801f200078
:100480000000e000030032000020200090018800fe
:100490004440a800000006008a1f78008b1f7800e7
:1004a00000000600a1028800800478000000eb0034
:1004b0001f003700e284440054a0b4009905ba003c
:1004c000e284440054a0b4009906ba00e2844400d7
:1004d00054a0b4000006eb00476fde00fd07b20039
:1004e000ae018800636ce10003003a00eaff0700f8
:1004f0000000eb000e003700606ce10008003a00dd
:10050000004deb000a05e800020039003420ec0041
:100510000af0a0008b05e900f9ff3e000400370057
:100520006168e100010032000086eb000b0007006b
:1005300019c7ba001905ba000e04e00003003a001a
:100540000a00e000dbff3a0000000600fe07b200f0
:10055000ae0288008a047800f5ff37000cd0a300b3
:10056000e20f4d001c00390089027800354dba00b9
:100570000a05e800020039003420ec000af0a0006f
:100580008b05e9000f003200254dba000a05e8008e
:10059000020039003420ec000af0a0008b05e900cd
:1005a000080032000c00e0000600320015cdba0051
:1005b0000a05e800020039003420ec000af0a0002f
:1005c0008b05e9008984e80054a0b4000b00e0002a
:1005d000e2ff3a00000006009902ba00055d7800cb
:1005e0008b05e900f7ff3200c82ade00055d7800c0
:1005f0008b05e900f3ff32000c00e000f1ff320050
:1006000019ddba00eeff3700441d040000000000b1
:10061000c012040000000000de1204000000000010
:10062000b21b040000000000d81e040000000000ff
:10063000361f040000000000300704000000000026
:10064000d40604000000000064060400000000005e
:100650003600f800809fbe00829fbe00849fbe00cf
:10066000869fbe000000fa00300480006800600031
:100670000000e00006003200904080000000e00032
:100680000200320090408000000001008660a90056
:100690000080fa004f03be004f02be004f01be00b3
:1006a0004f00be003600f900004006003600f8009a
:1006b000809fbe00829fbe00849fbe00869fbe00ba
:1006c0000000fa008020a9000000eb00040e0700e3
:1006d0000080fa004f03be004f02be004f01be0073
:1006e0004f00be003600f900004006003600f8005a
:1006f000809fbe00829fbe00849fbe00869fbe007a
:100700000000fa00fb0d07008040a9001000200047
:10071000f30d07000080fa004f03be004f02be0039
:100720004f01be004f00be003600f9000040060039
:100730003600f800809fbe00829fbe00849fbe00ee
:10074000869fbe000000fa008060a9002000200003
:10075000e30d07000080fa004f03be004f02be0009
:100760004f01be004f00be003600f90000400600f9
:100770003600f800809fbe00829fbe00849fbe00ae
:10078000869fbe000000fa008080a9003000200093
:10079000d30d07000080fa004f03be004f02be00d9
:1007a0004f01be004f00be003600f90000400600b9
:1007b0003600f800809fbe00829fbe00849fbe006e
:1007c000869fbe000000fa005b0a07008bc0a900ec
:1007d0000080fa004f03be004f02be004f01be0072
:1007e0004f00be003600f900004006003600f80059
:1007f000809fbe00829fbe00849fbe00869fbe0079
:100800000000fa00504080000000010031408000ec
:1008100020408000808f500002003a009580a9009f
:10082000190037008580a900100037003040800093
:10083000904078008180fb00212888000000e800bb
:10084000304088003140800090082100808f5000a7
:1008500002003a000008210030408800314080004a
:1008600020408000808f5000060032001128800058
:1008700000202000008060000000e000ebff32005c
:1008800001003700000000000080fa004f03be00a6
:100890004f02be004f01be004f00be003600f900ff
:1008a000004006003600f800809fbe00829fbe0018
:1008b000849fbe00869fbe000000fa00604080005a
:1008c000000001008560a9001e0037000140800083
:1008d0003028800000407800804878000140800087
:1008e00010092100808f5000090032000040800074
:1008f0000000e80011408000810f50000400320029
:10090000004080000000e800004088000d00370033
:100910000140800010092100808f500007003a003c
:100920001140800090082100808f500003003200a9
:1009300090082100004088000200370010c0b3007a
:1009400008e8b70010288000610060000000e000a7
:10095000deff3a000080fa004f03be004f02be00e7
:100960004f01be004f00be003600f90000400600f7
:10097000801f78000000fa001028800062006000ec
:100980000000e000010032000225a9008c20a9002f
:100990000080fa004f007800004006003600f800a2
:1009a000809fbe00829fbe00849fbe00869fbe00c7
:1009b0000000fa00804080000000e80080408800cd
:1009c00080408000e30f5000060036007040800039
:1009d0000000e000020032007040800000000100d2
:1009e0001028ef0070092100104078008040e800d6
:1009f00070092100014878006009210011c0b3008e
:100a0000014878008460a9000080fa004f03be000e
:100a10004f02be004f01be004f00be003600f9007d
:100a2000004006000040da000000fe00ec874700ae
:100a30008e1f78006c87570044002000041f780048
:100a4000000f78006c87570002afbe00e1bf9f0027
:100a50006c8057004d0207001e00be004f07780053
:100a6000cf00b10000000600ec8747008e1f780021
:100a700011002000a1bf9f006c875700002f780055
:100a80006c805700430207001e0078004f07780073
:100a9000cf00b100000006000800fa008e81e800d7
:100aa000800978006400470001087800660047006c
:100ab0000208780066004700100f78000a0037002f
:100ac000640047001000780010407800e400470000
:100ad000910078000101e800e400470082087800f6
:100ae000b10a07001e0fe9001e0078000000e000b8
:100af000f3ff3a0066004700100078000080fa001b
:100b00000000060000000500889fbe008a9fbe000e
:100b1000800478000200e0005a00320001407800b2
:100b2000814c780082814400f1f99f00e20f51006e
:100b30005400360091449800a1449800e1f99f00c8
:100b4000d1f99f00e60f51004e003600b1449800e5
:100b5000c1f99f00e80f51004a0036000905ea007c
:100b6000630565000a8444000a055100c1ff2f0097
:100b7000010565000080fb008000eb0012102000e2
:100b800013102000fb010700008cbe000a01440086
:100b900060b99f0071b99f00e80f55003900360019
:100ba00020049800310498004004980051049800f3
:100bb00020b99f0031b99f0040b99f0051b99f00f3
:100bc000f80f55002f00360060049800710498005b
:100bd000000c9800110c9800200c9800310c980023
:100be000400c9800510c980020b19f0031b19f003b
:100bf00040b19f0051b19f0060b19f0071b19f0053
:100c000000b99f0011b99f006401640078014100a0
:100c100002044400020555006011b8000203be0042
:100c20000002be000403be006022b8000000720093
:100c30008180720002017300838173000f0037000e
:100c400008027800009abe00029abe00009abe0018
:100c50000292be00000c9800110c9800220c980023
:100c6000330c9800400c9800510c9800620c9800ce
:100c7000730c98000a02b1000802b000ff0f550083
:100c8000efff3e00090078004f05be004f04be0094
:100c900000000600f180800091007800a2000700ab
:100ca000110020000000e00005003500f080800009
:100cb00090007800a0002000e6000700cf00de00d2
:100cc0000100ea00000006000000060040022100ca
:100cd00000000600fdff07001081880000818800e9
:100ce00000000600889fbe000004be000800e0006f
:100cf00003003a00c88480000800e00013003200be
:100d00000800be0025010700000444001804e000ac
:100d100004003a000000eb00c08488000004780062
:100d20000a0037000800be00cb00070000004400a6
:100d3000c08488001004e000020032000058eb007c
:100d4000010037000000eb00c08488000800780034
:100d50004f04be0000000600889fbe008a1f780076
:100d6000800478004900900002047800800f54004d
:100d70000100360000047800080178006a8544000c
:100d80001a007800940007001a004400000d780053
:100d9000e8844400990c14000048eb004f057800eb
:100da0004f04be0000000600100078003aff370034
:100db000900190000388a30001003200e6ff370095
:100dc0000348a30001003a00f7ff070000000600f7
:100dd000889fbe008a1f7800000478000105780013
:100de0000000eb000800e0001a003200180090003c
:100df0000058a3000c003200ea0444006800900090
:100e0000990f100008003600b80990000001eb00af
:100e10008200780008007800030001000080eb00e9
:100e20001900e0000b003200740044000008eb00e1
:100e30006c0044000008eb006a0044000008eb006e
:100e40000000eb000a00e000020032001800780009
:100e500005ff07004f0578004f04be0000000600a4
:100e6000889fbe008a1f78000004be000000eb00cf
:100e70000800e00029003200180090000058a3008c
:100e8000120032006a054400680090009a0f1000ba
:100e900008003600b80990000001eb0082007800dd
:100ea00008007800030001000080eb001a00e00059
:100eb0001a003200740044000008eb006c0044008b
:100ec0000008eb006a0044000008eb00780a90007c
:100ed00008109000800f52000600310000025200fe
:100ee00011002000cfa2de00612bb90018007800ad
:100ef000cefe070000022000080040000008eb00c2
:100f00007e0044000008eb000000eb000900e00058
:100f10000200320018007800d3fe07004f05780069
:100f20004f04be0000000600889fbe008a1f7800a4
:100f30008004780001057800090078007f00070030
:100f4000000478008a017800080178001100200070
:100f5000090078000a000700800078000080eb009c
:100f6000888f500001003a000000eb004f05780028
:100f70004f04be000000060010007800c6fe3700d7
:100f8000889fbe008a9fbe0081047800020478001a
:100f900009c5b9000900e00001003a000004eb00b7
:100fa0000a01780080007800030078007eff0700c7
:100fb000800078008a8f5000030032001100090081
:100fc0008980d80000047800080078004f05be0032
:100fd0004f04be00000006008001780002003700c8
:100fe000b15978000201e9000200e000fcff3a007c
:100ff000000006000200fa000001780001007800fd
:10100000e2ff9f00900090000188a30006003200dc
:10101000ea01400093007800825878000280fb00cb
:101020008109780009003700120020008f80e90054
:101030005dff0700800078000080eb000100e00009
:1010400002003200eff897000180fb000080fa00f8
:1010500000000600e7ff37002000fa00889fbe006e
:101060000004be00994078000104e0000300320053
:10107000194090000004e00004003a008100fb00e9
:10108000080078007d0007002800370002022000d9
:101090008000eb00c0fd2f000f0040009afe07000b
:1010a000194078000004e00002003a00880078004f
:1010b0000e0037008904e8000080fb00c400de0059
:1010c0006f006000120020000010dd0081804000f1
:1010d000c2fd2f000f01410081004100110070008e
:1010e00080087800eeff3a00f0ff3700010078003a
:1010f000114178000204e0000c0032008100e80099
:101100000281fb00ef016100140020000322dd00da
:101110004411de0002014100c5fd2f008f82420014
:10112000e501790003016200f0ff32000800500081
:101130004f04be000080fa00000006008000780026
:10114000040037003104e00002003a0000005100c2
:1011500000000600010178000108a300f9ff3a0031
:101160008101780031017800f4ef2f000202420083
:101170000281ea0002016200040828000401610003
:10118000f7ff320083007800010178003104e000ad
:10119000fdff3a0000005100000006002000fa00a8
:1011a0000f0178000202b1000f0009000019eb00e6
:1011b000914178000001eb000304e0002c003200b4
:1011c000114190000204e00005003a008000780020
:1011d00001017800b1cf1100fdff3200230037007c
:1011e000114178000204e00002003a00800078001b
:1011f0000e0037008100e8000281fb00c411de0010
:101200006f016100140020000221dd008381410094
:1012100004fe2f000f0242008301420013017100ff
:1012200082097800eeff3a00f0ff370001017800f4
:10123000914178000304e0000c0032008100e800d6
:101240008381fb006f82610015002000842add008d
:10125000c419de008381410006fe2f000f03430006
:101260006682790084816200f0ff3a00000151003b
:10127000020078000080fa0000000600881f780055
:10128000000478008180fb000a003a000800780022
:10129000aaff070000004400220037001804e00005
:1012a000200032000804e8001081fb00810f51008b
:1012b0001c003200080078000808a300f7ff3a007d
:1012c00014102000048ab900080178003800780062
:1012d000f5ef2f00808242008081ea008382620065
:1012e000030828008382620007003a0000006a00b9
:1012f000f5ef2f00808242000080ea00008062004b
:1013000083016000f0ff3200020078001204e00068
:10131000040032000201e8009081fb00818f51003f
:10132000f9ff3a004f04780000000600f1808000c9
:101330009100780047ff37008101780000027800b3
:1013400030417800b14f510002003a000204e00041
:10135000f9ff3a009480fb001380fb0000805000ee
:1013600000000600000006005afe0700fdff07000f
:10137000fcff3700020ab900001bb9000200b800e8
:1013800081004200810043000000060000c0da0036
:0c1390000000060000c0da0000000600ab
:020000040000fa
:10139c00536500006e640000696e00006720000059
:1013ac0041540000206300006f6e00006e65000069
:1013bc0063740000207400006f2000004150000096
:1013cc0049200000636f00006d6d0000616e00002d
:1013dc00642e00002e0d0000000a000000530000d7
:1013ec00656e0000646900006e670000204100001b
:1013fc0054200000736900007a650000206f000023
:10140c00662000006d73000067200000636f000011
:10141c006d6d0000616e0000642e00002e0d00004a
:10142c0000530000656e0000646900006e670000e8
:10143c002047000045540000206300006f6d000041
:10144c006d6100006e640000203100002e2e000043
:10145c000d000000536500006e640000696e000012
:10146c00672000004745000054200000636f000017
:10147c006d6d0000616e000064200000322e0000d3
:10148c002e0d000000220000000d00000a000000dc
:10149c00415400002b4300004950000053540000fd
:1014ac0041520000543d0000225400004350000003
:1014bc00222c000022360000352e000031300000b6
:1014cc00392e000031340000332e00003734000078
:1014dc00222c000038300000383000000d0a0000cb
:1014ec0000410000542b0000434900005053000001
:1014fc00454e0000443d0000353300000d0a00004d
:10150c000047000045540000202f000074690000c3
:10151c006d6500002048000054540000502f00005e
:10152c00312e0000300d00000a4800006f730000df
:10153c00743a000020360000352e000031300000d7
:10154c00392e000031340000332e000037340000f7
:10155c000d0a00000d0a00000d0a0000000000003a
:10156c00000000000000000000000000000000006f
:10157c00000000000000000000000000000000005f
:10158c00000000000000000000000000000000004f
:10159c00000000000000000000000000000000003f
:1015ac00000000000000000000000000000000002f
:1015bc00000000000000000000000000000000001f
:1015cc00000000000000000000000000000000000f
:1015dc0000000000000000000000000000000000ff
:1015ec0000000000000000000000000000000000ef
:1015fc0000000000000000000000000000000000df
:10160c0000000000000000000000000000000000ce
:10161c0000000000000000000000000000000000be
:10162c0000000000000000000000000000000000ae
:10163c00000000000000000000000000000000009e
:10164c00000000000000000000000000000000008e
:10165c00000000000000000000000000004300003b
:10166c004f4e00004e45000043540000003a00006d
:10167c0000410000542b000043490000505300006f
:10168c005441000054550000530d00000a000000a6
:10169c00536500006e640000696e00006720000056
:1016ac00436f00006e6e0000656300007420000044
:1016bc00636f00006d6d0000616e0000642000001f
:1016cc002e2e00000d000000536500006e6400001b
:1016dc00696e000067200000536900007a65000005
:1016ec00206300006f6d00006d6100006e640000ef
:1016fc00202e00002e0d0000004700004554000075
:10170c00202f000070650000726900006f640000fb
:10171c002f3100002048000054540000502f0000ce
:10172c00312e0000300d00000a4800006f730000dd
:10173c00743a000020360000352e000031300000d5
:10174c00392e000031340000332e000037340000f5
:10175c000d0a00000d0a00000d0a000000410000f7
:10176c00542b00004349000050530000454e00002c
:10177c00443d0000353900000d0a00000000000057
:020000040000fa
:10178c004403fa00124020008000eb00c0812000ce
:10179c00dafc07002102200081004700e2a42800a7
:1017ac0028000900b2587800b104200081004700dd
:1017bc0072a728000f000900b2587800b10520006c
:1017cc008100470072a828002d000900b25878004b
:1017dc0087090700e09c28002bfd07000000eb00a8
:1017ec00000f780006003700200220000e00400099
:1017fc001e00400010407800860307001e0fe80012
:10180c00800220009e007800808f5000f6ff36008a
:10181c0040062000ee08070051ab2800900820007d
:10182c000e0040001148780061ab2800a008200091
:10183c000e004000114878008e007800b108b0000e
:10184c007d0009008058eb008000eb000e80e80062
:10185c000108780010003700c08120008e80e8005d
:10186c009100780001004000904078009008200022
:10187c000e0040000e81e8001201780002004000ca
:10188c00014878000e80e800100078008000e80025
:10189c000e80e800010878000e80e80090007800c7
:1018ac00f0072000808f5000ebff340090082000e0
:1018bc000e004000319f280007fd070080007800d3
:1018cc007a00470001087800319f28000000eb00e7
:1018dc0001fd0700800078007a00470001087800bd
:1018ec00921020000201470051b3280006000900a5
:1018fc0031597800001120000e00400012c4240061
:10190c00235524000288be006400400011442400ca
:10191c00010878000080e80091c5b3000148780008
:10192c000000e8008000eb0064004700010878002c
:10193c001100370064004700900078007a004700df
:10194c0010007800010040009040780070112000d9
:10195c000e004000640147001201780002004000b4
:10196c000148780064004700100078008000e8000f
:10197c0064004700010878006400470010007800fc
:10198c00e60f5000ebff36008000eb007c004700b8
:10199c0001087800011120008e804000901020007a
:1019ac000e00400061fe0700800078007e004700ba
:1019bc00010878007c004700100078000000e0006f
:1019cc000d003a007e004700100078000000e00097
:1019dc0009003a0061002000000220000e004000c7
:1019ec0001087800000220000e0040001000780072
:1019fc0073060700ab013700fd080700509f280055
:101a0c00a1fc07008000eb0066004700010878008d
:101a1c000c003700b00420000e004000e600470028
:101a2c00910078000100400010407800f902070096
:101a3c0066004700100078008000e8006600470050
:101a4c00010878006600470010007800ef0f500086
:101a5c00f0ff3600e6080700400620005c0807008f
:101a6c0070a1280088fc07008000eb00680047008c
:101a7c00010878000c003700b00520000e00400073
:101a8c00e800470091007800010040001040780009
:101a9c00e002070068004700100078008000e800b2
:101aac006800470001087800680047009000780043
:101abc00d0022000808f5000efff3600cc080700ca
:101acc00400620004208070000a328006efc070017
:101adc008000eb006a004700010878000c0037001a
:101aec00b00520000e004000ea004700910078008d
:101afc000100400010407800c60207006a00470051
:101b0c00100078008000e8006a00470001087800a7
:101b1c006a00470090007800d0022000808f5000af
:101b2c00efff3600803e2000290807008000eb0004
:101b3c006c00470001087800100037006c0047006b
:101b4c0090007800c0812000008040009040780018
:101b5c00e01120000e0040006c01470012017800db
:101b6c0002004000014878006c004700100078002b
:101b7c008000e8006c004700010878006c0047000a
:101b8c0090007800f01f2000808f5000ebff360093
:101b9c0097080700e01120000e00400091a42800d7
:101bac004dfc0700800078007a004700010878009f
:101bbc0091a428000000eb0047fc0700800078008f
:101bcc007a00470001087800b0a428002efc07001a
:101bdc008000eb006e004700010878001100370010
:101bec006e004700900078007a00470010007800e3
:101bfc000100400090407800e03120000e004000d1
:101c0c006e01470012017800020040000148780084
:101c1c006e004700100078008000e8006e0047005e
:101c2c00010878006e00470010007800e30f5000a8
:101c3c00ebff34008000eb007000470001087800d7
:101c4c00120037007000470010007800650040005b
:101c5c00fa00470091007800008040009040780026
:101c6c00203220000e004000700147001201780065
:101c7c000200400001487800700047001000780016
:101c8c008000e800700047000108780070004700f1
:101c9c0010007800e10f5000eaff34008000eb00e8
:101cac0072004700010878001200370072004700ec
:101cbc001000780068004000fa004700910078009e
:101ccc000080400090407800403220000e00400020
:101cdc0072014700120178000200400001487800b0
:101cec0072004700100078008000e8007200470086
:101cfc00010878007200470010007800e10f5000d6
:101d0c00eaff34008000eb00740047000108780003
:101d1c001200370074004700100078006b00400080
:101d2c00fa00470091007800008040009040780055
:101d3c00603220000e004000740147001201780050
:101d4c000200400001487800740047001000780041
:101d5c008000e80074004700010878007400470018
:101d6c0010007800e10f5000eaff34008000eb0017
:101d7c007600470001087800120037007600470013
:101d8c00100078006e004000fa00470091007800c7
:101d9c000080400090407800803220000e0040000f
:101dac0076014700120178000200400001487800db
:101dbc0076004700100078008000e80076004700ad
:101dcc00010878007600470010007800e10f500001
:101ddc00eaff34008000eb0078004700010878002f
:101dec0012003700780047001000780071004000a6
:101dfc00fa00470091007800008040009040780085
:101e0c00a03220000e00400078014700120178003b
:101e1c00020040000148780078004700100078006c
:101e2c008000e8007800470001087800780047003f
:101e3c0010007800e10f5000eaff3400e031200080
:101e4c000e0040000000e800104078008000fb000d
:101e5c00400620000088b90000017800e031200025
:101e6c000e004000104078000000fb0001fd2f0028
:101e7c0080804000803e20000088b900000078007f
:101e8c008000410000d42e0000814000e031200091
:101e9c000e0040000080e800104078000000fb00bd
:101eac006a00b90000007800001eb10080004100fb
:101ebc00e03120000e00400063004000104078002c
:101ecc000000fb000003b1008080400040892f001f
:101edc0080804000c03220000e0040006a004000ac
:101eec0001087800203220000e00400010407800dd
:101efc000000fb006a00b9000000780001e22f002e
:101f0c0080804000203220000e0040000000e800dd
:101f1c00104078000000fb000080400001fd2f0005
:101f2c0080804000c03220000e004000680040005d
:101f3c0001087800403220000e004000104078006c
:101f4c000000fb006a00b9000000780001e22f00dd
:101f5c0080804000403220000e0040000000e8006d
:101f6c00104078000000fb000080400001fd2f00b5
:101f7c0080804000c03220000e004000660040000f
:101f8c0001087800603220000e00400010407800fc
:101f9c000000fb006a00b9000000780001e22f008d
:101fac0080804000603220000e0040000000e800fd
:101fbc00104078000000fb000080400021fd2f0045
:101fcc0080804000c03220000e00400064004000c1
:101fdc0001087800803220000e004000104078008c
:101fec000000fb006a00b9000000780001e22f003d
:101ffc0080804000803220000e0040000000e8008d
:10200c00104078000000fb000080400001fd2f0014
:10201c0080804000c03220000e0040000080e800ac
:10202c0001087800a03220000e004000104078001b
:10203c000000fb006a00b9000000780001e22f00ec
:10204c0080804000a03220000e0040000000e8001c
:10205c00104078000000fb000080400001fd2f00c4
:10206c0080804000c03220000e0040000108780043
:10207c00c03220000e004000110020006c00400017
:10208c0001087800c03220000e0040001100200032
:10209c006e00400001087800c03220000e004000a5
:1020ac00360307000080fa00000006001601fa0053
:1020bc004f070700e6004700f2b328000e000900a6
:1020cc00b2587800730107000004e0000b003200e6
:1020dc000000eb00000f7800050037006600470099
:1020ec001e004000104078004a0107001e0fe80057
:1020fc001e007800ee0f5000f8ff3600401f200045
:10210c00b30607008000eb000e80e80001087800a1
:10211c000f0037000e80e80090007800c08120008e
:10212c000080400090407800750047000e81e80068
:10213c001201780002004000014878000e80e8008f
:10214c00100078008000e8000e80e800010878009c
:10215c000e80e80090007800f00f2000808f500077
:10216c00ecff360075004700d1b32800dafa0700ff
:10217c00800078006400470001087800d1b3280083
:10218c000000eb00d4fa07008000780064004700e0
:10219c00010878000e00370064004700100078003a
:1021ac009040780020c3b30080cf500002003a006a
:1021bc0010c0b3000b003700d1b328000000eb00b7
:1021cc00c5fa070080007800640047000108780019
:1021dc0064004700100078000000e000eeff3a00b9
:1021ec000040eb000080fa00000006007e02fa00be
:1021fc00f000470032b8280031000900b2587800ce
:10220c002104200081004700e2a4280028000900d6
:10221c00b2587800b10620008100470052bb28005c
:10222c000f000900b25878000707070080007800fb
:10223c006a004700010878006a0047001000780027
:10224c0080407800b00720000e0040000148780064
:10225c006a004700100078004800de0080407800db
:10226c00c00720000e004000014878006c004700b9
:10227c00b10720008e80400011487800e0b428009f
:10228c0081fa07000000eb00000f78000600370011
:10229c00200420000e0040001e004000104078007a
:1022ac00dc0007001e0fe800800220009e00780072
:1022bc00808f5000f6ff36004006200044060700d1
:1022cc00a0b6280070fa07008000eb000e80e80032
:1022dc00010878000c003700b00620000e0040000a
:1022ec008e80e800910078000100400010407800da
:1022fc00c80007000e80e800100078008000e8009d
:10230c000e80e800010878000e80e80010007800cc
:10231c00ef0f5000f0ff3600400620002c0607009f
:10232c00b306070070a1280057fa07008000eb00e5
:10233c0064004700010878000b003700700047006c
:10234c00e400470091007800010040001040780044
:10235c00b000070064004700100078008000e8001f
:10236c006400470001087800640047009000780082
:10237c0010032000808f5000f0ff36004006200034
:10238c001306070000a328003ffa07008000eb00ab
:10239c0066004700010878000b003700700047000a
:1023ac00e6004700910078000100400010407800e2
:1023bc009800070066004700100078008000e800d5
:1023cc00660047000108780066004700900078001e
:1023dc0010032000808f5000f0ff3600803e20005c
:1023ec00fb05070051ab2800d00720000e00400071
:1023fc001148780061ab2800e00720000e00400077
:10240c00114878008e007800f107b000fd0109003a
:10241c008058eb008000eb00680047000108780052
:10242c0010003700c0812000e800470091007800c0
:10243c000100400090407800d00720000e004000c2
:10244c006801470012017800020040000148780042
:10245c0068004700100078008000e8006800470022
:10246c00010878006800470090007800f01f2000f9
:10247c00808f5000ebff34008000eb006e004700b3
:10248c00010878000080fa00000006000000fa0045
:10249c008ea1a90090012000cd0507008ea1a800f7
:1024ac00007d2000ca0507000080fa00000006002d
:1024bc000000fa008aa1a9008ea1a8000080fa00f1
:1024cc00000006000000fa009580a9009560a900a4
:1024dc0080002000002888000225ef002002200048
:1024ec00402888000a25ef000c25ef000e25ef0090
:1024fc001025ef001225ef001425ef000008210035
:10250c0030408800000821002040880090082100fd
:10251c001040880090082100004088000868ef00f7
:10252c00002c210007000700e02d210014000700fb
:10253c009560a80001e5a8000345a8000080fa00fa
:10254c00000006000200fa00000f78001e00780060
:10255c000000e00003003a00002c210050408800ed
:10256c00020037009e007800514088000080fa007d
:10257c00000006000000fa000080fa0000000600cf
:10258c000200fa00000f78001e0078000000e00046
:10259c0003003a00e02d2100604088000200370063
:1025ac009e007800614088000080fa000000060060
:1025bc000000fa000080fa00000006000200fa0099
:1025cc000040eb00004f780000000000114080003c
:1025dc0000408000808f5000fcff320010408000d3
:1025ec00104f7800104080000000e8001040880078
:1025fc001140800020092100808f500002003a0019
:10260c0090082100104088001e4078000080fa00dd
:10261c00000006000200fa00004f780000000000e5
:10262c001c0007000004a2000004e000fcff3a00bc
:10263c00204080001e487800204080000000e80008
:10264c00204088002140800090082100808f50009d
:10265c0002003a0000082100204088009580a80064
:10266c000080fa00000006000000fa001140800013
:10267c00004080000080680000f0a7000000ea0025
:10268c000000ea004f00de00004078000080fa00f5
:10269c00000006000400fa000e80e80031408000c3
:1026ac0001087800214080000e80e80010007800be
:1026bc00808f5000070031000e80e80090007800f9
:1026cc0020408000008050000000e900000f7800de
:1026dc00060037000e80e800900078002040800053
:1026ec000080500068004000000f78001e00780049
:1026fc0000f0a7000000ea000000ea004f00de0036
:10270c00004078000080fa00000006000000fa008b
:10271c002140800030408000808f500009003a003a
:10272c0011288000001020000080600000f0a7003d
:10273c000000ea000000ea004f00de0000407800d4
:10274c00010037000040eb000080fa00000006009a
:10275c000400fa000e80e8000140800001087800b7
:10276c00114080000e80e80010007800810f5000ae
:10277c00070031000e80e8009000780010408000c7
:10278c000080500069004000000f78000400370002
:10279c000e80e8009000780010408000008f500000
:1027ac00f00f20009e007800808f50000200360051
:1027bc0000c0eb00020037001e00780000407800db
:1027cc000080fa00000006000400fa000e80e80009
:1027dc003140800001087800214080000e80e80024
:1027ec0010007800808f5000070031000e80e80048
:1027fc009000780020408000008050000000e9002c
:10280c00000f7800060037000e80e800900078007a
:10281c00204080000080500068004000000f7800cd
:10282c00f00f20009e007800808f500002003600d0
:10283c0000c0eb00020037001e007800004078005a
:10284c000080fa00000006000800fa00640147004e
:10285c00000978006600470001087800bcff0700fb
:10286c000080fb00000f7800660047001000780025
:10287c009e0f50000200310066004700100f7800d8
:10288c008000eb000e80e800010878000e00370095
:10289c004aff0700e4004700910078008048780068
:1028ac0064004700100078008000e80064004700d6
:1028bc00010878000e80e800100078008000e80025
:1028cc000e80e800010878000e80e8001000780007
:1028dc009e0f5000eeff39001e0078000080fa00b9
:1028ec00000006000800fa006401470000097800a7
:1028fc006600470001087800b3ff07000080fb006a
:10290c00000f780066004700100078009e0f500002
:10291c000200310066004700100f78008000eb00c9
:10292c000e80e800010878000e00370064004700b4
:10293c001000780010407800e40047009100780007
:10294c000101e800e40047008208780031ff07002d
:10295c000e80e800100078008000e8000e80e8008f
:10296c00010878000e80e800100078009e0f5000df
:10297c00eeff39001e0078000080fa00000006000f
:10298c000400fa000000eb00000f780070ff070055
:10299c008e80e800804878008bff0700e30047003a
:1029ac00804878000e80e800104078000080fb0022
:1029bc000000e00003003200e90f50000300320079
:1029cc00040037001e20a000040037001e00a000e9
:1029dc00020037001e10a00000000000630047003a
:1029ec00104078000080fb000000e0000300320083
:1029fc00e90f500003003200040037001e30a00025
:102a0c00020037001e40a000000000001e007800ed
:102a1c000080fa00000006000400fa008e80e80036
:102a2c0080087800114080000e80e80010007800cb
:102a3c00008f4000020037009e007800698f500024
:102a4c00200921009e007800808f5000faff3e0084
:102a5c001e007800104078000080fa00000006008c
:102a6c000000fa003aff07000080fb000000e900bc
:102a7c004f00de00004078000080fa0000000600e5
:102a8c000000fa0050ff07000080fb000000e90086
:102a9c004f00de00004078000080fa0000000600c5
:102aac000000fa00102880000080fa0000000600e8
:102abc000000fa0044ff07000004e00010003200a0
:102acc003140800020408000808f5000060036008e
:102adc003040800080007800204080000080500052
:102aec000000e900070037003040800080007800cb
:102afc00204080000080500068004000010037003a
:102b0c000000eb000080fa00000006000000fa0054
:102b1c000fff07000004e00010003200114080009d
:102b2c0000408000808f500006003600104080006e
:102b3c008000780000408000008050000000e90018
:102b4c0007003700104080008000780000408000b3
:102b5c000080500068004000010037000000eb00ce
:102b6c000080fa00000006000000fa0001e5a80051
:102b7c000345a8000080fa00000006000000fa00df
:102b8c0001e5a9000345a9000080fa000000060039
:102b9c000000fa0050052000303b8800a00a2000fd
:102bac00303b880025a1a80025e1a9001c000700e6
:102bbc000004a2000004e0000c0032002109800097
:102bcc000030200001007000200988003002200035
:102bdc0010098800304020001009880040112000a6
:102bec001009880050152200100988002621ef00da
:102bfc0025e1a80025a1a9009bc0a8000080fa002f
:102c0c00000006000200fa00004f78001e41780018
:102c1c0061812000824878000080fa0000000600e4
:102c2c000000fa0016c8bf000080fa000000060081
:102c3c000400fa008e80e8008008780021098000ea
:102c4c0000002100008060000000e0000200320063
:102c5c000040eb00470037002109800000302000c5
:102c6c00010070002009880011098000010f780014
:102c7c001e007800004078001a0107008080fb00dd
:102c8c000e80e800100078006a004000010878000f
:102c9c0011098000010f78001e0078004800de004a
:102cac00004078000f0107008080fb000e80e800d8
:102cbc001000780068004000010878001e007800c1
:102ccc0000407800070107008080fb000e80e800c0
:102cdc00100078006600400001087800110980009f
:102cec00010f78001e0078004800de0000407800dc
:102cfc00fc0007008080fb000e80e80010007800cc
:102d0c006c004000010878001e007800004078003c
:102d1c00f40007008080fb000e80e80010007800b3
:102d2c00640040000108780011098000010f780050
:102d3c001e0078004800de0000407800e900070023
:102d4c008080fb000e80e800100078000080e80016
:102d5c00010878001e00780000407800e1000700b0
:102d6c008080fb000e80e8001000780001087800dd
:102d7c0010c0b3000080fa00000006000200fa0048
:102d8c00881f7800000f780051052000313b880027
:102d9c00a10a2000313b880025a1a80025e1a9004b
:102dac008bc0a9009bc0a900210980000030200025
:102dbc0001007000200988001e0078006a004000a5
:102dcc001000780000407800ac0007000080fb0089
:102ddc00100988001e007800680040001000780080
:102dec0000407800a50007000080fb004804dd00cf
:102dfc001e0078006600400010007800004078004b
:102e0c009e0007000080fb0008007000100988007d
:102e1c001e0078006c004000100078000040780024
:102e2c00960007000080fb004804dd001e007800bf
:102e3c006400400010007800004078008f0007000c
:102e4c000080fb0008007000100988001e0078004c
:102e5c000080e80010007800004078008700070030
:102e6c000080fb004804dd001e0078001000780094
:102e7c0000407800810007000080fb000800700013
:102e8c001009880025e1a80025a1a9009bc0a80075
:102e9c004f0478000080fa00000006000400fa00dd
:102eac008e80e80080087800210980000000210055
:102ebc00008060000000e000020032000040eb00e7
:102ecc003b00370021098000003020000100700019
:102edc002009880011098000010f78009e007800fd
:102eec000e80e800100078006a00400001087800ad
:102efc0011098000010f78001e0078004800de00e8
:102f0c00800078000e80e800100078006800400017
:102f1c00010878009e007800f00f2000808060008f
:102f2c000e80e80010007800660040000108780070
:102f3c0011098000010f78001e0078004800de00a7
:102f4c00800078000e80e800100078006c004000d3
:102f5c00010878009e007800f00f2000808060004f
:102f6c000e80e80010007800640040000108780032
:102f7c0011098000010f78001e0078004800de0067
:102f8c00800078000e80e800100078000080e800d7
:102f9c00010878009e007800f00f2000808060000f
:102fac000e80e800100078000108780010c0b30013
:102fbc000080fa00000006000200fa00000f780002
:102fcc0051052000313b8800a10a2000313b8800cc
:102fdc0025a1a80025e1a9008bc0a9009bc0a900d0
:102fec0021098000003020000100700020098800b9
:102ffc001e0078006a00400010007800100988005c
:10300c001e00780068004000100078004800dd00c9
:10301c009e007800e68040009100780000807000ef
:10302c00100988001e0078006c0040001000780029
:10303c004800dd009e007800e4804000910078009c
:10304c0000807000100988001e0078000080e800e5
:10305c00100078004800dd009e0078009100780098
:10306c00008070001009880025e1a80025a1a900a6
:10307c009bc0a8000080fa00000006000400fa00c3
:10308c008e80e800804878000e80e80010407800c0
:10309c008080fb00d0cc2c000008b8004308de0078
:1030ac00004078004400dd00004f78000e80e800fe
:1030bc00104078000081fb00d0cc2c000010b80030
:1030cc004308de006a00b9000000780000005100df
:1030dc00004078001e4f70001e4078000080fa00ff
:1030ec00000006000400fa008e80e800804878009a
:1030fc000e80e800104078000080fb004400de00e9
:10310c00004078006a00b900000078008040780028
:10311c000e80e800104078006f40600000cf400047
:10312c001e4078000080fa00000006000000fa0043
:08313c000080fa00000006000b
:020000040000fa
:103144000000fe002209210000197800010978001e
:10315400000006000000fe000000eb008000eb0011
:10316400f8ff07006627ef00000006000000fe00dd
:10317400801f7800811f7800210921000600fc00cf
:1031840031007800303b880011007800303b880023
:1031940061e7a8000000000000000000cf007800f4
:1031a4004f00780000000600a2028000a1028800ff
:1031b4009080ba001000ba00a20288000000060045
:1031c400a2028000a10288001000ba00a2028800b6
:1031d400000006000000fe0061e7af00feff3700bc
:1031e400f23f2000000161000c003a002204240098
:1031f400023b8800a2028000a10288000008bb00f4
:10320400ba1802000000000061e7af00feff3700bb
:10321400a20288001000200061a7af000000200077
:103224000000060061e7af00feff37000000a700c2
:103234000d003700a4028000a102880031002400a0
:10324400013b88000208bb000388bb00ba180200d7
:103254000000000061e7af00feff3700a402880011
:103264001000200061a7af0000002000000006004d
:1032740061e7af00feff37000000a7000e00370033
:1032840033002400033b8800a3028000a1028800cd
:103294000208bb00f20f20000288bb00ba1802002b
:1032a4000000000061e7af00feff3700a3028800c2
:1032b4001000200061a7af000000200000000600fd
:1032c40061e7af00feff3700f30720008081610053
:1032d40010003a0013002400033b8800a30280007e
:1032e400a1028800040420003208bb003298bb000d
:1032f4001400b100fcff3a00ba18020000000000fc
:1033040061e7af00feff3700a30288001000200031
:1033140061a7af00000020000000060061e7af00d5
:10332400feff3700f30720008081610011003a009e
:1033340013002400033b8800a3028000a10288003c
:1033440004042000f10f20003208bb000198bb00e8
:103354001400b100fcff3a00ba180200000000009b
:1033640061e7af00feff3700a302880010002000d1
:1033740061a7af000000200000000600f23f20001b
:10338400000061000000060002c02f000000610080
:0c339400f2ff2f00810061000000060025
:020000040000fa
:1033a0000000fa008ba1a9008b81a9008b61a90004
:1033b0008b41a9004d000700500007005300070093
:1033c000560007000080fa00000006000200fa0024
:1033d000000f780045000700480007004b00070079
:1033e0004e0007001e007800e40f50001500320068
:1033f000e40f500005003c000000e0000a0032002d
:10340000e10f50000b00320020003700e60f5000a3
:1034100011003200e60f500014003500e70f500095
:103420001600320019003700280007001828ef00a6
:10343000180037002100070010002000c04088005d
:103440001400370025000700180007004000200086
:10345000c04088000f003700200007001700070059
:1034600060002000c04088000a0037000f000700fd
:1034700050002000c0408800060037000f00070001
:1034800070002000c040880002003700c4ff070021
:10349000000000000080fa00000006000000fa00b2
:1034a000c04080000080fa00000006000000fa0022
:1034b0008f61a8000080fa00000006000000fa00fa
:1034c0008f81a8000080fa00000006000000fa00ca
:1034d0008fa1a8000080fa00000006000000fa009a
:1034e0008f41a8000080fa00000006000000fa00ea
:1034f0008f61a9000080fa00000006000000fa00b9
:103500008f81a9000080fa00000006000000fa0088
:103510008fa1a9000080fa00000006000000fa0058
:103520008f41a9000080fa00000006000000fa00a8
:1035300080002000b02888001825ef00200220001d
:10354000f02888002025ef002225ef002425ef0039
:103550002625ef002825ef002a25ef0017e5a80013
:103560001945a8000080fa00000006000000fa00db
:1035700000000000c0288000610060000000e00042
:10358000fcff3200c0288000620060000000e00004
:10359000010032001825a900e028800000407800d2
:1035a0000080fa00000006000200fa00004f7800d8
:1035b00000000000c1288000002020000080600082
:1035c0000000e000fbff3a001e80fb00d0288800ce
:1035d0000080fa00000006000000fa00c028800009
:1035e00000407800614060000080fb0000f0a70010
:1035f0000000ea000000ea004f00de000040780012
:103600000080fa00000006000000fa00c1288000d7
:1036100000202000008060000000e00007003a0069
:10362000c128800000402000008060000000e00011
:103630000200320010002000010037000000eb0003
:10364000004078000080fa00000006000000fa0048
:10365000c02880004800de00614060000080fb0060
:1036600000f0a7000000ea000000ea004f00de00c2
:10367000004078000080fa00000006000000fa0018
:10368000c02880000080fa00000006000000fa0058
:1036900017e5a8001945a8000080fa000000060000
:1036a0000000fa0017e5a9001945a9000080fa00fa
:1036b000000006000000fa004c22ef0030422f000c
:1036c000701288000003280080128800704080007b
:1036d0000000e00002003a0020bb210024000700a7
:1036e0008460a9009460a800600921008040eb007c
:1036f000014878000080fa00000006000200fa008d
:10370000000f78009e007800711288006009210087
:103710008040eb00014878000080fa0000000600bd
:103720000000fa00701280000080fa00000006001d
:103730000200fa00000f78009e00780061128800f5
:10374000600921008040eb00014878000080fa0009
:10375000000006000000fa00601280000080fa00fd
:10376000000006000000fa000080fa0000000600d9
:103770000200fa00000f78009460a9009e00780013
:10378000714088009460a8000080fa0000000600e4
:103790000000fa00600921008040eb000148780039
:1037a0009460a80051e2a8000080fa000000060022
:1037b0000000fa0051e2a9009460a9000080fa001c
:1037c000000006000200fa0060092100104f780096
:1037d0001e4078000004e000030032006009210070
:1037e0008040eb00014878001e4078000080fa001d
:1037f000000006000000fa00700921001040780067
:103800000080fb000080fa00000006000000fa00c3
:10381000700921008040eb00014878000080fa0028
:10382000000006000200fa00b90107005005200060
:10383000a10a200044fe07001200200000702500ad
:10384000110020008bfe070044fe07003500070032
:103850001200070001003700000000000fff070002
:10386000000f78001e007800e40f500008003200be
:10387000e70f5000030032000000e000f6ff3a00be
:10388000050037008fa1a8000400070002003700e0
:103890003200070000000000f0ff37000600fa00c9
:1038a000bffe070005fb07005f0107000004a20040
:1038b0000004e0000500320050002000000f7800f6
:1038c0001e007800c1fe070014003700faf9070057
:1038d0000004a2000004e0000700320041002000c4
:1038e0000e80e800010878000e80e80010007800e3
:1038f000b6fe070009003700a4f707003efa0700ec
:103900008000eb0064004700010878006400470075
:1039100010007800adfe0700000000000080fa00f3
:10392000000006000400fa0080ed2100000f78007e
:1039300061f321000e80e800010878001e00780085
:1039400012fb07000e80e8001000780088ff0700d7
:1039500097ff07000080fa00000006000000fa0050
:103960008bff070000000000ccfe0700e40f5000b2
:10397000fdff32008eff07000080fa000000060005
:103980000000fa008421ef0080942000700c880071
:1039900070002000000c8800f0eb2f00500c880015
:1039a0005620ef005820ef005a20ef0000002100c1
:1039b000700388007020ef007220ef008621ef0076
:1039c0009021ef0070002000400c8800c000230010
:1039d000900c880001088000f00b2000008160003e
:1039e0006004200071052000031020008049780049
:1039f0008149780082497800e11e800000fc2f0098
:103a0000008060005000b300e01e8800811d80002f
:103a100000fc2f00008060009000b300801d880033
:103a2000f11e800000fc2f00008060003000b30019
:103a3000f01e8800911d800000fc2f0000806000b7
:103a40007000b300901d880000088000000178001d
:103a50000260a00060042000710520000310200017
:103a60008049780081497800824978006380a80005
:103a700040d42100070007008660a9009660a800d6
:103a80000080fa00000006000000fa000080fa0042
:103a9000000006000200fa00000f78009660a900fe
:103aa0009e007800914088009660a8000080fa008f
:103ab000000006000200fa00000f78001e007800e7
:0c3ac000f4ff07000080fa000000060080
:020000040000fa
:103acc00921000000400000082000000ffffff00c5
:103adc00ff0000001208000002000000800000003f
:103aec00601000002000000080000000140800009e
:103afc000200000082000000ffff0000160800001a
:103b0c000200000080000000801000001200000085
:103b1c0080000000000800000e0000008000000083
:103b2c009610000002000000800000000e0800004b
:103b3c0004000000800000001808000002000000d3
:103b4c00800000001c08000002080000800000003b
:103b5c001a08000002000000800000001e10000087
:103b6c0042000000820000002210240010241000eb
:103b7c000100030000000000000000000000000035
:103b8c0000003000070000000000000000d4060018
:103b9c0064060000000000000000000000000000af
:103bac000000000000000000000000000000000009
:103bbc0000000000000000000000000000000000f9
:103bcc0098100000020000008000000000000000bf
:020000040000fa
:103bdc000200fa00000f78000300370000e8230011
:103bec0001002000ad0007001e00780000f0a700c7
:103bfc000000ea000000ea004f00de000040780000
:103c0c001e0fe9000004e000f4ff3a000080fa0007
:103c1c00000006000200fa00000f780005003700d3
:103c2c0000202000010020009c00070001fe2f0056
:103c3c001e8f40001e007800ff0f5000f8ff3e0062
:103c4c000300370000012000010020009300070052
:103c5c001e00780000f0a7000000ea000000ea0057
:103c6c004f00de00004078001e0fe9000004e00069
:103c7c00f4ff3a000080fa00000006000000fa0091
:103c8c0000002300100888000621ef006821ef00d7
:103c9c006a21ef006e21ef007021ef007221ef001e
:103cac007421ef007621ef007a21ef007c21ef00e8
:103cbc007e21ef001200200080072000a1092000c7
:103ccc0013102000804978008149780082497800df
:103cdc003200200060042000710520000310200039
:103cec008049780081497800824978000000000002
:103cfc0000088000610060000000e000fcff3a005a
:103d0c00000000000108800000022000008060001c
:103d1c000000e000fbff32000080fa00000006000b
:103d2c000000fa0011068000f08f2f000080600068
:103d3c000080a0001006880061058000f0ff2800bc
:103d4c000080600000c0a000600588002106800093
:103d5c00f0f82f00008060000040a00020068800d2
:103d6c005105800080ff2f00008060000010a00033
:103d7c005005880041058000f0ff2800008060009d
:103d8c0000d0a0004005880021058000f0ff28002d
:103d9c000080600000c0a000200588000080fa00b0
:103dac00000006000200fa000c00370003fa0700be
:103dbc00004f78001e80fb0059f50700d2408000b0
:103dcc009e407800c081200002004000014878002d
:103ddc00d04080000000e800d040880022fa0700a4
:103dec000004e000f1ff3a000080fa000000060039
:103dfc000000fa00228020008000eb00c08120002f
:103e0c003ef307001a28ef00c08120008040eb0031
:103e1c00014878000080fa00000006000000fa005b
:103e2c000070250011002000e3fc0700e10f4000aa
:103e3c0002003a000040eb000100370010c0b30054
:103e4c000080fa00000006000000fa000070250057
:103e5c0011002000d8fc07000080fa0000000600ca
:103e6c000200fa0092fd07002003200058ff070013
:103e7c009ffd070085f907008cf807000004e0009f
:103e8c000400320070002000000f78001e00780043
:0c3e9c004bfd07000080fa00000006004b
:020000040000fa
:103ea800f03fb1000180b10006003500ee030900c3
:103eb80000000000403fb1000180b100fbff3d0061
:103ec8001000b000203fb00002003500008009005b
:083ed8000000000000000600dc
:020000040000fa
:103ee0000200fa00000f78009e007800a1408800d0
:103ef000ffff37000000fa0000062100800778006d
:103f000080072100000188000080fa000000060000
:103f10000000fa009afe070084ff07005aff07001e
:103f200082fd07006af907001cfb0700e1fd07009e
:083f30000080fa000000060009
:020000040000fa
:020000040002f8
:04aff000fff300006b
:020000040000fa
:020000040002f8
:04aff400fff7000063
:020000040000fa
:020000040002f8
:04aff8007f300000a6
:020000040000fa
:020000040002f8
:04affc003f3f0000d3
:00000001FF
