:020000040000fa
:080000000002040000000000f2
:020000040000fa
:04000800ca04000026
:020000040000fa
:04000c00520300009b
:020000040000fa
:040010009403000055
:020000040000fa
:040014007203000073
:020000040000fa
:04001800b40300002d
:020000040000fa
:04001c00ca04000012
:020000040000fa
:04002000ca0400000e
:020000040000fa
:04002400ca0400000a
:020000040000fa
:04002800ca04000006
:020000040000fa
:04002c00ca04000002
:020000040000fa
:04003000ca040000fe
:020000040000fa
:04003400ca040000fa
:020000040000fa
:04003800ca040000f6
:020000040000fa
:04003c00ca040000f2
:020000040000fa
:04004000ca040000ee
:020000040000fa
:04004400ca040000ea
:020000040000fa
:04004800ca040000e6
:020000040000fa
:04004c00ca040000e2
:020000040000fa
:04005000ca040000de
:020000040000fa
:040054004e04000056
:020000040000fa
:04005800f2030000af
:020000040000fa
:04005c00ca040000d2
:020000040000fa
:04006000ca040000ce
:020000040000fa
:04006400ca040000ca
:020000040000fa
:04006800ca040000c6
:020000040000fa
:04006c00ca040000c2
:020000040000fa
:04007000ca040000be
:020000040000fa
:040074002403000061
:020000040000fa
:04007800ca040000b6
:020000040000fa
:04007c00ca040000b2
:020000040000fa
:04008000ca040000ae
:020000040000fa
:04008400ca040000aa
:020000040000fa
:04008800ca040000a6
:020000040000fa
:04008c00ca040000a2
:020000040000fa
:04009000ca0400009e
:020000040000fa
:04009400ca0400009a
:020000040000fa
:04009800ca04000096
:020000040000fa
:04009c00ca04000092
:020000040000fa
:0400a000ca0400008e
:020000040000fa
:0400a400ca0400008a
:020000040000fa
:0400a800ca04000086
:020000040000fa
:0400ac00ca04000082
:020000040000fa
:0400b000ca0400007e
:020000040000fa
:0400b400ca0400007a
:020000040000fa
:0400b800ca04000076
:020000040000fa
:0400bc00ca04000072
:020000040000fa
:0400c000ca0400006e
:020000040000fa
:0400c400ca0400006a
:020000040000fa
:0400c800ca04000066
:020000040000fa
:0400cc00ca04000062
:020000040000fa
:0400d000ca0400005e
:020000040000fa
:0400d400ca0400005a
:020000040000fa
:0400d800ca04000056
:020000040000fa
:0400dc00ca04000052
:020000040000fa
:0400e000ca0400004e
:020000040000fa
:0400e400ca0400004a
:020000040000fa
:0400e800ca04000046
:020000040000fa
:0400ec00ca04000042
:020000040000fa
:0400f000ca0400003e
:020000040000fa
:0400f400ca0400003a
:020000040000fa
:0400f800ca04000036
:020000040000fa
:0400fc00ca04000032
:020000040000fa
:04010000ca0400002d
:020000040000fa
:04010400ca04000029
:020000040000fa
:04010800ca04000025
:020000040000fa
:04010c00ca04000021
:020000040000fa
:04011000ca0400001d
:020000040000fa
:04011400ca04000019
:020000040000fa
:04011800ca04000015
:020000040000fa
:04011c00ca04000011
:020000040000fa
:04012000d403000004
:020000040000fa
:04012400ca04000009
:020000040000fa
:04012800ca04000005
:020000040000fa
:04012c00b404000017
:020000040000fa
:04013000ca040000fd
:020000040000fa
:04013400ca040000f9
:020000040000fa
:04013800ca040000f5
:020000040000fa
:04013c00ca040000f1
:020000040000fa
:04014000ca040000ed
:020000040000fa
:04014400ca040000e9
:020000040000fa
:04014800ca040000e5
:020000040000fa
:04014c00ca040000e1
:020000040000fa
:04015000ca040000dd
:020000040000fa
:04015400ca040000d9
:020000040000fa
:04015800ca040000d5
:020000040000fa
:04015c00ca040000d1
:020000040000fa
:04016000ca040000cd
:020000040000fa
:04016400ca040000c9
:020000040000fa
:04016800ca040000c5
:020000040000fa
:04016c00ca040000c1
:020000040000fa
:04017000ca040000bd
:020000040000fa
:04017400ca040000b9
:020000040000fa
:04017800ca040000b5
:020000040000fa
:04017c00ca040000b1
:020000040000fa
:04018000ca040000ad
:020000040000fa
:04018400ca040000a9
:020000040000fa
:04018800ca040000a5
:020000040000fa
:04018c00ca040000a1
:020000040000fa
:04019000ca0400009d
:020000040000fa
:04019400ca04000099
:020000040000fa
:04019800ca04000095
:020000040000fa
:04019c00ca04000091
:020000040000fa
:0401a000ca0400008d
:020000040000fa
:0401a400ca04000089
:020000040000fa
:0401a800ca04000085
:020000040000fa
:0401ac00ca04000081
:020000040000fa
:0401b000ca0400007d
:020000040000fa
:0401b400ca04000079
:020000040000fa
:0401b800ca04000075
:020000040000fa
:0401bc00ca04000071
:020000040000fa
:0401c000ca0400006d
:020000040000fa
:0401c400ca04000069
:020000040000fa
:0401c800ca04000065
:020000040000fa
:0401cc00ca04000061
:020000040000fa
:0401d000ca0400005d
:020000040000fa
:0401d400ca04000059
:020000040000fa
:0401d800ca04000055
:020000040000fa
:0401dc00ca04000051
:020000040000fa
:0401e000ca0400004d
:020000040000fa
:0401e400ca04000049
:020000040000fa
:0401e800ca04000045
:020000040000fa
:0401ec00ca04000041
:020000040000fa
:0401f000ca0400003d
:020000040000fa
:0401f400ca04000039
:020000040000fa
:0401f800ca04000035
:020000040000fa
:0401fc00ca04000031
:020000040000fa
:04020800ca04000024
:020000040000fa
:04020c005203000099
:020000040000fa
:040210009403000053
:020000040000fa
:040214007203000071
:020000040000fa
:04021800b40300002b
:020000040000fa
:04021c00ca04000010
:020000040000fa
:04022000ca0400000c
:020000040000fa
:04022400ca04000008
:020000040000fa
:04022800ca04000004
:020000040000fa
:04022c00ca04000000
:020000040000fa
:04023000ca040000fc
:020000040000fa
:04023400ca040000f8
:020000040000fa
:04023800ca040000f4
:020000040000fa
:04023c00ca040000f0
:020000040000fa
:04024000ca040000ec
:020000040000fa
:04024400ca040000e8
:020000040000fa
:04024800ca040000e4
:020000040000fa
:04024c00ca040000e0
:020000040000fa
:04025000ca040000dc
:020000040000fa
:040254004e04000054
:020000040000fa
:04025800f2030000ad
:020000040000fa
:04025c00ca040000d0
:020000040000fa
:04026000ca040000cc
:020000040000fa
:04026400ca040000c8
:020000040000fa
:04026800ca040000c4
:020000040000fa
:04026c00ca040000c0
:020000040000fa
:04027000ca040000bc
:020000040000fa
:04027400240300005f
:020000040000fa
:04027800ca040000b4
:020000040000fa
:04027c00ca040000b0
:020000040000fa
:04028000ca040000ac
:020000040000fa
:04028400ca040000a8
:020000040000fa
:04028800ca040000a4
:020000040000fa
:04028c00ca040000a0
:020000040000fa
:04029000ca0400009c
:020000040000fa
:04029400ca04000098
:020000040000fa
:04029800ca04000094
:020000040000fa
:04029c00ca04000090
:020000040000fa
:0402a000ca0400008c
:020000040000fa
:0402a400ca04000088
:020000040000fa
:0402a800ca04000084
:020000040000fa
:0402ac00ca04000080
:020000040000fa
:0402b000ca0400007c
:020000040000fa
:0402b400ca04000078
:020000040000fa
:0402b800ca04000074
:020000040000fa
:0402bc00ca04000070
:020000040000fa
:0402c000ca0400006c
:020000040000fa
:0402c400ca04000068
:020000040000fa
:0402c800ca04000064
:020000040000fa
:0402cc00ca04000060
:020000040000fa
:0402d000ca0400005c
:020000040000fa
:0402d400ca04000058
:020000040000fa
:0402d800ca04000054
:020000040000fa
:0402dc00ca04000050
:020000040000fa
:0402e000ca0400004c
:020000040000fa
:0402e400ca04000048
:020000040000fa
:0402e800ca04000044
:020000040000fa
:0402ec00ca04000040
:020000040000fa
:0402f000ca0400003c
:020000040000fa
:0402f400ca04000038
:020000040000fa
:0402f800ca04000034
:020000040000fa
:0402fc00ca04000030
:020000040000fa
:04030000ca0400002b
:020000040000fa
:04030400ca04000027
:020000040000fa
:04030800ca04000023
:020000040000fa
:04030c00ca0400001f
:020000040000fa
:04031000ca0400001b
:020000040000fa
:04031400ca04000017
:020000040000fa
:04031800ca04000013
:020000040000fa
:04031c00ca0400000f
:020000040000fa
:04032000d403000002
:020000040000fa
:04032400ca04000007
:020000040000fa
:04032800ca04000003
:020000040000fa
:04032c00b404000015
:020000040000fa
:04033000ca040000fb
:020000040000fa
:04033400ca040000f7
:020000040000fa
:04033800ca040000f3
:020000040000fa
:04033c00ca040000ef
:020000040000fa
:04034000ca040000eb
:020000040000fa
:04034400ca040000e7
:020000040000fa
:04034800ca040000e3
:020000040000fa
:04034c00ca040000df
:020000040000fa
:04035000ca040000db
:020000040000fa
:04035400ca040000d7
:020000040000fa
:04035800ca040000d3
:020000040000fa
:04035c00ca040000cf
:020000040000fa
:04036000ca040000cb
:020000040000fa
:04036400ca040000c7
:020000040000fa
:04036800ca040000c3
:020000040000fa
:04036c00ca040000bf
:020000040000fa
:04037000ca040000bb
:020000040000fa
:04037400ca040000b7
:020000040000fa
:04037800ca040000b3
:020000040000fa
:04037c00ca040000af
:020000040000fa
:04038000ca040000ab
:020000040000fa
:04038400ca040000a7
:020000040000fa
:04038800ca040000a3
:020000040000fa
:04038c00ca0400009f
:020000040000fa
:04039000ca0400009b
:020000040000fa
:04039400ca04000097
:020000040000fa
:04039800ca04000093
:020000040000fa
:04039c00ca0400008f
:020000040000fa
:0403a000ca0400008b
:020000040000fa
:0403a400ca04000087
:020000040000fa
:0403a800ca04000083
:020000040000fa
:0403ac00ca0400007f
:020000040000fa
:0403b000ca0400007b
:020000040000fa
:0403b400ca04000077
:020000040000fa
:0403b800ca04000073
:020000040000fa
:0403bc00ca0400006f
:020000040000fa
:0403c000ca0400006b
:020000040000fa
:0403c400ca04000067
:020000040000fa
:0403c800ca04000063
:020000040000fa
:0403cc00ca0400005f
:020000040000fa
:0403d000ca0400005b
:020000040000fa
:0403d400ca04000057
:020000040000fa
:0403d800ca04000053
:020000040000fa
:0403dc00ca0400004f
:020000040000fa
:0403e000ca0400004b
:020000040000fa
:0403e400ca04000047
:020000040000fa
:0403e800ca04000043
:020000040000fa
:0403ec00ca0400003f
:020000040000fa
:0403f000ca0400003b
:020000040000fa
:0403f400ca04000037
:020000040000fa
:0403f800ca04000033
:020000040000fa
:0403fc00ca0400002f
:020000040000fa
:100400004f0b21000e7f22000e018800000000002b
:10041000000020000000e000020032000001200087
:100420002002880014000700920107000000e0008d
:1004300003003a00c08c22000100200002003700b7
:100440000000200001002000810f70000100320038
:1004500014000700000020000000e000020032004d
:1004600000000200000000006e29020000000000f1
:100470000040da000000fe004440a900801f200078
:100480000000e000030032000020200090018800fe
:100490004440a800000006008a1f78008b1f7800e7
:1004a00000000600a1028800800478000000eb0034
:1004b0001f003700e284440054a0b4009905ba003c
:1004c000e284440054a0b4009906ba00e2844400d7
:1004d00054a0b4000006eb00476fde00fd07b20039
:1004e000ae018800636ce10003003a00eaff0700f8
:1004f0000000eb000e003700606ce10008003a00dd
:10050000004deb000a05e800020039003420ec0041
:100510000af0a0008b05e900f9ff3e000400370057
:100520006168e100010032000086eb000b0007006b
:1005300019c7ba001905ba000e04e00003003a001a
:100540000a00e000dbff3a0000000600fe07b200f0
:10055000ae0288008a047800f5ff37000cd0a300b3
:10056000e20f4d001c00390089027800354dba00b9
:100570000a05e800020039003420ec000af0a0006f
:100580008b05e9000f003200254dba000a05e8008e
:10059000020039003420ec000af0a0008b05e900cd
:1005a000080032000c00e0000600320015cdba0051
:1005b0000a05e800020039003420ec000af0a0002f
:1005c0008b05e9008984e80054a0b4000b00e0002a
:1005d000e2ff3a00000006009902ba00055d7800cb
:1005e0008b05e900f7ff3200c82ade00055d7800c0
:1005f0008b05e900f3ff32000c00e000f1ff320050
:1006000019ddba00eeff3700aa2804000000000040
:10061000dc1e040000000000fa1e040000000000c0
:10062000b42a040000000000502b04000000000069
:10063000c60e0400000000009c0a04000000000038
:1006400032060400000000003600f800809fbe0063
:10065000829fbe00849fbe00869fbe000000fa00fd
:1006600030048000680060000000e00006003200f6
:10067000704080000000e000020032007040800006
:10068000000001008660a9000080fa004f03be0050
:100690004f02be004f01be004f00be003600f90001
:1006a000004006003600f800809fbe00829fbe001a
:1006b000849fbe00869fbe000000fa008020a90033
:1006c0000000eb00131407000080fa004f03be0087
:1006d0004f02be004f01be004f00be003600f900c1
:1006e000004006003600f800809fbe00829fbe00da
:1006f000849fbe00869fbe000000fa000a14070017
:100700008040a90010002000021407000080fa00b9
:100710004f03be004f02be004f01be004f00be009f
:100720003600f900004006003600f800809fbe0049
:10073000829fbe00849fbe00869fbe000000fa001c
:100740008060a90020002000f21307000080fa005a
:100750004f03be004f02be004f01be004f00be005f
:100760003600f900004006003600f800809fbe0009
:10077000829fbe00849fbe00869fbe000000fa00dc
:100780008080a90030002000e21307000080fa00fa
:100790004f03be004f02be004f01be004f00be001f
:1007a0003600f900004006003600f800809fbe00c9
:1007b000829fbe00849fbe00869fbe000000fa009c
:1007c0006b1007008bc0a9000080fa004f03be0029
:1007d0004f02be004f01be004f00be003600f900c0
:1007e000004006003600f800809fbe00829fbe00d9
:1007f000849fbe00869fbe000000fa00504080002b
:10080000000001003140800020408000808f5000b7
:1008100002003a009580a900190037008580a900e0
:100820001000370030408000904078008180fb004d
:10083000212888000000e800304088003140800016
:10084000100a2100808f500002003a008009210028
:10085000304088003140800020408000808f500070
:100860000600320011288000002020000080600077
:100870000000e000ebff3200010037000000000044
:100880000080fa004f03be004f02be004f01be00c1
:100890004f00be003600f900004006003600f800a8
:1008a000809fbe00829fbe00849fbe00869fbe00c8
:1008b0000000fa0060408000000001008560a9008f
:1008c0001e00370001408000302880000040780082
:1008d0008048780001408000900a2100808f5000fd
:1008e00009003200004080000000e8001140800054
:1008f000810f500004003200004080000000e8003a
:10090000004088000d00370001408000900a21005f
:10091000808f500007003a0011408000100a21002b
:10092000808f500003003200100a21000040880030
:100930000200370010c0b30008e8b700102880009c
:10094000610060000000e000deff3a000080fa0075
:100950004f03be004f02be004f01be004f00be005d
:100960003600f90000400600801f78000000fa0001
:1009700010288000620060000000e00001003200ea
:100980000225a9008c20a9000080fa004f00780001
:10099000004006000040da000000fe00ec8747003f
:1009a0008e1f78006c87570044002000041f7800d9
:1009b000000f78006c87570002afbe00e1bf9f00b8
:1009c0006c8057006e0707001e00be004f077800be
:1009d000cf00b10000000600ec8747008e1f7800b2
:1009e00011002000a1bf9f006c875700002f7800e6
:1009f0006c805700640707001e0078004f077800de
:100a0000cf00b100000006000800fa008e81e80067
:100a100080097800640047000108780066004700fc
:100a20000208780066004700100f78000a003700bf
:100a3000640047001000780010407800e400470090
:100a4000910078000101e800e40047008208780086
:100a5000e31007001e0fe9001e0078000000e00010
:100a6000f3ff3a0066004700100078000080fa00ab
:100a700000000600000005000000fa004fb99700d2
:100a8000e8815700730207000080fa0000000600aa
:100a900098000700f0000700a0010700c801070048
:100aa00022013700889fbe008a9fbe008004780024
:100ab0000200e0005a00320001407800814c7800ca
:100ac00082814400f1f99f00e20f5100540036008a
:100ad00091449800a1449800e1f99f00d1f99f004a
:100ae000e60f51004e003600b1449800c1f99f0056
:100af000e80f51004a0036000905ea006305650069
:100b00000a8444000a055100c1ff2f000105650059
:100b10000080fb008000eb0012102000131020006a
:100b200011070700008cbe000a01440060b99f0055
:100b300071b99f00e80f5500390036002004980075
:100b400031049800400498005104980020b99f0097
:100b500031b99f0040b99f0051b99f00f80f55006f
:100b60002f0036006004980071049800000c980073
:100b7000110c9800200c9800310c9800400c980043
:100b8000510c980020b19f0031b19f0040b19f00ef
:100b900051b19f0060b19f0071b19f0000b99f00eb
:100ba00011b99f006401640078014100020444000f
:100bb000020555006011b8000203be000002be002d
:100bc0000403be006022b800000072008180720041
:100bd00002017300838173000f0037000802780060
:100be000009abe00029abe00009abe000292be00a9
:100bf000000c9800110c9800220c9800330c9800ff
:100c0000400c9800510c9800620c9800730c9800ee
:100c10000a02b1000802b000ff0f5500efff3e00ce
:100c2000090078004f05be004f04be00000006001a
:100c3000d180800091007800860407001100200018
:100c40000000e00005003500d080800090007800b2
:100c5000a0002000ca040700cf00de000100ea0067
:100c6000000006000000060000022100000006004f
:100c7000fdff0700f0808800e0808800000006008b
:100c8000889fbe000004be000800e00003003a0098
:100c9000888580000800e000130032000800be00d4
:100ca00009050700000444001804e00004003a00ad
:100cb0000000eb0080858800000478000a003700ff
:100cc0000800be00af0407000000440080858800d3
:100cd0001004e000020032000058eb000100370071
:100ce0000000eb0080858800080078004f04be00fb
:100cf00000000600ec874700889fbe008a9fbe0068
:100d00008c9fbe008e1f78000006780001047800da
:100d1000180790002805900098067800cdb79f002e
:100d2000b80590003202be002203be000400be00df
:100d30000601be004f18de006011b8008000eb0015
:100d4000d0b79f00e1b79f00f2b79f0083bf9f001d
:100d5000800478000900e000060032006000b8005e
:100d60006011b80004025000858258000603590043
:100d7000878359000e00e000020035000d10a1002d
:100d8000cdb79f000900e00005003a004fb0970082
:100d90000028a30002003a000038a300020032003d
:100da0008a00e900010037008a007800f8815700c6
:100db000a200200008007800860007000900e0007b
:100dc00003003a00cfb097000128a30008003200ca
:100dd0000000e90000814500b1c2b3000900e00055
:100de00001003200d1c2b30001497800050037008c
:100df0000138a300030032000000e90001c2b30083
:100e000081757800480190000201e900000151005d
:100e1000808045004fb297008a0178000c0078006e
:100e2000e30107009c0090000188a3000400320049
:100e300098009000810f500001003d0001007800f3
:100e40004f0778004f06be004f05be004f04be009e
:100e5000cf00b100000006000200fa00889fbe002b
:100e60008a9fbe0000057800010478000200780027
:100e700018019000a805900098007800b1bf9f006d
:100e8000b80490000200e000020035000110a1004b
:100e9000b1bf9f00ea815700820020008b007800dc
:100ea0003002be002003be000800780049000700a1
:100eb0003fb99700f0006100030032000000e90034
:100ec00001c3b300817478003fb99700e800610066
:100ed000030032000000e90001c2b3008174780011
:100ee000480190000201e9000001510080804400a7
:100ef0003fba97008b0178000a007800ac01070028
:100f00009a0090000188a30004003200980090002d
:100f1000810f500001003d00010078004f05be0028
:100f20004f04be000080fa0000000600ea87470078
:100f3000889fbe008a9fbe008e1f78000004780044
:100f4000030078007287570084e2260055c7260008
:100f5000049fbe00c3962200030f78006c875700e1
:100f6000004feb0011059000a1049000910578005e
:100f70000200e000020032000207780001003700a2
:100f8000728757000000e00002003a000e0078006f
:100f9000350407000a00e000030035008a0f500006
:100fa000010036000a0078000b0278008901780001
:100fb000000178008e007800080078007c010700ae
:100fc0004f0778004f05be004f04be00af00b100d0
:100fd00000000600f4874700889fbe008a9fbe007d
:100fe0008c9fbe008e1f78000605be000404be0064
:100ff00081bf9f0082b79f00f3b79f00b0009000b1
:10100000e1b79f001301780092b79f00900690000f
:10101000400690000c06e9000d00e00001003d00d4
:101020001d002000efb197000c8041000048eb004c
:101030001e0020001f0037000c06e9000fb09700cb
:10104000cf80de006109b900a0b79f00b1b79f0053
:10105000c2b79f00d3b79f000203be000002be00cc
:101060000800be000a01be007206070000077800f3
:10107000efb097000c80400003c3b3000348470063
:101080008d06e9000fb897000000e90080bf9f00bf
:101090002fb29700bfb297004fb39700dfb397000e
:1010a0000800be000a01be005b0607000205be0084
:1010b0000004be000c00e0000d003200e00f540000
:1010c000e08f5c00e00f5d00e08f5d00daff3a002a
:1010d0000d00e000d8ff3c008fb897000100e00051
:1010e000030034001fb197000218a300d2ff3a009a
:1010f0000e00e00002003a00ffb197001340a1008b
:101100000c0078004f0778004f06be004f05be0068
:101110004f04be004f01b100000006000200fa00bb
:10112000889fbe008a9fbe0080047800010478007a
:1011300002007800180190002805900098007800bf
:10114000b1bf9f00b80590000200e000020035002a
:101150000110a100b1bf9f00ea815700a20020004a
:101160008a0078003002be002003be00080078002c
:1011700098ff0700480190000201e90000015100ba
:10118000808045003fba97008a0178000900780006
:1011900007010700990090000188a30004003200b5
:1011a00098009000810f500001003d000100780080
:1011b0004f05be004f04be000080fa00000006008c
:1011c000fa874700889fbe008a9fbe008c9fbe00a2
:1011d0008e1f780080047800010478008205780072
:1011e000180190002805900018077800b8009000ba
:1011f0000200e000020035000e10a10001003700df
:101200001200200070006700e0b79f000900320064
:101210003b02be002b03be00e00f5200e08f5a00dd
:10122000e00f5b00e08f5b00020032008a86e9007d
:10123000010037008a067800e8026700f5b79f00d2
:10124000010032008d06e9003b02be002b03be0008
:10125000e4af9f00f5af9f0086b79f0097b79f0050
:10126000480690000c06e9000c8040000048eb00a6
:10127000efb297007fb2970089037800810478006d
:10128000d8af9f00020478008bbf9f008a057800ca
:10129000034578002a0037000c06e9006fab970081
:1012a0006f006300e90f500002003c000003b00033
:1012b000010037007005b0000a03fb001604b100fe
:1012c000f90f53000c003e00000378000650a00008
:1012d0001606b100f90f530007003e00b4b79f0097
:1012e000a5b79f00c7b79f002e040700cfb3970094
:1012f000afb297003fb2970080747e000804e90007
:101300008d06e9006fa89700ffa897000fb197001e
:101310009fb19700460020008301d1000281d300d5
:101320008180d3000080d3000603e900faff3a0071
:10133000e0af9f00f1af9f0082b79f0093b79f007f
:10134000e10f56000f0036006fa89700ffa8970026
:101350000fb197009fb19700e00f5000e08f580049
:10136000e00f5900e08f5900cbff3a000800e00081
:10137000c9ff3c000d00e000020034000e18a3007d
:10138000c5ff3a0089007800f4b79f008704780011
:101390005fac97008a4178000b0578008fbd9700fd
:1013a0000500e000100032003b02be002b03be002f
:1013b000e4af9f00f5af9f0086b79f0097b79f00ef
:1013c000e00f5200e08f5a00e00f5b00e08f5b00ff
:1013d000050032000c06e90083707e000c06e9006f
:1013e00000c3b30080707e00ffb297000500e000ec
:1013f000030032000c06e90000c2b30080707e00da
:10140000480190000201e9000c0151008c8040006d
:101410000e0278008a017800090078006400070055
:10142000990090000188a300040032009800900009
:10143000810f500001003d00010078004f07780047
:101440004f06be004f05be004f04be00af01b10005
:1014500000000600f28747008e1f78000202780025
:10146000030178000000e00002003200000778006d
:1014700001003700728757008002eb000100e00096
:10148000010032008102e900708057000600090067
:101490000018eb007280570000a8eb00231020001a
:1014a00093bf9f00aebf9f00b1bf9f00c5bf9f000d
:1014b0000100e00004003d00b00420009085880099
:1014c0000080eb0005003700004feb00eebf9f00ef
:1014d000debf9f0084007800330307004f077800c9
:1014e0002f01b10000000600889fbe008a1f78000f
:1014f000800478004900900002047800800f5400b6
:101500000100360000047800080178006a85440074
:101510001a0078007b0207001a004400000d7800d2
:10152000e8844400990c14000048eb004f05780053
:101530004f04be00000006001000780032fd3700a6
:10154000900190000388a30001003200e6ff3700fd
:101550000348a30001003a00f7ff0700000006005f
:10156000889fbe008a1f78008004780049009000a0
:1015700002047800800f5400010036000004780057
:10158000080178006a8544001a0078005d020700af
:101590001a004400000d7800e8844400990c1400ff
:1015a0000048eb004f0578004f04be000000060025
:1015b000f2874700889fbe008a9fbe008c9fbe00b6
:1015c0008e1f7800800478000105780002047800fe
:1015d000830578006107620002003a008b0f540017
:1015e00008003900080178008a00780009007800b6
:1015f000d3ff07008b0f54000200390088057800e4
:101600001e003700088655000c017800f00f5600c8
:101610000100360002012000010220007e805700f8
:1016200020fd07008c06780005003700020120002d
:10163000fe80570009007800c1ff0700f0865600c1
:10164000ef8f5600f9ff3e004461de0000ff2f00df
:101650000091b90002014600fe80570009007800a1
:10166000b7ff07000e00e00004003a000801780010
:101670008a00780009007800b1ff07000b007800ad
:101680004f0778004f06be004f05be004f04be0056
:101690002f01b10000000600000005000000050059
:1016a00000000500000178000040eb008080fb0096
:1016b000818040002308210063c278000404e00018
:1016c00003003a003008210060c0780000000600e6
:1016d00092017800934f520004003a003008210034
:1016e00060c078000309e800010037000040e8000e
:1016f000ea4f5000edff360000000600f687470075
:10170000889fbe008a9fbe008c9fbe008e1f7800ff
:1017100080047800010478008305780004067800ce
:101720000000eb00c0b79f008080eb00d1b79f00a6
:10173000e0b79f00f2b79f000008200080bf9f0025
:1017400098007800010078000005eb0001003700e8
:101750000a05e800304178000204e000030032008e
:1017600053c2b300834f5100f9ff3a000a00e00072
:10177000040032000a0178000900780070ff0700b9
:10178000180c45001807780050c2b3009e4f100097
:1017900033013a000e07e8000e0c78001000370005
:1017a000cfb097000100a0000b003700cfb097002a
:1017b0000110a00008003700cfb097000120a00062
:1017c00005003700cfb097000130a00002003700bd
:1017d000cfb097000140a000c1b79f00000ce80007
:1017e0001800780090407800b2c2b30082cf500059
:1017f000f1ff320007003c0002c2b30082cf50006c
:10180000f0ff320032c2b30082cf500007003a002e
:10181000efff3700d2c2b30082cf5000e0ff3200aa
:1018200002c3b30082cf5000e0ff3200a2c2b30077
:1018300082cf50000d003a00000ce8001c80e90047
:10184000000e780010007800e0b79f000000e00074
:101850000f003d00cfb097000100a200c1b79f006c
:101860000000ea00e0b79f0009003700a00207006f
:10187000e0b79f0001003700000ce8001800780076
:101880009000fb000103b100e98f5000faff360021
:101890004fb097000008a300020032000010a10022
:1018a000c0b79f0018007800e1c2b30090cf1000cd
:1018b00016003a008000eb00d1b79f000000e8005e
:1018c000000c7800a1c2b30090cf100006003a00cf
:1018d000000ce8001c80e900000e78001000780081
:1018e000d0b79f000900370081020700d0b79f00e2
:1018f00001003700000ce800180078009000fb00a1
:101900000103b100e98f5000faff360008007800ab
:1019100064ff070080467800180078001000fb0084
:101920009902070091062000810f50003800320014
:1019300012003c0041062000810f500034003200ac
:101940000a003c0011062000810f500020003200e8
:1019500031062000810f50009a0032005102200011
:10196000810f5000ae003a00a7003700710620003a
:10197000810f5000aa003c008200370001072000c0
:10198000810f50005c00320007003c00e10620009f
:10199000810f500074003200f1062000810f5000ca
:1019a0009f003a003900370051072000810f500096
:1019b0002700320081072000810f500042003200d2
:1019c00031072000810f500095003a008500370054
:1019d0008d80fb000c01780000fe2f000f004000fe
:1019e000770207000000e0009c0032001800780039
:1019f000000ce8009041780002fe2f000f0141002a
:101a0000f88057000900780024ff07000e00370017
:101a10008d80fb008c0178001200200000fe2f005a
:101a20000f004000850207000000e0008b0032003c
:101a3000180ce80002fe2f000f014100f88057004b
:101a400009007800abfc0700000545008400370062
:101a50008d80fb008c0178000001eb0000fe2f0060
:101a60000f004000750207000000e0007b0032001c
:101a7000180ce80002fe2f000f014100f88057000b
:101a800009007800a5fd0700efff37008d80fb00ff
:101a90008c0178000001eb0000fe2f000f004000d9
:101aa000660207000000e0006c003200180ce8003d
:101ab00002fe2f000f014100f88057000900780056
:101ac000e5fc0700e0ff37008d80fb008c0178000b
:101ad0000001eb0000fe2f000f004000570207003e
:101ae0000000e0005d00320018007800000ce80003
:101af00090417800160037008c0178000001eb005f
:101b0000010f200000fe2f000f0040004b020700d5
:101b10000000e00051003200180ce8000fb0970000
:101b20009fb097002fb19700bfb19700e00f500012
:101b3000e08f5800e00f5900e08f590003003a0091
:101b40008001eb00c20721004000370083c7b300cb
:101b500002fe2f000f014100f880570009007800b5
:101b600097fd0700b8ff37000b0145008d80fb0093
:101b70008c01780000fe2f000f0040008802070053
:101b8000360037008d80fb000c01780000fe2f002e
:101b90000f0040000a0207000000e0002f003200a2
:101ba00018007800000ce8009041780002fe2f0039
:101bb0000f014100f880570009007800b7fe0700c8
:101bc000a1ff370000c8b30080cf560023003a00c1
:101bd000180ce8001c80e900000e78001040780026
:101be0000d00370000c8b30080cf56001b003a003c
:101bf000180ce8001c80e900000e78008001eb0062
:101c0000100178001100370001c8b30081cf5600e1
:101c100012003a00180ce800e0df9f0008003700cf
:101c200050c2b300e0df9f000e0c78000000eb0014
:101c3000c0b79f00e0b79f008080eb00d1b79f0046
:101c400013002000e2fd2f000f014100f880570033
:101c500009007800b5fc07007bff3700180ce8008e
:101c60000a0078004f0778004f06be004f05be00ff
:101c70004f04be006f01b100000006008200fa00b0
:101c8000889fbe008a1f78000005780082047800d3
:101c9000c13f9f000004eb001000370009027800ec
:101ca00088017800a2f72f000f01410081f72f0073
:101cb0008f8040000a00780090fe07000800400076
:101cc000880f500004003d00b0042000908588007b
:101cd0000084eb0004003700000478004f389700c0
:101ce0001004e000edff3a00080078004f0578008e
:101cf0004f04be000080fa0000000600889fbe006e
:101d00008a1f780000047800010578000000eb00cd
:101d10000800e0001a003200180090000058a300ec
:101d20000c003200ea04440068009000990f100093
:101d300008003600b80990000001eb00820078002e
:101d400008007800030001000080eb001900e000ab
:101d50000b003200740044000008eb006c004400eb
:101d60000008eb006a0044000008eb000000eb00f4
:101d70000a00e000020032001800780016fb07009d
:101d80004f0578004f04be0000000600889fbe008b
:101d90008a1f78000004be000000eb000800e0008d
:101da00029003200180090000058a30012003200f1
:101db0006a054400680090009a0f10000800360081
:101dc000b80990000001eb0082007800080078005c
:101dd000030001000080eb001a00e0001a0032004e
:101de000740044000008eb006c0044000008eb00a5
:101df0006a0044000008eb00780a90000810900088
:101e0000800f520006003100000252001100200035
:101e1000cfa2de00612bb90018007800dffa0700be
:101e200000022000080040000008eb007e00440093
:101e30000008eb000000eb000900e00002003200a7
:101e400018007800e4fa07004f0578004f04be0040
:101e500000000600889fbe008a1f7800800478007a
:101e600001057800090078007f0007000004780071
:101e70008a0178000801780011002000090078002c
:101e80000a000700800078000080eb00888f500077
:101e900001003a000000eb004f0578004f04be003f
:101ea0000000060010007800d7fa3700889fbe00b7
:101eb0008a9fbe00810478000204780009c5b90039
:101ec0000900e00001003a000004eb000a0178007c
:101ed000800078000300780097fd070080007800fc
:101ee0008a8f500003003200110009008980d80059
:101ef00000047800080078004f05be004f04be00c3
:101f0000000006008001780002003700b159780017
:101f10000201e9000200e000fcff3a0000000600b8
:101f20000200fa000001780001007800e2ff9f0043
:101f3000900090000188a30006003200ea014000f2
:101f400093007800825878000280fb0081097800b5
:101f500009003700120020008f80e90076fd07009d
:101f6000800078000080eb000100e00002003200f9
:101f7000eff897000180fb000080fa0000000600e7
:101f8000e7ff37002000fa00889fbe000004be0073
:101f9000994078000104e0000300320019409000ed
:101fa0000004e00004003a008100fb000800780013
:101fb0008b00070028003700020220008000eb00a1
:101fc000c0fd2f000f004000b6fa0700194078004e
:101fd0000004e00002003a00880078000e0037009c
:101fe0008904e8000080fb00c400de006f00600090
:101ff000120020000010dd0081804000c2fd2f0093
:102000000f0141008100410011007000800878003c
:10201000eeff3a00f0ff3700010078001141780030
:102020000204e0000c0032008100e8000281fb00a5
:10203000ef016100140020000322dd004411de00e6
:1020400002014100c5fd2f008f824200e5017900a9
:1020500003016200f0ff3200080050004f04be0090
:102060000080fa00000006008000780004003700bd
:102070003104e00002003a000000510000000600b8
:10208000010178000108a300f9ff3a0081017800fe
:1020900031017800f4ef2f00020242000281ea00d1
:1020a000020162000408280004016100f7ff320009
:1020b00083007800010178003104e000fdff3a0060
:1020c00000005100000006002000fa000f01780017
:1020d0000202b1000f0009000019eb0091417800e5
:1020e0000001eb000304e0002c00320011419000dd
:1020f0000204e00005003a00800078000101780049
:10210000b1cf1100fdff32002300370011417800ec
:102110000204e00002003a00800078000e00370060
:102120008100e8000281fb00c411de006f01610044
:10213000140020000221dd008381410004fe2f00f5
:102140000f024200830142001301710082097800ee
:10215000eeff3a00f0ff370001017800914178006e
:102160000304e0000c0032008100e8008381fb00e2
:102170006f82610015002000842add00c419de0092
:102180008381410006fe2f000f0343006682790021
:1021900084816200f0ff3a000001510002007800e3
:1021a0000080fa00000006000200fa00881f780094
:1021b00000047800e2bf9f006481570008007800a7
:1021c000aefe0700980090000148a3000100320015
:1021d0000080eb004f0478000080fa000000060049
:1021e000881f7800000478008180fb000a003a0014
:1021f000080078009cff0700000044002200370020
:102200001804e000200032000804e8001081fb0000
:10221000810f51001c003200080078000808a3005c
:10222000f7ff3a0014102000048ab9000801780072
:1022300038007800f5ef2f00808242008081ea00ac
:1022400083826200030828008382620007003a004c
:1022500000006a00f5ef2f00808242000080ea0053
:102260000080620083016000f0ff3200020078000d
:102270001204e000040032000201e8009081fb003b
:10228000818f5100f9ff3a004f04780000000600ea
:10229000d18080009100780039ff370081017800fb
:1022a0000002780030417800b14f510002003a003e
:1022b0000204e000f9ff3a009480fb001380fb0069
:1022c0000080500000000600800078001000200010
:1022d00002022000828f500004003200e98050008a
:1022e000e48f5000010036000000eb000000060003
:1022f000889fbe008a1f7800800478000904780057
:1023000088047800394578000a00fb00eeff0700da
:102310000000e000f9ff3a00b0c2b300804f550062
:1023200005003200d0c2b3008000eb00804f5500a2
:1023300005003a00020037008000eb000100370082
:10234000110020000804e8000000eb000300370043
:102350006a02b900020052000003b0003801fb001d
:1023600003fd2f0082814100e98f5100f8ff360004
:102370000100e00001003a000000ea004f0578008b
:102380004f04be0000000600f1fb2f0080804000db
:10239000f98f500001003e000050a0000000060030
:1023a000f9ff3700f1f92f0080804000f98f5000cd
:1023b00001003e00f005b20000000600f9ff370002
:1023c000881f78000004780000082000808f5000eb
:1023d0001700350010082000808f50000b003400db
:1023e00030082000808f500011003a0092007800e1
:1023f00068805000000978003002be002003be0053
:10240000049cbe000694be000700370092027800cc
:1024100064805200000978001000be009e00070092
:10242000009cbe000294be00100020000100370096
:102430000000eb004f047800000006008408200034
:10244000848f50001d0032000d003c001408200055
:10245000848f50002700320002003c000408200056
:102460000400370024082000848f50002a00320026
:1024700044082000848f500048003a003b00370099
:10248000040a2000848f50002c00320004003c001d
:1024900004092000848f500040003a002d003700ce
:1024a000020c2000828f50001e003200020f20001c
:1024b000828f500039003a00300037009380e900e5
:1024c0000200e00005003200810978001102fb00e3
:1024d000cfa2de00612bb9002d0037008109780002
:1024e000114278000482fb008002eb006033b800e8
:1024f0002700370013027800e40052000200e000d9
:102500000a003200810978001102be004fabde00e4
:10251000860378001e00370093027800e88052009e
:102520000e00370093027800e480520081097800a1
:102530001102be006033b800150037009380e90037
:102540008109780011027800cfa2de00612bb9006a
:102550000f00370013037800e8005300810978006a
:102560003102be002103be00090037009380e9005c
:102570000200e00002003200f1ff37009380e90022
:1025800081097800110278008002eb006033b80006
:102590000498be000690be00100005000000050073
:1025a00044082000848f5000270032000a003c00bd
:1025b00014082000848f50001c00320024082000e2
:1025c000848f50002600320004082000848f5000c1
:1025d0002c003a001c00370004092000848f5000b2
:1025e0001f00320004003c0084082000848f50004b
:1025f00024003a0007003700040a2000848f5000ae
:1026000011003200040c2000848f50001d003a009d
:10261000060037009380e900810978009100780076
:102620000108780082487800150037009380e9009f
:10263000810978009100780001087800cf91de00d0
:102640008288be000e0037009380e900810978007f
:1026500091007800010878008208780008003700af
:102660009380e900810978009100780001087800e2
:102670006112b900612bb9008498be008690be003b
:1026800010000500000005000000060078f90700b2
:10269000fdff0700fcff3700810378001d000700e5
:1026a0000001be006000b8000478a30013003a00e7
:1026b0006220e10015003e000d0039008301d100c9
:1026c0000281d3008180d3008301d1000281d30035
:1026d0008180d3008301d1000281d3008180d300a7
:1026e0000538b000c42add00f300b2008381720017
:1026f00007f0a70003f0a0000000060083ff2700fa
:10270000020020006110b900f9ff370003ff270025
:10271000f7ff3700c70ade00f107b200f50fb2007d
:1027200008003200e1cf4200020032000170a00038
:1027300024000500810f700001003200040805002c
:1027400044000500810f700002003a0014000500eb
:102750008502e9000000400081c04800fcff3b000a
:102760000170a00024000500020ab900001bb90096
:102770000200b80081004200810043000000060012
:1027800000c0da000000060000c0da000000060009
:10279000889fbe008a9fbe0030044200b0844a0079
:1027a00030054b0090854b006000b1000898be00da
:1027b0000a90be000440e10005c8e10006d0e10037
:1027c00007d8e10002003100680040001008e8006e
:1027d0004f05be004f04be0000000600889fbe00eb
:1027e0008a9fbe003004be002005be0004185400bd
:1027f00005985c0006185d0007985d001100200038
:102800000440e10005c8e10006d0e10007d8e1007e
:10281000010039008000eb00108810004f05be0059
:102820004f04be0000000600f4874700889fbe00ea
:102830008a9fbe008c9fbe008e1f7800d0b79f007d
:10284000e1b79f00f2b79f0083bf9f000605be005f
:102850000404be00cfae97000000eb00c0b79f009d
:10286000b0b79f00a0b79f0090b79f0080b79f00b0
:10287000000678004fb09700000140000000e00023
:1028800006003d003c0007000f0747004500070019
:102890000f004000beff07000500370036000700ac
:1028a0000f0747003f0007000f004000cbff070065
:1028b0004fb797000e00e0000c0035005fb29700a4
:1028c000efb297007fb397008fbb970010002000f6
:1028d000010020006011b8000002720081827200c5
:1028e00002037300838373001c0007000c06e800da
:1028f00001042000810f5600deff3a000e00e000c8
:1029000005003d000802be000a03be0000fe2f00c5
:102910000f0040009eff07000d00e00005003a0098
:102920000fb297009fb297002fb39700bfb39700e5
:102930000a0007005fb09700efb097007fb19700e3
:102940008fb997004f0778004f06be004f05be00b5
:102950004f04be004f01b100000006000100070057
:102960000000060094b79f00a5b79f00b6b79f0070
:10297000c7b79f00000006009fb097004f08de0019
:1029800002017000a2b79f000fb097004f01de0058
:10299000818040008100710091b79f000efe2f00e2
:1029a00000000600de0078004f09de000000400055
:1029b0000000710080b79f006fa897004f01de00f4
:1029c00081804000010f71000e0007004f3ade00c9
:1029d0000000400004007000e0af9f000900070005
:1029e0000402420085824a0006034b0087834b00a5
:1029f000dcff07000802be000a03be0000fe2f0035
:102a0000000006001fb29700afb297003fb39700d7
:102a1000cfb3970000000600881f78001800200040
:102a2000881f780080ff07008f87e9004f04780037
:102a300000000600801feb007bff07008f87e90086
:102a400000000600889fbe008a9fbe00e00f500075
:102a5000e08f5800e00f5900e08f59000c003d0056
:102a60006044b8006055b8000000540081805c00ec
:102a700002015d0083815d00180020001500070041
:102a800008003d00180007000004eb0005003700b7
:102a90000004eb000f00070002003d0012000700d9
:102aa00018002000dcff07000800e00006003200ec
:102ab0006022b8006033b8000000520081805a00e4
:102ac00002015b0083815b004f05be004f04be0026
:102ad00000000600e00f5200e08f5a00e00f5b009c
:102ae000e08f5b00000006006044b8006055b8004d
:102af0000402540085825c0006035d0087835d004c
:102b000000000600889fbe008a9fbe008c1f7800d0
:102b1000e00f5000e08f5800e00f5900e08f59009f
:102b20000d003d006044b8006055b800000054003e
:102b300081805c0002015d0083815d001c0020003b
:102b40000820e10009a8e1000ab0e1000bb8e100ab
:102b50000d003d00080037000006eb00e00f5200ba
:102b6000e08f5a00e00f5b00e08f5b0006003d0045
:102b70006044b8006055b8000402540085825c00cf
:102b800006035d0087835d00aaff07000c00e000dc
:102b9000060032006022b8006033b8000000520026
:102ba00081805a0002015b0083815b004f06780040
:0c2bb0004f05be004f04be0000000600f0
:020000040000fa
:102bbc00536500006e640000696e00006720000021
:102bcc0041540000206300006f6e00006e65000031
:102bdc0063740000207400006f200000415000005e
:102bec0049200000636f00006d6d0000616e0000f5
:102bfc00642e00002e0d0000000a0000005300009f
:102c0c00656e0000646900006e67000020410000e2
:102c1c0054200000736900007a650000206f0000ea
:102c2c00662000006d73000067200000636f0000d9
:102c3c006d6d0000616e0000642e00002e0d000012
:102c4c0000530000656e0000646900006e670000b0
:102c5c002047000045540000206300006f6d000009
:102c6c006d6100006e640000203100002e2e00000b
:102c7c000d000000536500006e640000696e0000da
:102c8c00672000004745000054200000636f0000df
:102c9c006d6d0000616e000064200000322e00009b
:102cac002e0d000000220000000d00000a000000a4
:102cbc00415400002b4300004950000053540000c5
:102ccc0041520000543d00002254000043500000cb
:102cdc00222c000022360000352e0000313000007e
:102cec00392e000031340000332e00003734000040
:102cfc00222c000038300000383000000d0a000093
:102d0c0000410000542b00004349000050530000c8
:102d1c00454e0000443d0000353300000d0a000014
:102d2c000047000045540000202f0000746900008b
:102d3c006d6500002048000054540000502f000026
:102d4c00312e0000300d00000a4800006f730000a7
:102d5c00743a000020360000352e0000313000009f
:102d6c00392e000031340000332e000037340000bf
:102d7c000d0a00000d0a00000d0a00000000000002
:102d8c000000000000000000000000000000000037
:102d9c000000000000000000000000000000000027
:102dac000000000000000000000000000000000017
:102dbc000000000000000000000000000000000007
:102dcc0000000000000000000000000000000000f7
:102ddc0000000000000000000000000000000000e7
:102dec0000000000000000000000000000000000d7
:102dfc0000000000000000000000000000000000c7
:102e0c0000000000000000000000000000000000b6
:102e1c0000000000000000000000000000000000a6
:102e2c000000000000000000000000000000000096
:102e3c000000000000000000000000000000000086
:102e4c000000000000000000000000000000000076
:102e5c000000000000000000000000000000000066
:102e6c000000000000000000000000000000000056
:102e7c000000000000000000000000000043000003
:102e8c004f4e00004e45000043540000004f000020
:102e9c0000410000542b0000434900005053000037
:102eac005441000054550000530d00000a0000006e
:102ebc0047450000542000002f7000006572000090
:102ecc00696f0000642f0000257500002048000089
:102edc0054540000502f0000312e0000300d000023
:102eec000a4800006f730000743a0000203600009e
:102efc00352e000031300000392e00003134000036
:102f0c00332e0000373400000d0a00000d0a0000bb
:102f1c000d0a000000530000656e0000646900009b
:102f2c006e670000204300006f6e00006e650000ad
:102f3c0063740000206300006f6d00006d61000081
:102f4c006e640000202e00002e0d000000530000c7
:102f5c00656e0000646900006e670000205300007d
:102f6c00697a000065200000636f00006d6d000041
:102f7c00616e0000642000002e2e00000d00000089
:102f8c00415400002b430000495000005345000001
:102f9c004e4400003d350000390d00000a000000d1
:020000040000fa
:102fac004803fa00124020008000eb0080812000d2
:102fbc00b9f607006102200081004700e265290094
:102fcc0028000900b2587800f10420008100470065
:102fdc00726829000f000900b2587800f105200032
:102fec0081004700726929002d000900b258780051
:102ffc0070090700e05d29000af707000000eb00ec
:10300c00000f780006003700600220000e00400020
:10301c001e004000104078008c0307001e0fe800d3
:10302c00800220009e007800808f5000f6ff360052
:10303c0040062000f5080700516c2900d00820003c
:10304c000e00400011487800616c2900e008200057
:10305c000e004000114878008e007800f108b00096
:10306c007d0009008058eb008000eb000e80e8002a
:10307c000108780010003700808120008e80e80065
:10308c00910078000100400090407800d0082000aa
:10309c000e0040000e81e800120178000200400092
:1030ac00014878000e80e800100078008000e800ed
:1030bc000e80e800010878000e80e800900078008f
:1030cc00f0072000808f5000ebff3400d008200068
:1030dc000e00400031602900e6f607008000780001
:1030ec007a00470001087800316029000000eb00ed
:1030fc00e0f60700800078007a00470001087800ad
:10310c00d21020000201470051742900060009006a
:10311c0031597800401120000e00400012c42400e8
:10312c00235524000288be00640040001144240092
:10313c00010878000080e80091c5b30001487800d0
:10314c000000e8008000eb006400470001087800f4
:10315c001100370064004700900078007a004700a7
:10316c00100078000100400090407800b011200061
:10317c000e0040006401470012017800020040007c
:10318c000148780064004700100078008000e800d7
:10319c0064004700010878006400470010007800c4
:1031ac00e60f5000ebff36008000eb007c00470080
:1031bc0001087800411120008e804000d0102000c2
:1031cc000e00400032fc0700800078007e004700b3
:1031dc00010878008000eb00000220000e00400087
:1031ec00010878007c004700100078000000e00027
:1031fc000d003a007e004700100078000000e0004f
:10320c0009003a0061002000200220000e0040005e
:10321c0001087800200220000e0040001000780009
:10322c0075060700af013700e2080700506029005f
:10323c007cf607008000eb00660047000108780070
:10324c000c003700f00420000e004000e6004700a0
:10325c00910078000100400010407800fb0207004c
:10326c0066004700100078008000e8006600470008
:10327c00010878006600470010007800ef0f50003e
:10328c00f0ff3600cb080700400620005f0807005f
:10329c007062290063f607008000eb0068004700ad
:1032ac00010878000c003700f00520000e004000eb
:1032bc00e8004700910078000100400010407800c1
:1032cc00e202070068004700100078008000e80068
:1032dc0068004700010878006800470090007800fb
:1032ec00d0022000808f5000efff3600b10807009d
:1032fc0040062000450807000064290049f6070035
:10330c008000eb006a004700010878000c003700d1
:10331c00f00520000e004000ea0047009100780004
:10332c000100400010407800c80207006a00470006
:10333c00100078008000e8006a004700010878005f
:10334c006a00470090007800d0022000808f500067
:10335c00efff3600803e20002c0807008000eb00b9
:10336c006c00470001087800100037006c00470023
:10337c009000780080812000008040009040780010
:10338c00201220000e0040006c0147001201780052
:10339c0002004000014878006c00470010007800e3
:1033ac008000e8006c004700010878006c004700c2
:1033bc0090007800f01f2000808f5000ebff36004b
:1033cc007c080700201220000e00400091652900a7
:1033dc0028f60700800078007a0047000108780082
:1033ec00916529000000eb0022f6070080007800b0
:1033fc007a00470001087800b065290009f607003b
:10340c008000eb006e0047000108780011003700c7
:10341c006e004700900078007a004700100078009a
:10342c000100400090407800203220000e00400047
:10343c006e0147001201780002004000014878003c
:10344c006e004700100078008000e8006e00470016
:10345c00010878006e00470010007800e30f500060
:10346c00ebff34008000eb0070004700010878008f
:10347c001200370070004700100078006500400013
:10348c00fa004700910078000080400090407800de
:10349c00603220000e0040007001470012017800dd
:1034ac0002004000014878007000470010007800ce
:1034bc008000e800700047000108780070004700a9
:1034cc0010007800e10f5000eaff34008000eb00a0
:1034dc0072004700010878001200370072004700a4
:1034ec001000780068004000fa0047009100780056
:1034fc000080400090407800803220000e00400098
:10350c007201470012017800020040000148780067
:10351c0072004700100078008000e800720047003d
:10352c00010878007200470010007800e10f50008d
:10353c00eaff34008000eb007400470001087800bb
:10354c001200370074004700100078006b00400038
:10355c00fa0047009100780000804000904078000d
:10356c00a03220000e0040007401470012017800c8
:10357c0002004000014878007400470010007800f9
:10358c008000e800740047000108780074004700d0
:10359c0010007800e10f5000eaff34008000eb00cf
:1035ac0076004700010878001200370076004700cb
:1035bc00100078006e004000fa004700910078007f
:1035cc000080400090407800c03220000e00400087
:1035dc007601470012017800020040000148780093
:1035ec0076004700100078008000e8007600470065
:1035fc00010878007600470010007800e10f5000b9
:10360c00eaff34008000eb007800470001087800e6
:10361c00120037007800470010007800710040005d
:10362c00fa0047009100780000804000904078003c
:10363c00e03220000e0040007801470012017800b3
:10364c000200400001487800780047001000780024
:10365c008000e800780047000108780078004700f7
:10366c0010007800e10f5000eaff340020322000f7
:10367c000e0040000000e800104078008000fb00c5
:10368c00400620000088b90000017800203220009c
:10369c000e004000104078000000fb0001fd2f00e0
:1036ac0080804000803e20000088b9000000780037
:1036bc008000410000d42e00008140002032200008
:1036cc000e0040000080e800104078000000fb0075
:1036dc006a00b90000007800001eb10080004100b3
:1036ec00203220000e0040006300400010407800a3
:1036fc000000fb000003b1008080400040892f00d7
:10370c0080804000003320000e0040006a00400022
:10371c0001087800603220000e0040001040780054
:10372c000000fb006a00b9000000780001e22f00e5
:10373c0080804000603220000e0040000000e80055
:10374c00104078000000fb000080400001fd2f00bd
:10375c0080804000003320000e00400068004000d4
:10376c0001087800803220000e00400010407800e4
:10377c000000fb006a00b9000000780001e22f0095
:10378c0080804000803220000e0040000000e800e5
:10379c00104078000000fb000080400001fd2f006d
:1037ac0080804000003320000e0040006600400086
:1037bc0001087800a03220000e0040001040780074
:1037cc000000fb006a00b9000000780001e22f0045
:1037dc0080804000a03220000e0040000000e80075
:1037ec00104078000000fb000080400021fd2f00fd
:1037fc0080804000003320000e0040006400400038
:10380c0001087800c03220000e0040001040780003
:10381c000000fb006a00b9000000780001e22f00f4
:10382c0080804000c03220000e0040000000e80004
:10383c00104078000000fb000080400001fd2f00cc
:10384c0080804000003320000e0040000080e80023
:10385c0001087800e03220000e0040001040780093
:10386c000000fb006a00b9000000780001e22f00a4
:10387c0080804000e03220000e0040000000e80094
:10388c00104078000000fb000080400001fd2f007c
:10389c0080804000003320000e00400001087800ba
:1038ac00003320000e004000110020006c0040008e
:1038bc0001087800003320000e00400011002000a9
:1038cc006e00400001087800003320000e0040001c
:1038dc00380307008000eb00400220000e0040007f
:1038ec00010878000080fa00000006001a01fa00b6
:1038fc0030070700ea004700f27429000e000900a7
:10390c00b25878000000eb00000f7800050037007b
:10391c006a0047001e004000104078004b01070071
:10392c001e0fe8001e007800ee0f5000f8ff360066
:10393c00a00f2000b50607008000eb000e80e80009
:10394c00010878000f0037000e80e8009000780026
:10395c008081200000804000904078007900470072
:10396c000e81e80012017800020040000148780046
:10397c000e80e800100078008000e8000e80e8005f
:10398c00010878000e80e80090007800f00f20000d
:10399c00808f5000ecff360079004700d17429006d
:1039ac00b4f4070080007800640047000108780038
:1039bc00d17429000000eb00aef407008000780001
:1039cc0064004700010878001700370064004700c6
:1039dc0010007800104078008000fb006600470063
:1039ec00010878008000eb006800470001087800af
:1039fc00640047001000780090407800b0c4b30019
:103a0c0080cf500002003a0010c0b3000b0037000a
:103a1c00d17429000000eb0096f4070080007800b8
:103a2c00640047000108780064004700100078002b
:103a3c000000e000e5ff3a000040eb000080fa00d7
:103a4c00000006009202fa00610520008100470088
:103a5c00e265290028000900b2587800f10720001f
:103a6c0081004700627c29000f000900b2587800e1
:103a7c0002070700800078006a0047000108780000
:103a8c006a0047001000780080407800f0082000a1
:103a9c000e004000014878006a00470010007800d2
:103aac004800de0080407800000920000e00400035
:103abc00014878006c004700f10820008e8040001f
:103acc00114878006c004700104078008080fb00a3
:103adc0070004700811f7800e1752900811f780074
:103aec0061042000e1f30700e487570010792900f6
:103afc004cf407000000eb00000f780006003700c4
:103b0c00600520000e0040001e00400010407800b0
:103b1c00ce0007001e0fe800800220009e007800f7
:103b2c00808f5000f6ff3600400620003706070055
:103b3c00d07a29003bf407008000eb000e80e800ef
:103b4c00010878000c003700f00720000e00400040
:103b5c008e80e80091007800010040001040780051
:103b6c00ba0007000e80e800100078008000e80022
:103b7c000e80e800010878000e80e8001000780044
:103b8c00ef0f5000f0ff3600400620001f06070024
:103b9c00880607007062290022f407008000eb0001
:103bac0064004700010878000b00370070004700e4
:103bbc00e4004700910078000100400010407800bc
:103bcc00a200070064004700100078008000e800a5
:103bdc0064004700010878006400470090007800fa
:103bec0050042000808f5000f0ff3600400620006b
:103bfc0006060700006429000af407008000eb00a9
:103c0c0066004700010878000b0037007000470081
:103c1c00e600470091007800010040001040780059
:103c2c008a00070066004700100078008000e8005a
:103c3c006600470001087800660047009000780095
:103c4c0050042000808f5000f0ff3600803e200092
:103c5c00ee050700516c2900100920000e004000f1
:103c6c0011487800616c2900200920000e004000ea
:103c7c00114878008e0078003109b000fd01090070
:103c8c008058eb008000eb006800470001087800ca
:103c9c001000370080812000e80047009100780078
:103cac000100400090407800100920000e004000f8
:103cbc0068014700120178000200400001487800ba
:103ccc0068004700100078008000e800680047009a
:103cdc00010878006800470090007800f01f200071
:103cec00808f5000ebff34008000eb006e0047002b
:103cfc00010878000080fa00000006000000fa00bd
:103d0c009580a9009560a9008000200000288800fb
:103d1c000225ef0020022000402888000a25ef0031
:103d2c000c25ef000e25ef001025ef001225ef00fb
:103d3c001425ef0080092100304088008009210003
:103d4c0020408800100a210010408800100a210031
:103d5c00004088000868ef00c0ed21000700070054
:103d6c00a0ef2100140007009560a80001e5a80051
:103d7c000345a8000080fa00000006000200fa00cb
:103d8c00000f78001e0078000000e00003003a00ed
:103d9c00c0ed210050408800020037009e007800e2
:103dac00514088000080fa00000006000000fa0074
:103dbc000080fa00000006000200fa00000f7800f4
:103dcc001e0078000000e00003003a00a0ef210084
:103ddc0060408800020037009e0078006140880037
:103dec000080fa00000006000000fa000080fa00d3
:103dfc00000006000200fa000040eb00004f7800c3
:103e0c00000000001140800000408000808f5000b6
:103e1c00fcff320010408000104f780010408000f2
:103e2c000000e8001040880011408000a00a21002a
:103e3c00808f500002003a00100a210010408800c8
:103e4c001e4078000080fa00000006000200fa0014
:103e5c00004f7800000000001c0007000004a200c6
:103e6c000004e000fcff3a00204080001e4878006f
:103e7c00204080000000e8002040880021408000a5
:103e8c00100a2100808f500002003a0080092100a6
:103e9c00204088009580a8000080fa0000000600f1
:103eac000000fa0011408000004080000080680093
:103ebc0000f0a7000000ea000000ea004f00de005e
:103ecc00004078000080fa00000006000400fa00b0
:103edc000e80e8003140800001087800214080000d
:103eec000e80e80010007800808f50000700310031
:103efc000e80e80090007800204080000080500088
:103f0c000000e900000f7800060037000e80e80082
:103f1c009000780020408000008050006800400035
:103f2c00000f78001e00780000f0a7000000ea00e7
:103f3c000000ea004f00de00004078000080fa002c
:103f4c00000006000000fa00214080003040800094
:103f5c00808f500009003a001128800000102000ca
:103f6c000080600000f0a7000000ea000000ea00fa
:103f7c004f00de0000407800010037000040eb00ed
:103f8c000080fa00000006000400fa000e80e80031
:103f9c000140800001087800114080000e80e8008c
:103fac0010007800810f5000070031000e80e800ef
:103fbc0090007800104080000080500069004000a4
:103fcc00000f7800040037000e80e80090007800a5
:103fdc0010408000008f5000f00f20009e007800f1
:103fec00808f50000200360000c0eb00020037004a
:103ffc001e007800004078000080fa0000000600e7
:10400c000400fa000e80e8003140800001087800be
:10401c00214080000e80e80010007800808f500056
:10402c00070031000e80e8009000780020408000ee
:10403c00008050000000e900000f780006003700f7
:10404c000e80e80090007800204080000080500036
:10405c0068004000000f7800f00f20009e007800f0
:10406c00808f50000200360000c0eb0002003700c9
:10407c001e007800004078000080fa000000060066
:10408c000800fa0064014700000978006600470048
:10409c0001087800bcff07000080fb00000f7800cf
:1040ac0066004700100078009e0f5000020031009f
:1040bc0066004700100f78008000eb000e80e800cf
:1040cc00010878000e0037004aff0700e4004700a3
:1040dc009100780080487800640047001000780058
:1040ec008000e80064004700010878000e80e800ba
:1040fc00100078008000e8000e80e80001087800cd
:10410c000e80e800100078009e0f5000eeff390082
:10411c001e0078000080fa00000006000800fa007b
:10412c006401470000097800660047000108780028
:10413c00b3ff07000080fb00000f7800660047000b
:10414c00100078009e0f50000200310066004700fe
:10415c00100f78008000eb000e80e800010878005a
:10416c000e00370064004700100078001040780003
:10417c00e4004700910078000101e800e4004700ea
:10418c008208780031ff07000e80e80010007800ec
:10419c008000e8000e80e800010878000e80e8003e
:1041ac00100078009e0f5000eeff39001e007800c2
:1041bc000080fa00000006000400fa000000eb008a
:1041cc00000f780070ff07008e80e80080487800b0
:1041dc008bff0700e3004700804878000e80e80062
:1041ec00104078000080fb000000e000030032006b
:1041fc00e90f500003003200040037001e20a0001d
:10420c00040037001e00a000020037001e10a000a2
:10421c000000000063004700104078000080fb00a5
:10422c000000e00003003200e90f500003003200f0
:10423c00040037001e30a000020037001e40a00012
:10424c00000000001e0078000080fa00000006004c
:10425c000400fa008e80e80080087800114080008d
:10426c000e80e80010007800008f4000020037003c
:10427c009e007800698f5000a00a21009e007800f3
:10428c00808f5000faff3e001e007800104078002e
:10429c000080fa00000006000000fa003aff070058
:1042ac000080fb000000e9004f00de0000407800b9
:1042bc000080fa00000006000000fa0050ff070022
:1042cc000080fb000000e9004f00de000040780099
:1042dc000080fa00000006000000fa0010288000a0
:1042ec000080fa00000006000000fa0044ff0700fe
:1042fc000004e000100032003140800020408000bb
:10430c00808f50000600360030408000800078001e
:10431c0020408000008050000000e90007003700ba
:10432c0030408000800078002040800000805000e9
:10433c0068004000010037000000eb000080fa002c
:10434c00000006000000fa000fff07000004e00068
:10435c00100032001140800000408000808f50001f
:10436c00060036001040800080007800004080007d
:10437c00008050000000e90007003700104080006a
:10438c0080007800004080000080500068004000f1
:10439c00010037000000eb000080fa00000006006e
:1043ac000000fa0001e5a8000345a8000080fa000f
:1043bc00000006000000fa0001e5a9000345a90071
:1043cc000080fa00000006000000fa0050052000f2
:1043dc00303b8800a00a2000303b880025a1a800b3
:1043ec0025e1a9001c0007000004a2000004e00065
:1043fc000c00320021098000003020000100700008
:10440c00200988003002200010098800304020006c
:10441c001009880040112000100988005015220056
:10442c00100988002621ef0025e1a80025a1a9008c
:10443c009bc0a8000080fa00000006000200fa00f1
:10444c00004f78001e4178002181200082487800be
:10445c000080fa00000006000000fa0012c8bf003d
:10446c000080fa00000006000400fa008e80e800cc
:10447c008008780021098000000021000080600085
:10448c000000e000020032000040eb004700370063
:10449c0021098000003020000100700020098800f4
:1044ac0011098000010f78001e0078000040780090
:1044bc001a0107008080fb000e80e80010007800d5
:1044cc006a0040000108780011098000010f780093
:1044dc001e0078004800de00004078000f01070045
:1044ec008080fb000e80e80010007800680040001f
:1044fc00010878001e0078000040780007010700d2
:10450c008080fb000e80e800100078006600400000
:10451c000108780011098000010f78001e00780056
:10452c004800de0000407800fc0007008080fb00a3
:10453c000e80e800100078006c0040000108780044
:10454c001e00780000407800f40007008080fb001b
:10455c000e80e8001000780064004000010878002c
:10456c0011098000010f78001e0078004800de0061
:10457c0000407800e90007008080fb000e80e80016
:10458c00100078000080e800010878001e00780018
:10459c0000407800e10007008080fb000e80e800fe
:1045ac00100078000108780010c0b3000080fa00f9
:1045bc00000006000200fa00881f7800000f780047
:1045cc0051052000313b8800a10a2000313b8800b6
:1045dc0025a1a80025e1a9008bc0a9009bc0a900ba
:1045ec0021098000003020000100700020098800a3
:1045fc001e0078006a00400010007800004078002f
:10460c00ac0007000080fb00100988001e00780039
:10461c00680040001000780000407800a5000700fa
:10462c000080fb004804dd001e007800660040009e
:10463c0010007800004078009e0007000080fb000e
:10464c0008007000100988001e0078006c00400003
:10465c001000780000407800960007000080fb00f6
:10466c004804dd001e007800640040001000780053
:10467c00004078008f0007000080fb0008007000ed
:10468c00100988001e0078000080e80010007800f7
:10469c0000407800870007000080fb004804dd0024
:1046ac001e007800100078000040780081000700a0
:1046bc000080fb00080070001009880025e1a800ac
:1046cc0025a1a9009bc0a8004f0478000080fa0027
:1046dc00000006000400fa008e80e80080087800d4
:1046ec002109800000002100008060000000e00033
:1046fc00020032000040eb003b0037002109800033
:10470c000030200001007000200988001109800091
:10471c00010f78009e0078000e80e80010007800f1
:10472c006a0040000108780011098000010f780030
:10473c001e0078004800de00800078000e80e80043
:10474c001000780068004000010878009e00780096
:10475c00f00f2000808060000e80e80010007800d0
:10476c00660040000108780011098000010f7800f4
:10477c001e0078004800de00800078000e80e80003
:10478c00100078006c004000010878009e00780052
:10479c00f00f2000808060000e80e8001000780090
:1047ac00640040000108780011098000010f7800b6
:1047bc001e0078004800de00800078000e80e800c3
:1047cc00100078000080e800010878009e00780056
:1047dc00f00f2000808060000e80e8001000780050
:1047ec000108780010c0b3000080fa000000060039
:1047fc000200fa00000f780051052000313b8800c0
:10480c00a10a2000313b880025a1a80025e1a900c0
:10481c008bc0a9009bc0a90021098000003020009a
:10482c0001007000200988001e0078006a0040001a
:10483c0010007800100988001e0078006800400005
:10484c00100078004800dd009e007800e6804000f3
:10485c009100780000807000100988001e0078001c
:10486c006c004000100078004800dd009e007800cd
:10487c00e4804000910078000080700010098800ee
:10488c001e0078000080e800100078004800dd0071
:10489c009e0078009100780000807000100988005c
:1048ac0025e1a80025a1a9009bc0a8000080fa0062
:1048bc00000006000400fa008e80e80080487800b2
:1048cc000e80e800104078008080fb00d0cc2c00db
:1048dc000008b8004308de00004078004400dd000a
:1048ec00004f78000e80e800104078000081fb003b
:1048fc00d0cc2c000010b8004308de006a00b900d0
:10490c000000780000005100004078001e4f70003d
:10491c001e4078000080fa00000006000400fa0037
:10492c008e80e800804878000e80e8001040780007
:10493c000080fb004400de00004078006a00b900f3
:10494c0000007800804078000e80e800104078006d
:10495c006f40600000cf40001e4078000080fa00dd
:10496c00000006000000fa000080fa0000000600bb
:020000040000fa
:10497c000000fe00a20a210000197800010978004d
:10498c00000006000000fe000000eb008000eb00c1
:10499c00f8ff07006627ef00000006000000fe008d
:1049ac00801f7800811f7800a10a21000600fc00fe
:1049bc0031007800303b880011007800303b8800d3
:1049cc0061e7a8000000000000000000cf007800a4
:1049dc004f00780000000600a2028000a1028800af
:1049ec009080ba001000ba00a202880000000600f5
:1049fc00a2028000a10288001000ba00a202880066
:104a0c00000006000000fe0061e7af00feff37006b
:104a1c00f23f2000000161000c003a002204240047
:104a2c00023b8800a2028000a10288000008bb00a3
:104a3c00d62402000000000061e7af00feff370043
:104a4c00a20288001000200061a7af000000200027
:104a5c000000060061e7af00feff37000000a70072
:104a6c000d003700a4028000a10288003100240050
:104a7c00013b88000208bb000388bb00d62402005f
:104a8c000000000061e7af00feff3700a4028800c1
:104a9c001000200061a7af000000200000000600fd
:104aac0061e7af00feff37000000a7000e003700e3
:104abc0033002400033b8800a3028000a10288007d
:104acc000208bb00f20f20000288bb00d6240200b3
:104adc000000000061e7af00feff3700a302880072
:104aec001000200061a7af000000200000000600ad
:104afc0061e7af00feff3700f30720008081610003
:104b0c0010003a0013002400033b8800a30280002d
:104b1c00a1028800040420003208bb003298bb00bc
:104b2c001400b100fcff3a00d62402000000000083
:104b3c0061e7af00feff3700a302880010002000e1
:104b4c0061a7af00000020000000060061e7af0085
:104b5c00feff3700f30720008081610011003a004e
:104b6c0013002400033b8800a3028000a1028800ec
:104b7c0004042000f10f20003208bb000198bb0098
:104b8c001400b100fcff3a00d62402000000000023
:104b9c0061e7af00feff3700a30288001000200081
:104bac0061a7af000000200000000600f23f2000cb
:104bbc00000061000000060002c02f000000610030
:0c4bcc00f2ff2f008100610000000600d5
:020000040000fa
:104bd8000000fa008ba1a9008b81a9008b61a900b4
:104be8008b41a9004d000700500007005300070043
:104bf800560007000080fa00000006000200fa00d4
:104c0800000f780045000700480007004b00070028
:104c18004e0007001e007800e40f50001500320017
:104c2800e40f500005003c000000e0000a003200dc
:104c3800e10f50000b00320020003700e60f500053
:104c480011003200e60f500014003500e70f500045
:104c58001600320019003700280007001428ef005a
:104c6800180037002100070010002000a04088002d
:104c78001400370025000700180007004000200036
:104c8800a04088000f003700200007001700070029
:104c980060002000a04088000a0037000f000700cd
:104ca80050002000a0408800060037000f000700d1
:104cb80070002000a040880002003700c4ff0700f1
:104cc800000000000080fa00000006000000fa0062
:104cd800a04080000080fa00000006000000fa00f2
:104ce8008f61a8000080fa00000006000000fa00aa
:104cf8008f81a8000080fa00000006000000fa007a
:104d08008fa1a8000080fa00000006000000fa0049
:104d18008f41a8000080fa00000006000000fa0099
:104d28008f61a9000080fa00000006000000fa0068
:104d38008f81a9000080fa00000006000000fa0038
:104d48008fa1a9000080fa00000006000000fa0008
:104d58008f41a9000080fa00000006000000fa0058
:104d680080002000b02888001825ef0020022000cd
:104d7800f02888002025ef002225ef002425ef00e9
:104d88002625ef002825ef002a25ef0017e5a800c3
:104d98001945a8000080fa00000006000000fa008b
:104da80000000000c0288000610060000000e000f2
:104db800fcff3200c0288000620060000000e000b4
:104dc800010032001825a900e02880000040780082
:104dd8000080fa00000006000200fa00004f780088
:104de80000000000c1288000002020000080600032
:104df8000000e000fbff3a001e80fb00d02888007e
:104e08000080fa00000006000000fa00c0288000b8
:104e180000407800614060000080fb0000f0a700bf
:104e28000000ea000000ea004f00de0000407800c1
:104e38000080fa00000006000000fa00c128800087
:104e480000202000008060000000e00007003a0019
:104e5800c128800000402000008060000000e000c1
:104e68000200320010002000010037000000eb00b3
:104e7800004078000080fa00000006000000fa00f8
:104e8800c02880004800de00614060000080fb0010
:104e980000f0a7000000ea000000ea004f00de0072
:104ea800004078000080fa00000006000000fa00c8
:104eb800c02880000080fa00000006000000fa0008
:104ec80017e5a8001945a8000080fa0000000600b0
:104ed8000000fa0017e5a9001945a9000080fa00aa
:104ee800000006000000fa004c22ef0030422f00bc
:104ef800701288000003280080128800e00a210050
:104f08008040eb00014878000080fa0000000600ad
:104f18000000fa0020048000680060000000e00043
:104f280009003200f00a2100104078008040e800b3
:104f3800f00a210001487800e00a210011c0b300fe
:104f4800014878008460a9000080fa00000006008b
:104f58000200fa00000f78009e00780071128800a5
:104f6800e00a21008040eb00014878000080fa0048
:104f7800000006000000fa00701280000080fa00ad
:104f8800000006000200fa00000f78009e0078007a
:104f980061128800e00a21008040eb000148780097
:104fa8000080fa00000006000000fa00601280008d
:104fb8000080fa00000006000000fa00e00a210064
:104fc8008040eb000148780051e2a8000080fa0018
:104fd800000006000000fa0051e2a9000080fa0073
:104fe800000006000200fa00e00a2100104f7800d5
:104ff8001e4078000004e00003003200e00a2100af
:105008008040eb00014878001e4078000080fa00dc
:10501800000006000000fa00f00a210010407800a5
:105028000080fb000080fa00000006000000fa0083
:10503800f00a21008040eb00014878000080fa0067
:10504800000006000000fa008421ef008094200090
:10505800700c880070002000000c8800f0eb2f0016
:10506800500c88005620ef005820ef005a20ef001f
:1050780000002100700388007020ef007220ef000c
:105088008621ef009021ef0070002000400c88007e
:10509800c0002300900c880001088000f00b20005d
:1050a80000816000600420007105200003102000ca
:1050b800804978008149780082497800911d8000f4
:1050c80000fc2f00008060007000b300901d880075
:1050d800e11e800000fc2f00008060005000b3003b
:1050e800e01e8800811d800000fc2f000080600009
:1050f8009000b300801d8800f11e800000fc2f0086
:10510800008060003000b300f01e880000088000b6
:10511800000178000260a0006004200071052000f2
:10512800031020008049780081497800824978007e
:105138006380a800a08a2200070007008660a900f3
:105148009660a8000080fa00000006000000fa003f
:105158000080fa00000006000200fa00000f780044
:105168009660a9009e007800714088009660a800ab
:105178000080fa00000006000200fa00000f780024
:105188001e007800f4ff07000080fa000000060007
:020000040000fa
:10519800aa1000000400000082000000ffffff00ca
:1051a800ff0000000e080000020000008000000060
:1051b8005c100000200000008000000010080000c3
