:020000040000fa
:080000000002040000000000f2
:020000040000fa
:04000800ca05000025
:020000040000fa
:04000c0048030000a5
:020000040000fa
:040010008a0300005f
:020000040000fa
:04001400680300007d
:020000040000fa
:04001800aa03000037
:020000040000fa
:04001c00ca05000011
:020000040000fa
:04002000ca0500000d
:020000040000fa
:04002400ca05000009
:020000040000fa
:040028004805000087
:020000040000fa
:04002c00ca05000001
:020000040000fa
:04003000ca050000fd
:020000040000fa
:04003400c004000004
:020000040000fa
:04003800ca050000f5
:020000040000fa
:04003c00ca050000f1
:020000040000fa
:04004000ca050000ed
:020000040000fa
:0400440004050000af
:020000040000fa
:04004800840500002b
:020000040000fa
:04004c00ca050000e1
:020000040000fa
:04005000ca050000dd
:020000040000fa
:040054004404000060
:020000040000fa
:04005800e8030000b9
:020000040000fa
:04005c00ca050000d1
:020000040000fa
:04006000ca050000cd
:020000040000fa
:04006400ca050000c9
:020000040000fa
:04006800ca050000c5
:020000040000fa
:04006c00ca050000c1
:020000040000fa
:04007000ca050000bd
:020000040000fa
:040074003403000051
:020000040000fa
:040078006605000019
:020000040000fa
:04007c00ca050000b1
:020000040000fa
:04008000ca050000ad
:020000040000fa
:04008400ca050000a9
:020000040000fa
:04008800ca050000a5
:020000040000fa
:04008c00ca050000a1
:020000040000fa
:04009000ca0500009d
:020000040000fa
:04009400ca05000099
:020000040000fa
:04009800ca05000095
:020000040000fa
:04009c00ca05000091
:020000040000fa
:0400a000ca0500008d
:020000040000fa
:0400a400ca05000089
:020000040000fa
:0400a800ca05000085
:020000040000fa
:0400ac00ca05000081
:020000040000fa
:0400b000ca0500007d
:020000040000fa
:0400b400ca05000079
:020000040000fa
:0400b800ca05000075
:020000040000fa
:0400bc00ca05000071
:020000040000fa
:0400c000ca0500006d
:020000040000fa
:0400c400ca05000069
:020000040000fa
:0400c800ca05000065
:020000040000fa
:0400cc00ca05000061
:020000040000fa
:0400d000ca0500005d
:020000040000fa
:0400d400ca05000059
:020000040000fa
:0400d800ca05000055
:020000040000fa
:0400dc00ca05000051
:020000040000fa
:0400e000ca0500004d
:020000040000fa
:0400e400ca05000049
:020000040000fa
:0400e800ca05000045
:020000040000fa
:0400ec00ca05000041
:020000040000fa
:0400f000ca0500003d
:020000040000fa
:0400f400ca05000039
:020000040000fa
:0400f800ca05000035
:020000040000fa
:0400fc00ca05000031
:020000040000fa
:04010000ca0500002c
:020000040000fa
:04010400ca05000028
:020000040000fa
:04010800ca05000024
:020000040000fa
:04010c00ca05000020
:020000040000fa
:04011000ca0500001c
:020000040000fa
:04011400ca05000018
:020000040000fa
:04011800ca05000014
:020000040000fa
:04011c00ca05000010
:020000040000fa
:04012000ca0300000e
:020000040000fa
:04012400ca05000008
:020000040000fa
:04012800ca05000004
:020000040000fa
:04012c00aa04000021
:020000040000fa
:04013000ca050000fc
:020000040000fa
:04013400ca050000f8
:020000040000fa
:04013800ca050000f4
:020000040000fa
:04013c00ca050000f0
:020000040000fa
:04014000ca050000ec
:020000040000fa
:04014400ca050000e8
:020000040000fa
:04014800ca050000e4
:020000040000fa
:04014c00ca050000e0
:020000040000fa
:04015000ca050000dc
:020000040000fa
:04015400ca050000d8
:020000040000fa
:04015800ca050000d4
:020000040000fa
:04015c00ca050000d0
:020000040000fa
:04016000ca050000cc
:020000040000fa
:04016400ca050000c8
:020000040000fa
:04016800ca050000c4
:020000040000fa
:04016c00ca050000c0
:020000040000fa
:04017000ca050000bc
:020000040000fa
:04017400ca050000b8
:020000040000fa
:04017800ca050000b4
:020000040000fa
:04017c00ca050000b0
:020000040000fa
:04018000ca050000ac
:020000040000fa
:04018400ca050000a8
:020000040000fa
:04018800ca050000a4
:020000040000fa
:04018c00ca050000a0
:020000040000fa
:04019000ca0500009c
:020000040000fa
:04019400ca05000098
:020000040000fa
:04019800ca05000094
:020000040000fa
:04019c00ca05000090
:020000040000fa
:0401a000ca0500008c
:020000040000fa
:0401a400ca05000088
:020000040000fa
:0401a800ca05000084
:020000040000fa
:0401ac00ca05000080
:020000040000fa
:0401b000ca0500007c
:020000040000fa
:0401b400ca05000078
:020000040000fa
:0401b800ca05000074
:020000040000fa
:0401bc00ca05000070
:020000040000fa
:0401c000ca0500006c
:020000040000fa
:0401c400ca05000068
:020000040000fa
:0401c800ca05000064
:020000040000fa
:0401cc00ca05000060
:020000040000fa
:0401d000ca0500005c
:020000040000fa
:0401d400ca05000058
:020000040000fa
:0401d800ca05000054
:020000040000fa
:0401dc00ca05000050
:020000040000fa
:0401e000ca0500004c
:020000040000fa
:0401e400ca05000048
:020000040000fa
:0401e800ca05000044
:020000040000fa
:0401ec00ca05000040
:020000040000fa
:0401f000ca0500003c
:020000040000fa
:0401f400ca05000038
:020000040000fa
:0401f800ca05000034
:020000040000fa
:0401fc00ca05000030
:020000040000fa
:04020800ca05000023
:020000040000fa
:04020c0048030000a3
:020000040000fa
:040210008a0300005d
:020000040000fa
:04021400680300007b
:020000040000fa
:04021800aa03000035
:020000040000fa
:04021c00ca0500000f
:020000040000fa
:04022000ca0500000b
:020000040000fa
:04022400ca05000007
:020000040000fa
:040228004805000085
:020000040000fa
:04022c00ca050000ff
:020000040000fa
:04023000ca050000fb
:020000040000fa
:04023400c004000002
:020000040000fa
:04023800ca050000f3
:020000040000fa
:04023c00ca050000ef
:020000040000fa
:04024000ca050000eb
:020000040000fa
:0402440004050000ad
:020000040000fa
:040248008405000029
:020000040000fa
:04024c00ca050000df
:020000040000fa
:04025000ca050000db
:020000040000fa
:04025400440400005e
:020000040000fa
:04025800e8030000b7
:020000040000fa
:04025c00ca050000cf
:020000040000fa
:04026000ca050000cb
:020000040000fa
:04026400ca050000c7
:020000040000fa
:04026800ca050000c3
:020000040000fa
:04026c00ca050000bf
:020000040000fa
:04027000ca050000bb
:020000040000fa
:04027400340300004f
:020000040000fa
:040278006605000017
:020000040000fa
:04027c00ca050000af
:020000040000fa
:04028000ca050000ab
:020000040000fa
:04028400ca050000a7
:020000040000fa
:04028800ca050000a3
:020000040000fa
:04028c00ca0500009f
:020000040000fa
:04029000ca0500009b
:020000040000fa
:04029400ca05000097
:020000040000fa
:04029800ca05000093
:020000040000fa
:04029c00ca0500008f
:020000040000fa
:0402a000ca0500008b
:020000040000fa
:0402a400ca05000087
:020000040000fa
:0402a800ca05000083
:020000040000fa
:0402ac00ca0500007f
:020000040000fa
:0402b000ca0500007b
:020000040000fa
:0402b400ca05000077
:020000040000fa
:0402b800ca05000073
:020000040000fa
:0402bc00ca0500006f
:020000040000fa
:0402c000ca0500006b
:020000040000fa
:0402c400ca05000067
:020000040000fa
:0402c800ca05000063
:020000040000fa
:0402cc00ca0500005f
:020000040000fa
:0402d000ca0500005b
:020000040000fa
:0402d400ca05000057
:020000040000fa
:0402d800ca05000053
:020000040000fa
:0402dc00ca0500004f
:020000040000fa
:0402e000ca0500004b
:020000040000fa
:0402e400ca05000047
:020000040000fa
:0402e800ca05000043
:020000040000fa
:0402ec00ca0500003f
:020000040000fa
:0402f000ca0500003b
:020000040000fa
:0402f400ca05000037
:020000040000fa
:0402f800ca05000033
:020000040000fa
:0402fc00ca0500002f
:020000040000fa
:04030000ca0500002a
:020000040000fa
:04030400ca05000026
:020000040000fa
:04030800ca05000022
:020000040000fa
:04030c00ca0500001e
:020000040000fa
:04031000ca0500001a
:020000040000fa
:04031400ca05000016
:020000040000fa
:04031800ca05000012
:020000040000fa
:04031c00ca0500000e
:020000040000fa
:04032000ca0300000c
:020000040000fa
:04032400ca05000006
:020000040000fa
:04032800ca05000002
:020000040000fa
:04032c00aa0400001f
:020000040000fa
:04033000ca050000fa
:020000040000fa
:04033400ca050000f6
:020000040000fa
:04033800ca050000f2
:020000040000fa
:04033c00ca050000ee
:020000040000fa
:04034000ca050000ea
:020000040000fa
:04034400ca050000e6
:020000040000fa
:04034800ca050000e2
:020000040000fa
:04034c00ca050000de
:020000040000fa
:04035000ca050000da
:020000040000fa
:04035400ca050000d6
:020000040000fa
:04035800ca050000d2
:020000040000fa
:04035c00ca050000ce
:020000040000fa
:04036000ca050000ca
:020000040000fa
:04036400ca050000c6
:020000040000fa
:04036800ca050000c2
:020000040000fa
:04036c00ca050000be
:020000040000fa
:04037000ca050000ba
:020000040000fa
:04037400ca050000b6
:020000040000fa
:04037800ca050000b2
:020000040000fa
:04037c00ca050000ae
:020000040000fa
:04038000ca050000aa
:020000040000fa
:04038400ca050000a6
:020000040000fa
:04038800ca050000a2
:020000040000fa
:04038c00ca0500009e
:020000040000fa
:04039000ca0500009a
:020000040000fa
:04039400ca05000096
:020000040000fa
:04039800ca05000092
:020000040000fa
:04039c00ca0500008e
:020000040000fa
:0403a000ca0500008a
:020000040000fa
:0403a400ca05000086
:020000040000fa
:0403a800ca05000082
:020000040000fa
:0403ac00ca0500007e
:020000040000fa
:0403b000ca0500007a
:020000040000fa
:0403b400ca05000076
:020000040000fa
:0403b800ca05000072
:020000040000fa
:0403bc00ca0500006e
:020000040000fa
:0403c000ca0500006a
:020000040000fa
:0403c400ca05000066
:020000040000fa
:0403c800ca05000062
:020000040000fa
:0403cc00ca0500005e
:020000040000fa
:0403d000ca0500005a
:020000040000fa
:0403d400ca05000056
:020000040000fa
:0403d800ca05000052
:020000040000fa
:0403dc00ca0500004e
:020000040000fa
:0403e000ca0500004a
:020000040000fa
:0403e400ca05000046
:020000040000fa
:0403e800ca05000042
:020000040000fa
:0403ec00ca0500003e
:020000040000fa
:0403f000ca0500003a
:020000040000fa
:0403f400ca05000036
:020000040000fa
:0403f800ca05000032
:020000040000fa
:0403fc00ca0500002e
:020000040000fa
:10040000cf0a21000e7f22000e01880000000000ac
:10041000000020000000e000020032000001200087
:100420002002880014000700120207000000e0000c
:1004300003003a00c07e22000100200002003700c5
:100440000000200001002000810f70000100320038
:1004500014000700000020000000e000020032004d
:100460000000020000000000522002000000000016
:100470000040da000000fe004440a900a023200054
:100480000000e000030032000020200090018800fe
:100490004440a800000006008a1f78008b1f7800e7
:1004a00000000600a1028800800478000000eb0034
:1004b0001f003700e284440054a0b4009905ba003c
:1004c000e284440054a0b4009906ba00e2844400d7
:1004d00054a0b4000006eb00476fde00fd07b20039
:1004e000ae018800636ce10003003a00eaff0700f8
:1004f0000000eb000e003700606ce10008003a00dd
:10050000004deb000a05e800020039003420ec0041
:100510000af0a0008b05e900f9ff3e000400370057
:100520006168e100010032000086eb000b0007006b
:1005300019c7ba001905ba000e04e00003003a001a
:100540000a00e000dbff3a0000000600fe07b200f0
:10055000ae0288008a047800f5ff37000cd0a300b3
:10056000e20f4d001c00390089027800354dba00b9
:100570000a05e800020039003420ec000af0a0006f
:100580008b05e9000f003200254dba000a05e8008e
:10059000020039003420ec000af0a0008b05e900cd
:1005a000080032000c00e0000600320015cdba0051
:1005b0000a05e800020039003420ec000af0a0002f
:1005c0008b05e9008984e80054a0b4000b00e0002a
:1005d000e2ff3a00000006009902ba00055d7800cb
:1005e0008b05e900f7ff3200c82ade00055d7800c0
:1005f0008b05e900f3ff32000c00e000f1ff320050
:1006000019ddba00eeff3700381a040000000000c0
:10061000561a0400000000001c2604000000000020
:10062000d426040000000000222a0400000000007c
:1006300034240400000000005224040000000000e4
:10064000c2240400000000008c2704000000000009
:10065000f00a040000000000940a040000000000fa
:100660001c07040000000000801f78000000fa0052
:1006700030048000680060000000e00001003200eb
:100680008660a9000080fa004f0078000040060054
:100690003600f800809fbe00829fbe00849fbe008f
:1006a000869fbe000000fa008020a9000000eb0039
:1006b000d01307000080fa004f03be004f02be00b7
:1006c0004f01be004f00be003600f900004006009a
:1006d0003600f800809fbe00829fbe00849fbe004f
:1006e000869fbe000000fa00c71307008040a900e3
:1006f00010002000bf1307000080fa004f03be0067
:100700004f02be004f01be004f00be003600f90090
:10071000004006003600f800809fbe00829fbe00a9
:10072000849fbe00869fbe000000fa008060a90082
:1007300020002000af1307000080fa004f03be0026
:100740004f02be004f01be004f00be003600f90050
:10075000004006003600f800809fbe00829fbe0069
:10076000849fbe00869fbe000000fa008080a90022
:10077000300020009f1307000080fa004f03be00e6
:100780004f02be004f01be004f00be003600f90010
:10079000004006003600f800809fbe00829fbe0029
:1007a000849fbe00869fbe000000fa002c0e07004a
:1007b0008bc0a9000080fa004f03be004f02be00ac
:1007c0004f01be004f00be003600f9000040060099
:1007d0003600f800809fbe00829fbe00849fbe004e
:1007e000869fbe000000fa0050408000000001001b
:1007f0003140800020408000808f500002003a008d
:100800009580a900190037008580a90010003700e5
:1008100030408000904078008180fb0021288800d3
:100820000000e8003040880031408000700921005d
:10083000808f500002003a00e0082100304088001c
:100840003140800020408000808f50000600320040
:100850001128800000202000008060000000e000df
:10086000ebff320001003700000000000080fa00ba
:100870004f03be004f02be004f01be004f00be003e
:100880003600f900004006003600f800809fbe00e8
:10089000829fbe00849fbe00869fbe000000fa00bb
:1008a00060408000000001008560a9001e00370044
:1008b00001408000302880000040780080487800a7
:1008c00001408000f0092100808f500009003200b3
:1008d000004080000000e80011408000810f5000bf
:1008e00004003200004080000000e8000040880062
:1008f0000d00370001408000f0092100808f50007a
:1009000007003a001140800070092100808f5000dc
:100910000300320070092100004088000200370007
:1009200010c0b30008e8b700102880006100600024
:100930000000e000deff3a000080fa004f03be0036
:100940004f02be004f01be004f00be003600f9004e
:1009500000400600801f78000000fa001028800088
:10096000620060000000e000010032000225a900e2
:100970008c20a9000080fa004f007800004006009b
:100980003600f800809fbe00829fbe00849fbe009c
:10099000869fbe000000fa00804080000000e80052
:1009a0008040880080408000e30f50000600360041
:1009b000704080000000e0000200320070408000c3
:1009c000000001001028ef00500a210010407800bc
:1009d0008040e800500a210001487800400a2100c8
:1009e00011c0b300014878008460a9000080fa00bb
:1009f0004f03be004f02be004f01be004f00be00bd
:100a00003600f900004006003600f800809fbe0066
:100a1000829fbe00849fbe00869fbe000000fa0039
:100a2000a04080000000e800a0408800a0408000b6
:100a3000e10f500006003600904080000000e0000a
:100a40000200320090408000000001001428ef00f6
:100a5000700a2100104078008040e800700a2100f0
:100a600001487800600a210011c0b30001487800f5
:100a700084e0a9000080fa004f03be004f02be00d0
:100a80004f01be004f00be003600f90000400600d6
:100a90003600f800809fbe00829fbe00849fbe008b
:100aa000869fbe000000fa00841207008400a9009f
:100ab0000080fa004f03be004f02be004f01be008f
:100ac0004f00be003600f900004006003600f80076
:100ad000809fbe00829fbe00849fbe00869fbe0096
:100ae0000000fa00781207008680a9000080fa0052
:100af0004f03be004f02be004f01be004f00be00bc
:100b00003600f900004006003600f800809fbe0065
:100b1000829fbe00849fbe00869fbe000000fa0038
:100b2000004180000000e800004188000141800091
:100b3000b0032000808f500006003600f040800097
:100b40000000e00002003200f040800000000100e0
:100b50002028ef00900a2100104078008040e80033
:100b6000900a210001487800800a210011c0b300da
:100b7000014878008500a9000080fa004f03be00fc
:100b80004f02be004f01be004f00be003600f9000c
:100b9000004006000040da000000fe00ec8747003d
:100ba0008e1f78006c87570044002000041f7800d7
:100bb000000f78006c87570002afbe00e1bf9f00b6
:100bc0006c805700180407001e00be004f07780015
:100bd000cf00b10000000600ec8747008e1f7800b0
:100be00011002000a1bf9f006c875700002f7800e4
:100bf0006c8057000e0407001e0078004f07780035
:100c0000cf00b100000006000800fa008e81e80065
:100c100080097800640047000108780066004700fa
:100c20000208780066004700100f78000a003700bd
:100c3000640047001000780010407800e40047008e
:100c4000910078000101e800e40047008208780084
:100c50008a0f07001e0fe9001e0078000000e00068
:100c6000f3ff3a0066004700100078000080fa00a9
:100c70000000060000000500889fbe008a9fbe009d
:100c8000800478000200e0005a0032000140780041
:100c9000814c780082814400f1f99f00e20f5100fd
:100ca0005400360091449800a1449800e1f99f0057
:100cb000d1f99f00e60f51004e003600b144980074
:100cc000c1f99f00e80f51004a0036000905ea000b
:100cd000630565000a8444000a055100c1ff2f0026
:100ce000010565000080fb008000eb001210200071
:100cf00013102000c6030700008cbe000a01440048
:100d000060b99f0071b99f00e80f550039003600a7
:100d10002004980031049800400498005104980081
:100d200020b99f0031b99f0040b99f0051b99f0081
:100d3000f80f55002f0036006004980071049800e9
:100d4000000c9800110c9800200c9800310c9800b1
:100d5000400c9800510c980020b19f0031b19f00c9
:100d600040b19f0051b19f0060b19f0071b19f00e1
:100d700000b99f0011b99f0064016400780141002f
:100d800002044400020555006011b8000203be00d1
:100d90000002be000403be006022b8000000720022
:100da0008180720002017300838173000f0037009d
:100db00008027800009abe00029abe00009abe00a7
:100dc0000292be00000c9800110c9800220c9800b2
:100dd000330c9800400c9800510c9800620c98005d
:100de000730c98000a02b1000802b000ff0f550012
:100df000efff3e00090078004f05be004f04be0023
:100e00000000060061818000910078002602070042
:100e1000110020000000e000050035006081800026
:100e200090007800a0002000a8020700cf00de009c
:100e30000100ea0000000600000006002003210077
:100e400000000600fdff0700808188007081880097
:100e500000000600114290000482fb009180fb001c
:100e6000c808dd000482700080007800d181fb009a
:100e70001081fb004811dd00030171000300370001
:100e80004811dd001180fb000201700001007800b4
:100e90003104e00004003200840f5100f8ff3a00f2
:100ea0000000e9000000060000000500114390006a
:100eb0008683fb00060020001181fb008001eb000f
:100ec000c811dd0002002000020373008383730059
:100ed000214190004811dd008001eb000203730006
:100ee000838373008080e800104190008281fb00c2
:100ef000020020001082fb008002eb00c822dd000f
:100f00000400200004017100858171001182fb0042
:100f10004822dd008002eb00040171008581710030
:100f2000080037001182fb008002eb000402710010
:100f3000858271004829dd00c821de00830171002f
:100f40004821dd00010078003104e0000500320096
:100f5000860f5100878f5900f2ff3a000080e900a8
:100f60000000060000000500889fbe00314290008e
:100f70000482fb008002eb00010178003283fb0059
:100f80008003eb00c833dd0006002000060372007a
:100f9000878372001281fb008001eb00c011dd002d
:100fa000020020000203730083837300214190003c
:100fb0004811dd008001eb0002037300838373009e
:100fc000e30040001182fb008002eb00800178000a
:100fd0003384fb008004eb00c844dd0008002000df
:100fe00008047200898472001381fb008001eb0009
:100ff000c012dd000400200004017400858174002b
:10100000204290004822dd008002eb0006003700fd
:10101000481add00c812de00850272004812dd00a9
:101020001181fb008001eb000201720083817200dc
:10103000010078003104e00005003200860f510005
:10104000878f5900f2ff3a0063005000010037001b
:101050000000eb004f04be00000006008f22b0002d
:10106000889fbe008a9fbe008c9fbe008e1f7800a6
:101070000004780081057800c0dc2f000f004000dc
:101080000f0009000018eb000002b1000b0178000e
:10109000880078008004eb00100037000080fb001f
:1010a000c401de0083814100c4dc2f000f02420036
:1010b000830142006f02600015002000042add0059
:1010c000930972008584440000004000c7dc2f00b3
:1010d0008f8343000080430009109800324078005d
:1010e0000004e00005003a001a0020000a00780021
:1010f0000001eb008081eb00190037003104e000b3
:10110000e6ff3a00a200370003824500e44278007f
:101110006bc2780084cf520005003a008a0f50005d
:101120000c0032000000e800820078000b0037005d
:1011300084cf5200020036000385500006003700bd
:101140008200e800820178001a0020000a0078007e
:10115000020037000005780010002000010178002f
:1011600082004000898f5000e7ff39001100200005
:10117000010078000002eb008086eb0016003700cb
:101180008d82450065437800eb427900854f53001e
:1011900005003a00810f50000c0032000000e8000a
:1011a000040178000b003700854f53000200310026
:1011b0008d005100060037000401e8008406780025
:1011c0001100200001007800020037008000780044
:1011d000100020000202780004014000890f510035
:1011e000e7ff39000d01e8000300e800800f51001f
:1011f0000200360001057800010037008306780000
:101200000d02e8008a804500040178000b00780098
:1012100084bf9f00800107000fba97000000e00024
:10122000080032000905e9000d0555008d0f550035
:10123000010031000d0578000a05e8008001eb008f
:10124000010037008a815400080778000006eb008f
:1012500008005700890f50001400310089027800ff
:10126000f503b300050178008000eb000e00780064
:10127000e3b79f0084bf9f00f5b79f0036010700ca
:10128000efb197000fba9700ffb297000000e0009f
:101290000500320088005000898f50003c00390062
:1012a0000007780001003700050747008900440067
:1012b00071f897000080fb006f01600016002000ad
:1012c0000233dd004401de0002014100c7dc2f00d3
:1012d0008f834300e7027900050163000d003200af
:1012e0000000400000804300001090000080540087
:1012f0000a0032000300e000150032000c00e0009c
:10130000130032008a0f5000110031000a8054008f
:101310000f00370001047800ccff37000c00780084
:10132000840f5600030031000400780001003700ec
:101330000000e800eb4078000104e0000600320005
:101340006841780082cf5000f9ff32000d00500054
:1013500000044400bdff37000d0078008000e80065
:101360008c8f5000080036006b417800e840780010
:101370000000e900814f5100f8ff32000a044400e8
:1013800003067800b2ff370008007800010037003c
:101390000000eb004f0778004f06be004f05be006f
:1013a0004f04be00ef1fb100af02b1000000060005
:1013b000881f780001047800984078000104e0005c
:1013c000260032008100fb00040207000000e0005c
:1013d00022003200984090000104e0001f0032001b
:1013e000904090000104e0001b003200a8409000f3
:1013f0000104e00003003a008800780095fe070031
:1014000016003700a04090000104e00012003200f6
:10141000b84090000104e00003003a008800780022
:10142000a2fe07000d003700b04090000104e0006c
:1014300009003200c84090000104e00003003a00b7
:1014400088007800c8fe0700040037008800780094
:1014500002ff0700010037000000eb004f04780096
:1014600000000600889fbe000004be000800e000e7
:1014700003003a00588580000800e00013003200a5
:101480000800be0063010700000444001804e000e7
:1014900004003a000000eb0050858800000478004a
:1014a0000a0037000800be000901070000004400e0
:1014b000508588001004e000020032000058eb0064
:1014c000010037000000eb0050858800080078001c
:1014d0004f04be0000000600889fbe008a1f7800ef
:1014e000800478004900900002047800800f5400c6
:1014f0000100360000047800080178006a85440085
:101500001a007800d20007001a004400000d78008d
:10151000e8844400990c14000048eb004f05780063
:101520004f04be000000060010007800b6fd370032
:10153000900190000388a30001003200e6ff37000d
:101540000348a30001003a00f7ff0700000006006f
:10155000889fbe008a1f780000047800010578008b
:101560000000eb000800e0001a00320018009000b4
:101570000058a3000c003200ea0444006800900008
:10158000990f100008003600b80990000001eb0028
:101590008200780008007800030001000080eb0062
:1015a0001900e0000b003200740044000008eb005a
:1015b0006c0044000008eb006a0044000008eb00e7
:1015c0000000eb000a00e000020032001800780082
:1015d00081fd07004f0578004f04be0000000600a3
:1015e000889fbe008a1f78000004be000000eb0048
:1015f0000800e00029003200180090000058a30005
:10160000120032006a054400680090009a0f100032
:1016100008003600b80990000001eb008200780055
:1016200008007800030001000080eb001a00e000d1
:101630001a003200740044000008eb006c00440003
:101640000008eb006a0044000008eb00780a9000f4
:1016500008109000800f5200060031000002520076
:1016600011002000cfa2de00612bb9001800780025
:101670004afd070000022000080040000008eb00bf
:101680007e0044000008eb000000eb000900e000d1
:1016900002003200180078004ffd07004f05780067
:1016a0004f04be0000000600889fbe008a1f78001d
:1016b000800478000105780009007800bd0007006b
:1016c000000478008a0178000801780011002000e9
:1016d000090078000a000700800078000080eb0015
:1016e000888f500001003a000000eb004f057800a1
:1016f0004f04be00000006001000780042fd3700d5
:10170000889fbe008a9fbe00810478000204780092
:1017100009c5b9000900e00001003a000004eb002f
:101720000a01780080007800030078007eff07003f
:10173000800078008a8f50000300320011000900f9
:101740008980d80000047800080078004f05be00aa
:101750004f04be00000006008180fb00010037003e
:101760000201e900800178000008a30006003200b1
:101770000200e000230032003082fb00810f5200a3
:10178000f7ff3a00030037000000eb000200e00022
:101790001e0032001380fb00810f50001c0032003d
:1017a00014102000048ab900840278000100370078
:1017b0000281e90003007800e10f51000a003600c1
:1017c00033826a00f6ef2f00040343000482ea002c
:1017d000040263000608280006026200f4ff3200db
:1017e000010037000201e900800178000200e000fa
:1017f000050032003082fb00810f5200f9ff3a00f1
:1018000003003700000005000000eb0000000600a8
:101810000300780000000600010037000201e90023
:101820000200e0000500320030427800b14178004b
:10183000834f5200f9ff320001003700000005001d
:101840000480fb008381fb000300500000000600c1
:101850008001780002003700b15978000201e900e8
:101860000200e000fcff3a00000006000200fa005f
:101870000001780001007800e2ff9f0090009000d6
:101880000188a30006003200ea01400093007800be
:10189000825878000280fb00810978000900370037
:1018a000120020008f80e9001fff070080007800f1
:1018b0000080eb000100e00002003200eff897002a
:1018c0000180fb000080fa0000000600e7ff3700ff
:1018d0002000fa00889fbe000004be0099407800f6
:1018e0000104e00003003200194090000004e00011
:1018f00004003a008100fb00080078007d0007002a
:1019000028003700020220008000eb00c0fd2f00fd
:101910000f004000d8fc0700194078000004e000e8
:1019200002003a00880078000e0037008904e800c1
:101930000080fb00c400de006f0060001200200089
:101940000010dd0081804000c2fd2f000f0141002a
:10195000810041001100700080087800eeff3a001d
:10196000f0ff370001007800114178000204e00028
:101970000c0032008100e8000281fb00ef016100f1
:10198000140020000322dd004411de0002014100aa
:10199000c5fd2f008f824200e5017900030162003e
:1019a000f0ff3200080050004f04be000080fa0033
:1019b0000000060080007800040037003104e000d9
:1019c00002003a000000510000000600010178000a
:1019d0000108a300f9ff3a00810178003101780085
:1019e000f4ef2f00020242000281ea0002016200cd
:1019f0000408280004016100f7ff3200830078002a
:101a0000010178003104e000fdff3a0000005100c0
:101a1000000006002000fa000f0178000202b10069
:101a20000f0009000019eb00914178000001eb0064
:101a30000304e0002c003200114190000204e00099
:101a400005003a008000780001017800b1cf110054
:101a5000fdff320023003700114178000204e0004e
:101a600002003a00800078000e0037008100e80094
:101a70000281fb00c411de006f0161001400200030
:101a80000221dd008381410004fe2f000f0242008d
:101a9000830142001301710082097800eeff3a00d1
:101aa000f0ff370001017800914178000304e00065
:101ab0000c0032008100e8008381fb006f8261002e
:101ac00015002000842add00c419de008381410056
:101ad00006fe2f000f0343006682790084816200b6
:101ae000f0ff3a0000015100020078000080fa0087
:101af00000000600881f7800000478008180fb0049
:101b00000a003a0008007800aaff0700000044001d
:101b1000220037001804e000200032000804e8002a
:101b20001081fb00810f51001c003200080078007a
:101b30000808a300f7ff3a0014102000048ab90037
:101b40000801780038007800f5ef2f00808242000d
:101b50008081ea0083826200030828008382620099
:101b600007003a0000006a00f5ef2f008082420073
:101b70000080ea000080620083016000f0ff320014
:101b8000020078001204e000040032000201e800c4
:101b90009081fb00818f5100f9ff3a004f047800db
:101ba00000000600618180009100780047ff370047
:101bb000810178000002780030417800b14f510077
:101bc00002003a000204e000f9ff3a009480fb00b2
:101bd0001380fb000080500000000600881f780082
:101be0000104780088007800c2ff0700904f1400bd
:101bf000010032000000eb004f04780000000600f6
:101c0000000006008ffc0700fdff0700fcff370007
:101c1000020ab900001bb9000200b80081004200ae
:101c2000810043000000060000c0da00000006004a
:081c300000c0da00000006000c
:020000040000fa
:101c3800536500006e640000696e000067200000b4
:101c480041540000206300006f6e00006e650000c4
:101c580063740000207400006f20000041500000f1
:101c680049200000636f00006d6d0000616e000088
:101c7800642e00002e0d0000000a00000053000032
:101c8800656e0000646900006e6700002041000076
:101c980054200000736900007a650000206f00007e
:101ca800662000006d73000067200000636f00006d
:101cb8006d6d0000616e0000642e00002e0d0000a6
:101cc80000530000656e0000646900006e67000044
:101cd8002047000045540000206300006f6d00009d
:101ce8006d6100006e640000203100002e2e00009f
:101cf8000d000000536500006e640000696e00006e
:101d0800672000004745000054200000636f000072
:101d18006d6d0000616e000064200000322e00002e
:101d28002e0d000000220000000d00000a00000037
:101d3800415400002b430000495000005354000058
:101d480041520000543d000022540000435000005e
:101d5800222c000022360000352e00003130000011
:101d6800392e000031340000332e000037340000d3
:101d7800222c000038300000383000000d0a000026
:101d880000410000542b000043490000505300005c
:101d9800454e0000443d0000353300000d0a0000a8
:101da8000047000045540000202f0000746900001f
:101db8006d6500002048000054540000502f0000ba
:101dc800312e0000300d00000a4800006f7300003b
:101dd800743a000020360000352e00003130000033
:101de800392e000031340000332e00003734000053
:101df8000d0a00000d0a00000d0a00000000000096
:101e080000000000000000000000000000000000ca
:101e180000000000000000000000000000000000ba
:101e280000000000000000000000000000000000aa
:101e3800000000000000000000000000000000009a
:101e4800000000000000000000000000000000008a
:101e5800000000000000000000000000000000007a
:101e6800000000000000000000000000000000006a
:101e7800000000000000000000000000000000005a
:101e8800000000000000000000000000000000004a
:101e9800000000000000000000000000000000003a
:101ea800000000000000000000000000000000002a
:101eb800000000000000000000000000000000001a
:101ec800000000000000000000000000000000000a
:101ed80000000000000000000000000000000000fa
:101ee80000000000000000000000000000000000ea
:101ef8000000000000000000000000000043000097
:101f08004f4e00004e45000043540000003a0000c8
:101f180000410000542b00004349000050530000ca
:101f28005441000054550000530d00000a00000001
:101f3800536500006e640000696e000067200000b1
:101f4800436f00006e6e000065630000742000009f
:101f5800636f00006d6d0000616e0000642000007a
:101f68002e2e00000d000000536500006e64000076
:101f7800696e000067200000536900007a65000060
:101f8800206300006f6d00006d6100006e6400004a
:101f9800202e00002e0d0000007300007461000068
:101fa80072740000546900006d650000004700006d
:101fb80045540000202f0000706500007269000081
:101fc8006f6400002f3100002048000054540000c6
:101fd800502f0000312e0000300d00000a4800008c
:101fe8006f730000743a000020360000352e0000a0
:101ff80031300000392e000031340000332e00004b
:10200800373400000d0a00000d0a00000d0a000018
:1020180000410000542b00004349000050530000c9
:10202800454e0000443d0000353900000d0a00000f
:102038000031000020320000303000000050000065
:102048004f530000542000002f6100006c61000015
:10205800726d00002f310000204800005454000029
:10206800502f0000312e0000300d00000a480000fb
:102078006f730000743a000020360000352e00000f
:1020880031300000392e000031340000332e0000ba
:10209800373400000d0a00000d0a00000d0a000088
:0420a8000000000034
:020000040000fa
:1020ac004403fa00124020008000eb00a0822000c4
:1020bc00eefa07002102200081004700c2e9280047
:1020cc0028000900b2587800b104200081004700b4
:1020dc0052ec28000f000900b2587800b10520001e
:1020ec008100470052ed28002d000900b2587800fd
:1020fc00e40c0700c0e128003ffb07000000eb00e8
:10210c00000f780006003700200220000e0040006f
:10211c001e00400010407800fa0407001e0fe80073
:10212c00800220009e007800808f5000f6ff360061
:10213c00400620006c0c070031f0280090082000ad
:10214c000e0040001148780041f02800a008200043
:10215c000e004000114878008e007800b108b000e5
:10216c007d0009008058eb008000eb000e80e80039
:10217c000108780010003700a08220008e80e80053
:10218c0091007800010040009040780090082000f9
:10219c000e0040000e81e8001201780002004000a1
:1021ac00014878000e80e800100078008000e800fc
:1021bc000e80e800010878000e80e800900078009e
:1021cc00f0072000808f5000ebff340090082000b7
:1021dc000e00400011e428009ffc070080007800ee
:1021ec007a0047000108780011e428000000eb0099
:1021fc0099fc0700800078007a00470001087800fd
:10220c00921020000201470031f828000600090056
:10221c0031597800001120000e00400012c4240037
:10222c00235524000288be006400400011442400a1
:10223c00010878000080e80091c5b30001487800df
:10224c000000e8008000eb00640047000108780003
:10225c001100370064004700900078007a004700b6
:10226c0010007800010040009040780070112000b0
:10227c000e0040006401470012017800020040008b
:10228c000148780064004700100078008000e800e6
:10229c0064004700010878006400470010007800d3
:1022ac00e60f5000ebff36008000eb007c0047008f
:1022bc0001087800011120008e8040009010200051
:1022cc000e00400037fe0700800078007e004700bb
:1022dc00010878007c004700100078000000e00046
:1022ec000d003a007e004700100078000000e0006e
:1022fc0009003a0071002000000220000e0040008e
:10230c0001087800000220000e0040001000780048
:10231c002c080700ab0137005a0c070030e42800ea
:10232c00b5fa07008000eb00660047000108780052
:10233c000c003700b00420000e004000e6004700ff
:10234c009100780001004000104078006d040700f7
:10235c0066004700100078008000e8006600470027
:10236c00010878006600470010007800ef0f50005d
:10237c00f0ff3600430c070040062000da0b070084
:10238c0050e628009cfa07008000eb00680047002c
:10239c00010878000c003700b00520000e0040004a
:1023ac00e8004700910078000100400010407800e0
:1023bc005404070068004700100078008000e80013
:1023cc00680047000108780068004700900078001a
:1023dc00d0022000808f5000efff3600290c070040
:1023ec0040062000c00b0700e0e7280082fa070037
:1023fc008000eb006a004700010878000c003700f1
:10240c00b00520000e004000ea0047009100780063
:10241c0001004000104078003a0407006a004700b1
:10242c00100078008000e8006a004700010878007e
:10243c006a00470090007800d0022000808f500086
:10244c00efff3600803e2000a70b07008000eb005a
:10245c006c00470001087800100037006c00470042
:10246c0090007800a082200000804000904078000e
:10247c00e01120000e0040006c01470012017800b2
:10248c0002004000014878006c0047001000780002
:10249c008000e8006c004700010878006c004700e1
:1024ac0090007800f01f2000808f5000ebff36006a
:1024bc00f40b0700e01120000e00400071e9280029
:1024cc00e5fb0700800078007a00470001087800df
:1024dc0071e928000000eb00dffb070080007800aa
:1024ec007a0047000108780090e9280042fa0700ba
:1024fc008000eb006e0047000108780011003700e7
:10250c006e004700900078007a00470010007800b9
:10251c000100400090407800e03120000e004000a7
:10252c006e0147001201780002004000014878005b
:10253c006e004700100078008000e8006e00470035
:10254c00010878006e00470010007800e30f50007f
:10255c00ebff34008000eb007000470001087800ae
:10256c001200370070004700100078006500400032
:10257c00fa004700910078000080400090407800fd
:10258c00203220000e00400070014700120178003c
:10259c0002004000014878007000470010007800ed
:1025ac008000e800700047000108780070004700c8
:1025bc0010007800e10f5000eaff34008000eb00bf
:1025cc0072004700010878001200370072004700c3
:1025dc001000780068004000fa0047009100780075
:1025ec000080400090407800403220000e004000f7
:1025fc007201470012017800020040000148780087
:10260c0072004700100078008000e800720047005c
:10261c00010878007200470010007800e10f5000ac
:10262c00eaff34008000eb007400470001087800da
:10263c001200370074004700100078006b00400057
:10264c00fa0047009100780000804000904078002c
:10265c00603220000e004000740147001201780027
:10266c000200400001487800740047001000780018
:10267c008000e800740047000108780074004700ef
:10268c0010007800e10f5000eaff34008000eb00ee
:10269c0076004700010878001200370076004700ea
:1026ac00100078006e004000fa004700910078009e
:1026bc000080400090407800803220000e004000e6
:1026cc0076014700120178000200400001487800b2
:1026dc0076004700100078008000e8007600470084
:1026ec00010878007600470010007800e10f5000d8
:1026fc00eaff34008000eb00780047000108780006
:10270c00120037007800470010007800710040007c
:10271c00fa0047009100780000804000904078005b
:10272c00a03220000e004000780147001201780012
:10273c000200400001487800780047001000780043
:10274c008000e80078004700010878007800470016
:10275c0010007800e10f5000eaff3400e031200057
:10276c000e0040000000e800104078008000fb00e4
:10277c00400620000088b90000017800e0312000fc
:10278c000e004000104078000000fb0001fd2f00ff
:10279c0080804000803e20000088b9000000780056
:1027ac008000410000d42e0000814000e031200068
:1027bc000e0040000080e800104078000000fb0094
:1027cc006a00b90000007800001eb10080004100d2
:1027dc00e03120000e004000630040001040780003
:1027ec000000fb000003b1008080400040892f00f6
:1027fc0080804000c03220000e0040006a00400083
:10280c0001087800203220000e00400010407800b3
:10281c000000fb006a00b9000000780001e22f0004
:10282c0080804000203220000e0040000000e800b4
:10283c00104078000000fb000080400001fd2f00dc
:10284c0080804000c03220000e0040006800400034
:10285c0001087800403220000e0040001040780043
:10286c000000fb006a00b9000000780001e22f00b4
:10287c0080804000403220000e0040000000e80044
:10288c00104078000000fb000080400001fd2f008c
:10289c0080804000c03220000e00400066004000e6
:1028ac0001087800603220000e00400010407800d3
:1028bc000000fb006a00b9000000780001e22f0064
:1028cc0080804000603220000e0040000000e800d4
:1028dc00104078000000fb000080400021fd2f001c
:1028ec0080804000c03220000e0040006400400098
:1028fc0001087800803220000e0040001040780063
:10290c000000fb006a00b9000000780001e22f0013
:10291c0080804000803220000e0040000000e80063
:10292c00104078000000fb000080400001fd2f00eb
:10293c0080804000c03220000e0040000080e80083
:10294c0001087800a03220000e00400010407800f2
:10295c000000fb006a00b9000000780001e22f00c3
:10296c0080804000a03220000e0040000000e800f3
:10297c00104078000000fb000080400001fd2f009b
:10298c0080804000c03220000e004000010878001a
:10299c00c03220000e004000110020006c004000ee
:1029ac0001087800c03220000e0040001100200009
:1029bc006e00400001087800c03220000e0040007c
:1029cc00b80407000080fa00000006001601fa00a7
:1029dc00ac0a0700e6004700d2f828000e000900f8
:1029ec00b2587800e70207000004e0000b00320048
:1029fc000000eb00000f7800050037006600470070
:102a0c001e00400010407800be0207001e0fe800b8
:102a1c001e007800ee0f5000f8ff3600401f20001b
:102a2c00310a07008000eb000e80e80001087800f6
:102a3c000f0037000e80e80090007800a082200084
:102a4c000080400090407800750047000e81e8003f
:102a5c001201780002004000014878000e80e80066
:102a6c00100078008000e8000e80e8000108780073
:102a7c000e80e80090007800f00f2000808f50004e
:102a8c00ecff360075004700b1f8280072fa070019
:102a9c00800078006400470001087800b1f8280035
:102aac000000eb006cfa070080007800640047001f
:102abc00010878000e003700640047001000780011
:102acc009040780020c3b30080cf500002003a0041
:102adc0010c0b3000b003700b1f828000000eb0069
:102aec005dfa070080007800640047000108780058
:102afc0064004700100078000000e000eeff3a0090
:102b0c000040eb000080fa00000006009802fa007a
:102b1c00fa004700b2fd280031000900b2587800d5
:102b2c00c104200081004700c2e9280028000900e8
:102b3c00b25878005107200081004700d2002900cc
:102b4c000f000900b2587800770a0700800078005f
:102b5c006e004700010878006e00470010007800f6
:102b6c0080407800500820000e004000014878009a
:102b7c006e004700100078004800de0080407800ae
:102b8c00600820000e0040000148780070004700eb
:102b9c00510820008e80400011487800c0f92800b0
:102bac0095f807000000eb00000f780006003700d6
:102bbc00c00420000e0040001e00400010407800b1
:102bcc00500207001e0fe800800220009e007800d3
:102bdc00808f5000f6ff360040062000c209070027
:102bec0080fb280084f807008000eb000e80e800d2
:102bfc00010878000c003700500720000e00400040
:102c0c008e80e800910078000100400010407800b0
:102c1c003c0207000e80e800100078008000e800fd
:102c2c000e80e800010878000e80e80010007800a3
:102c3c00ef0f5000f0ff360040062000aa090700f5
:102c4c00100a070050e628006bf807008000eb0024
:102c5c0064004700010878000b0037007a00470039
:102c6c00e40047009100780001004000104078001b
:102c7c002402070064004700100078008000e80080
:102c8c006400470001087800640047009000780059
:102c9c0010032000808f5000f0ff3600400620000b
:102cac0091090700e0e7280053f807008000eb00cb
:102cbc0066004700010878000b0037007a004700d7
:102ccc00e6004700910078000100400010407800b9
:102cdc000c02070066004700100078008000e80036
:102cec0066004700010878006600470090007800f5
:102cfc0010032000808f5000f0ff3600803e200033
:102d0c007909070031f02800700820000e004000ff
:102d1c001148780041f02800800820000e00400087
:102d2c00114878008e0078009108b000fd01090070
:102d3c008058eb008000eb00680047000108780029
:102d4c0010003700a0822000e800470091007800b6
:102d5c000100400090407800700820000e004000f8
:102d6c006801470012017800020040000148780019
:102d7c0068004700100078008000e80068004700f9
:102d8c00010878006800470090007800f01f2000d0
:102d9c00808f5000ebff3400702820000e004000a4
:102dac00d201290005000900325878006000b100fa
:102dbc00712820008e804000700820000e0040001a
:102dcc0078f907008000780072004700010878004d
:102ddc0072004700100078000000e000ad003200e7
:102dec00700820000e00400011fd28006df907004e
:102dfc00800078007400470001087800b1f82800c2
:102e0c00740047001000780093f9070080007800e8
:102e1c007400470001087800b1f828000000eb00ae
:102e2c008df90700800078007400470001087800d5
:102e3c008000eb006a0047000108780012003700a0
:102e4c006a004700100078000000e800f40047001a
:102e5c00910078000080400090407800d02820003d
:102e6c000e0040006a014700120178000200400089
:102e7c00014878006a004700100078008000e800e4
:102e8c006a004700010878006a00470010007800cb
:102e9c000000e800f400470091007800008040003a
:102eac009040780020c2b30080cf5000e4ff3a007d
:102ebc00b1f828000000eb0067f9070080007800eb
:102ecc0074004700010878008000eb006c0047009c
:102edc0001087800120037006c00470010007800e1
:102eec000000e800f40047009100780000804000ea
:102efc0090407800202920000e0040006c01470013
:102f0c001201780002004000014878006c00470074
:102f1c00100078008000e8006c0047000108780081
:102f2c006c004700100078000000e800f400470037
:102f3c0091007800008040009040780020c2b300df
:102f4c0080cf5000e4ff3a00d02820000e00400053
:102f5c000000e800104078008000fb0040062000d4
:102f6c000088b90000017800d02820000e00400035
:102f7c00104078000000fb0001fd2f008080400015
:102f8c00803e20000088b9000000780080004100dd
:102f9c0000d42e0000814000d02820000e004000fc
:102fac000080e800104078000000fb006a00b900c7
:102fbc0000007800001eb10080004100d0282000e5
:102fcc000e00400063004000104078000000fb0041
:102fdc000003b100808040007600470001087800b3
:102fec00202920000e0040000000e800104078006e
:102ffc008000fb00400620000088b900000178002a
:10300c00202920000e004000104078000000fb003a
:10301c0001fd2f0080804000803e20000088b90018
:10302c00000078008000410000d42e000081400098
:10303c00202920000e0040000080e800104078009d
:10304c000000fb006a00b90000007800001eb1000f
:10305c0080004100202920000e0040006300400049
:10306c00104078000000fb000003b100808040009d
:10307c00780047000108780078004700900078003d
:10308c0076004700100078003109070010c0b3002b
:10309c00010037000040eb000080fa000000060041
:1030ac000000fa008ea1a900900120008e080700f4
:1030bc008ea1a800007d20008b0807000080fa007c
:1030cc00000006000000fa008aa1a9008ea1a80049
:1030dc000080fa00000006008602fa00f2004700a9
:1030ec003202290031000900b25878004104200056
:1030fc0081004700c2e9280028000900b258780076
:10310c00d106200081004700d20029000f000900e1
:10311c00b258780004090700800078006a00470064
:10312c00010878006a0047001000780080407800a1
:10313c00d00720000e004000014878006a004700cc
:10314c00100078004800de0080407800e007200086
:10315c000e004000014878006c004700d1072000a9
:10316c008e80400011487800c0f9280022f7070033
:10317c000000eb00000f7800060037004004200030
:10318c000e0040001e00400010407800dd000700db
:10319c001e0fe800800220009e007800808f5000f7
:1031ac00f6ff3600400620004f08070080fb280081
:1031bc0011f707008000eb000e80e8000108780092
:1031cc000c003700d00620000e0040008e80e80076
:1031dc00910078000100400010407800c900070001
:1031ec000e80e800100078008000e8000e80e800f7
:1031fc00010878000e80e80010007800ef0f5000f6
:10320c00f0ff360040062000370807009d08070035
:10321c0050e62800f8f607008000eb006400470039
:10322c00010878000b00370072004700e4004700eb
:10323c00910078000100400010407800b1000700b8
:10324c0064004700100078008000e800640047002c
:10325c0001087800640047009000780010032000fb
:10326c00808f5000f0ff3600400620001e0807003b
:10327c00e0e72800e0f607008000eb00660047005e
:10328c00010878000b00370072004700e600470089
:10329c009100780001004000104078009900070070
:1032ac0066004700100078008000e80066004700c8
:1032bc000108780066004700900078001003200099
:1032cc00808f5000f0ff3600803e2000060807007b
:1032dc0031f02800f00720000e0040001148780063
:1032ec0041f02800000820000e0040001148780032
:1032fc008e0078001108b000fd0109008058eb0029
:10330c008000eb00680047000108780010003700cf
:10331c00a0822000e80047009100780001004000e6
:10332c0090407800f00720000e0040006801470034
:10333c001201780002004000014878006800470044
:10334c00100078008000e800680047000108780051
:10335c006800470090007800f01f2000808f50001c
:10336c00ebff3400f02720000e004000d2012900b2
:10337c0005000900325878006000b100f1272000e8
:10338c008e804000f00720000e00400005f807007a
:10339c00800078006e004700010878008000eb0088
:1033ac00700047000108780010c0b3000080fa00dc
:1033bc00000006000000fa009580a9009560a900a5
:1033cc0080002000002888000225ef002002200049
:1033dc00402888000a25ef000c25ef000e25ef0091
:1033ec001025ef001225ef001425ef00e008210056
:1033fc0030408800e008210020408800700921003e
:10340c001040880070092100004088000868ef0017
:10341c0080a321000700070060a52100140007000d
:10342c009560a80001e5a8000345a8000080fa00fb
:10343c00000006000200fa00000f78001e00780061
:10344c000000e00003003a0080a3210050408800f7
:10345c00020037009e007800514088000080fa007e
:10346c00000006000000fa000080fa0000000600d0
:10347c000200fa00000f78001e0078000000e00047
:10348c0003003a0060a5210060408800020037006c
:10349c009e007800614088000080fa000000060061
:1034ac000000fa000080fa00000006000200fa009a
:1034bc000040eb00004f780000000000114080003d
:1034cc0000408000808f5000fcff320010408000d4
:1034dc00104f7800104080000000e8001040880079
:1034ec0011408000000a2100808f500002003a0039
:1034fc0070092100104088001e4078000080fa00fe
:10350c00000006000200fa00004f780000000000e6
:10351c001c0007000004a2000004e000fcff3a00bd
:10352c00204080001e487800204080000000e80009
:10353c00204088002140800070092100808f5000bd
:10354c0002003a00e0082100204088009580a80085
:10355c000080fa00000006000000fa001140800014
:10356c00004080000080680000f0a7000000ea0026
:10357c000000ea004f00de00004078000080fa00f6
:10358c00000006000400fa000e80e80031408000c4
:10359c0001087800214080000e80e80010007800bf
:1035ac00808f5000070031000e80e80090007800fa
:1035bc0020408000008050000000e900000f7800df
:1035cc00060037000e80e800900078002040800054
:1035dc000080500068004000000f78001e0078004a
:1035ec0000f0a7000000ea000000ea004f00de0037
:1035fc00004078000080fa00000006000000fa008d
:10360c002140800030408000808f500009003a003b
:10361c0011288000001020000080600000f0a7003e
:10362c000000ea000000ea004f00de0000407800d5
:10363c00010037000040eb000080fa00000006009b
:10364c000400fa000e80e8000140800001087800b8
:10365c00114080000e80e80010007800810f5000af
:10366c00070031000e80e8009000780010408000c8
:10367c000080500069004000000f78000400370003
:10368c000e80e8009000780010408000008f500001
:10369c00f00f20009e007800808f50000200360052
:1036ac0000c0eb00020037001e00780000407800dc
:1036bc000080fa00000006000400fa000e80e8000a
:1036cc003140800001087800214080000e80e80025
:1036dc0010007800808f5000070031000e80e80049
:1036ec009000780020408000008050000000e9002d
:1036fc00000f7800060037000e80e800900078007c
:10370c00204080000080500068004000000f7800ce
:10371c00f00f20009e007800808f500002003600d1
:10372c0000c0eb00020037001e007800004078005b
:10373c000080fa00000006000800fa00640147004f
:10374c00000978006600470001087800bcff0700fc
:10375c000080fb00000f7800660047001000780026
:10376c009e0f50000200310066004700100f7800d9
:10377c008000eb000e80e800010878000e00370096
:10378c004aff0700e4004700910078008048780069
:10379c0064004700100078008000e80064004700d7
:1037ac00010878000e80e800100078008000e80026
:1037bc000e80e800010878000e80e8001000780008
:1037cc009e0f5000eeff39001e0078000080fa00ba
:1037dc00000006000800fa006401470000097800a8
:1037ec006600470001087800b3ff07000080fb006b
:1037fc00000f780066004700100078009e0f500004
:10380c000200310066004700100f78008000eb00ca
:10381c000e80e800010878000e00370064004700b5
:10382c001000780010407800e40047009100780008
:10383c000101e800e40047008208780031ff07002e
:10384c000e80e800100078008000e8000e80e80090
:10385c00010878000e80e800100078009e0f5000e0
:10386c00eeff39001e0078000080fa000000060010
:10387c000400fa000000eb00000f780070ff070056
:10388c008e80e800804878008bff0700e30047003b
:10389c00804878000e80e800104078000080fb0023
:1038ac000000e00003003200e90f5000030032007a
:1038bc00040037001e20a000040037001e00a000ea
:1038cc00020037001e10a00000000000630047003b
:1038dc00104078000080fb000000e0000300320084
:1038ec00e90f500003003200040037001e30a00026
:1038fc00020037001e40a000000000001e007800ef
:10390c000080fa00000006000400fa008e80e80037
:10391c0080087800114080000e80e80010007800cc
:10392c00008f4000020037009e007800698f500025
:10393c00000a21009e007800808f5000faff3e00a4
:10394c001e007800104078000080fa00000006008d
:10395c000000fa003aff07000080fb000000e900bd
:10396c004f00de00004078000080fa0000000600e6
:10397c000000fa0050ff07000080fb000000e90087
:10398c004f00de00004078000080fa0000000600c6
:10399c000000fa00102880000080fa0000000600e9
:1039ac000000fa0044ff07000004e00010003200a1
:1039bc003140800020408000808f5000060036008f
:1039cc003040800080007800204080000080500053
:1039dc000000e900070037003040800080007800cc
:1039ec00204080000080500068004000010037003b
:1039fc000000eb000080fa00000006000000fa0056
:103a0c000fff07000004e00010003200114080009e
:103a1c0000408000808f500006003600104080006f
:103a2c008000780000408000008050000000e90019
:103a3c0007003700104080008000780000408000b4
:103a4c000080500068004000010037000000eb00cf
:103a5c000080fa00000006000000fa0001e5a80052
:103a6c000345a8000080fa00000006000000fa00e0
:103a7c0001e5a9000345a9000080fa00000006003a
:103a8c000000fa0050052000303b8800a00a2000fe
:103a9c00303b880025a1a80025e1a9002a000700d9
:103aac000004a2000004e0000c0032002109800098
:103abc000030200001007000200988003002200036
:103acc0010098800304020001009880040112000a7
:103adc0010098800501522001009880021e1a90066
:103aec0001098000f0cf2f00008060000090a00042
:103afc000009880030402000f008880040112000a8
:103b0c00f008880050152200f008880000c028003a
:103b1c00000988002621ef0025e1a80025a1a900b5
:103b2c009bc0a8000080fa00000006000200fa000a
:103b3c00004f78001e4178004182200082487800b6
:103b4c000080fa00000006000000fa0024c8bf0044
:103b5c000080fa00000006000400fa008e80e800e5
:103b6c00800878002109800000002100008060009e
:103b7c000000e000020032000040eb00470037007c
:103b8c00210980000030200001007000200988000d
:103b9c0011098000010f78001e00780000407800a9
:103bac001a0107008080fb000e80e80010007800ee
:103bbc006a0040000108780011098000010f7800ac
:103bcc001e0078004800de00004078000f0107005e
:103bdc008080fb000e80e800100078006800400038
:103bec00010878001e0078000040780007010700eb
:103bfc008080fb000e80e80010007800660040001a
:103c0c000108780011098000010f78001e0078006f
:103c1c004800de0000407800fc0007008080fb00bc
:103c2c000e80e800100078006c004000010878005d
:103c3c001e00780000407800f40007008080fb0034
:103c4c000e80e80010007800640040000108780045
:103c5c0011098000010f78001e0078004800de007a
:103c6c0000407800e90007008080fb000e80e8002f
:103c7c00100078000080e800010878001e00780031
:103c8c0000407800e10007008080fb000e80e80017
:103c9c00100078000108780010c0b3000080fa0012
:103cac00000006000200fa00881f7800000f780060
:103cbc0051052000313b8800a10a2000313b8800cf
:103ccc0025a1a80025e1a9008bc0a9009bc0a900d3
:103cdc0021098000003020000100700020098800bc
:103cec001e0078006a004000100078000040780048
:103cfc00ac0007000080fb00100988001e00780053
:103d0c00680040001000780000407800a500070013
:103d1c000080fb004804dd001e00780066004000b7
:103d2c0010007800004078009e0007000080fb0027
:103d3c0008007000100988001e0078006c0040001c
:103d4c001000780000407800960007000080fb000f
:103d5c004804dd001e00780064004000100078006c
:103d6c00004078008f0007000080fb000800700006
:103d7c00100988001e0078000080e8001000780010
:103d8c0000407800870007000080fb004804dd003d
:103d9c001e007800100078000040780081000700b9
:103dac000080fb00080070001009880025e1a800c5
:103dbc0025a1a9009bc0a8004f0478000080fa0040
:103dcc00000006000400fa008e80e80080087800ed
:103ddc002109800000002100008060000000e0004c
:103dec00020032000040eb003b003700210980004c
:103dfc0000302000010070002009880011098000ab
:103e0c00010f78009e0078000e80e800100078000a
:103e1c006a0040000108780011098000010f780049
:103e2c001e0078004800de00800078000e80e8005c
:103e3c001000780068004000010878009e007800af
:103e4c00f00f2000808060000e80e80010007800e9
:103e5c00660040000108780011098000010f78000d
:103e6c001e0078004800de00800078000e80e8001c
:103e7c00100078006c004000010878009e0078006b
:103e8c00f00f2000808060000e80e80010007800a9
:103e9c00640040000108780011098000010f7800cf
:103eac001e0078004800de00800078000e80e800dc
:103ebc00100078000080e800010878009e0078006f
:103ecc00f00f2000808060000e80e8001000780069
:103edc000108780010c0b3000080fa000000060052
:103eec000200fa00000f780051052000313b8800d9
:103efc00a10a2000313b880025a1a80025e1a900da
:103f0c008bc0a9009bc0a9002109800000302000b3
:103f1c0001007000200988001e0078006a00400033
:103f2c0010007800100988001e007800680040001e
:103f3c00100078004800dd009e007800e68040000c
:103f4c009100780000807000100988001e00780035
:103f5c006c004000100078004800dd009e007800e6
:103f6c00e480400091007800008070001009880007
:103f7c001e0078000080e800100078004800dd008a
:103f8c009e00780091007800008070001009880075
:103f9c0025e1a80025a1a9009bc0a8000080fa007b
:103fac00000006000400fa008e80e80080487800cb
:103fbc000e80e800104078008080fb00d0cc2c00f4
:103fcc000008b8004308de00004078004400dd0023
:103fdc00004f78000e80e800104078000081fb0054
:103fec00d0cc2c000010b8004308de006a00b900e9
:103ffc000000780000005100004078001e4f700057
:10400c001e4078000080fa00000006000400fa0050
:10401c008e80e800804878000e80e8001040780020
:10402c000080fb004400de00004078006a00b9000c
:10403c0000007800804078000e80e8001040780086
:10404c006f40600000cf40001e4078000080fa00f6
:10405c00000006000000fa000080fa0000000600d4
:10406c000000fa000600fc0011028000f141b200d1
:10407c00110288000080fa00000006000000fa001f
:10408c000600fc0012028000020eb300120288002f
:10409c000080fa00000006000200fa004505070047
:1040ac0050052000a10a2000560107001200200034
:1040bc0000702500110020009d010700560107002b
:1040cc005e0007002300070029010700000f78009d
:1040dc001e007800e30f500019003200e30f50006f
:1040ec0007003c00e10f50000f003200e10f5000c0
:1040fc000a003c000000e00009003200f2ff37002b
:10410c00e50f500010003200e50f50000a0035009a
:10411c00e80f500006003200ebff37006400070088
:10412c00720007000a0037009000070008003700f3
:10413c00080007000600370078000700040037006d
:10414c008f81a800ffff37007e00070000000000f1
:10415c00ddff37000a00fa008f000700d9fb0700cb
:10416c00e60407000004a2000004e0000500320091
:10417c0060002000000f78001e00780091000700fe
:10418c002c00370011fa07000004a2000004e00024
:10419c0007003200410020000e80e8000108780082
:1041ac000e80e80010007800860007002100370020
:1041bc00bbf7070055fa07000004a2000004e0005a
:1041cc00070032003100200064004700010878002d
:1041dc0064004700100078007a00070015003700d3
:1041ec00b70007000004e000080032008000eb007c
:1041fc006600470001087800660047001000780050
:10420c00700007004c030700070037001100200066
:10421c00680047000108780068004700100078002b
:10422c0068000700440307005da2a9000fe1a90084
:10423c00000000000080fa00000006000800fa00f0
:10424c009680a90020a22200000f78004143220092
:10425c000e80e80001087800214522006400470028
:10426c0001087800214c2200660047000108780004
:10427c001e0078007efc07000e80e800100078001d
:10428c006d0207007c0207006400470010007800f4
:10429c00c5020700d4020700660047001000780032
:1042ac001d0307002c0307000080fa000000060025
:1042bc000200fa00b200070087fb07006fff07003f
:1042cc0000712200080407002f00070064ff07009c
:1042dc00bb0007000000eb00000f78001e00780008
:1042ec00380007000080fa00000006000000fa0009
:1042fc009680a800b40207000100370022000700d6
:10430c009b0007000000e000fcff32009680a90033
:10431c00b50207000080fa00000006000000fa0059
:10432c004d0207000100370017000700900007003e
:10433c00e40f5000fcff32004f0207000080fa002f
:10434c00000006000000fa009f0207000100370081
:10435c000d00070086000700e50f5000fcff32003f
:10436c00a10207000080fa00000006000000fa001d
:10437c00000000007e000700e10f5000fdff32003e
:10438c000080fa00000006000000fa000140fe0068
:10439c000080fa00000006000000fa008ba1a900c2
:1043ac008b81a9008b61a9008b41a90084000700b7
:1043bc00870007008a0007008d0007000080fa00c4
:1043cc00000006000200fa00000f78007c000700d5
:1043dc007f00070082000700850007001e007800a0
:1043ec00e40f50001b003200e40f500007003c00ab
:1043fc00e10f500013003200e20f50000c003200ad
:10440c000000e0000d00320029003700e60f5000dc
:10441c001f003200e60f500013003500e70f50006c
:10442c0016003200e80f50001d003200200037004b
:10443c0020002000404188001f0037002828ef0092
:10444c001d0037005200070010002000404188007a
:10445c0019003700560007004900070040002000f3
:10446c004041880014003700510007004c00070041
:10447c0050002000404188000f0037004c0007001e
:10448c004300070070002000404188000a003700fc
:10449c003b00070060002000404188000600370008
:1044ac003b000700800020004041880002003700dc
:1044bc00b9ff0700000000000080fa0000000600b1
:1044cc001c00fa0064004700a3fd07001c04070051
:1044dc00000f78006800470090007800400620002c
:1044ec000088b90000007800e600470091007800d1
:1044fc00810040000e80e800010878001e00780062
:10450c00900078000e80e80010007800808f50003a
:10451c00060035001e80e800900078000e80e80050
:10452c0010007800808f50000c003d001e007800b9
:10453c00900078000e80e80010007800808f50000a
:10454c0008003d001e80e800900078000e80e80016
:10455c0010007800808f500002003c0010c0b300a7
:10456c00010037000040eb000080fa00000006005c
:10457c000000fa00404180000080fa0000000600b4
:10458c000000fa008f61a8000080fa00000006000d
:10459c000000fa008f81a8000080fa0000000600dd
:1045ac000000fa008fa1a8000080fa0000000600ad
:1045bc000000fa008f41a8000080fa0000000600fd
:1045cc000000fa008f61a9000080fa0000000600cc
:1045dc000000fa008f81a9000080fa00000006009c
:1045ec000000fa008fa1a9000080fa00000006006c
:1045fc000000fa008f41a9000080fa0000000600bc
:020000040000fa
:10460c000000fe00020a2100001978000109780060
:10461c00000006000000fe000000eb008000eb0034
:10462c00f8ff07006627ef00000006000000fe0000
:10463c00801f7800811f7800010a21000600fc0011
:10464c0031007800303b880011007800303b880046
:10465c0061e7a8000000000000000000cf00780017
:10466c004f00780000000600a2028000a102880022
:10467c009080ba001000ba00a20288000000060068
:10468c00a2028000a10288001000ba00a2028800d9
:10469c00000006000000fe0061e7af00feff3700df
:1046ac00f23f2000000161000c003a0022042400bb
:1046bc00023b8800a2028000a10288000008bb0017
:1046cc001e2302000000000061e7af00feff370070
:1046dc00a20288001000200061a7af00000020009b
:1046ec000000060061e7af00feff37000000a700e6
:1046fc000d003700a4028000a102880031002400c4
:10470c00013b88000208bb000388bb001e2302008b
:10471c000000000061e7af00feff3700a402880034
:10472c001000200061a7af00000020000000060070
:10473c0061e7af00feff37000000a7000e00370056
:10474c0033002400033b8800a3028000a1028800f0
:10475c000208bb00f20f20000288bb001e230200df
:10476c000000000061e7af00feff3700a3028800e5
:10477c001000200061a7af00000020000000060020
:10478c0061e7af00feff3700f30720008081610076
:10479c0010003a0013002400033b8800a3028000a1
:1047ac00a1028800040420003208bb003298bb0030
:1047bc001400b100fcff3a001e23020000000000b0
:1047cc0061e7af00feff3700a30288001000200055
:1047dc0061a7af00000020000000060061e7af00f9
:1047ec00feff3700f30720008081610011003a00c2
:1047fc0013002400033b8800a3028000a102880060
:10480c0004042000f10f20003208bb000198bb000b
:10481c001400b100fcff3a001e230200000000004f
:10482c0061e7af00feff3700a302880010002000f4
:10483c0061a7af000000200000000600f23f20003e
:10484c00000061000000060002c02f0000006100a3
:0c485c00f2ff2f00810061000000060048
:020000040000fa
:104868000200fa004bff0700200320009f02070008
:1048780058ff07000bfa070055f807000004e0008e
:104888000400320080002000000f78001e0078002d
:10489800cdfe07000080fa00000006000400fa00c0
:1048a80034ff07000000e00003003200e50f50006d
:1048b800160032002f0037003aff0700400620009c
:1048c8008a02070047ff0700b0408000ef0f500042
:1048d8000a003a003ef807000004a2000004e000c5
:1048e8000400320050002000000f78001e007800fd
:1048f800b5fe07000080eb00b0408800b0408000a3
:104908000000e800b04088001a00370021ff0700c7
:1049180040062000750207002eff07002cf807004c
:104928000004a2000004e0000a003200c040800039
:10493800e70f500003003a00daf907001828ef00e3
:104948000c003700c04080000000e800c04088002c
:10495800080037001828ef008000eb000e80e80000
:10496800010878000e80e8001000780096fe070025
:10497800000000000080fa00000006000400fa00b1
:104988000cff0700200320005802070019ff07004a
:10499800ccfe07000004e00008003200f5fe070026
:1049a800e10f500005003a000000eb00000f78000e
:1049b8001e00780084fe07000d003700c1fe0700c6
:1049c8000004a2000004e00009003200e9fe07002c
:1049d8000000e00006003a00110020000e80e80008
:1049e800010878000e80e8001000780076fe0700c5
:1049f8000080fa00000006000000fa008000200095
:104a0800b02888001825ef0020022000f028880030
:104a18002025ef002225ef002425ef002625ef00b2
:104a28002825ef002a25ef0017e5a8001945a8005a
:104a38000080fa00000006000000fa0000000000f4
:104a4800c0288000610060000000e000fcff320028
:104a5800c0288000620060000000e0000100320011
:104a68001825a900e0288000004078000080fa009e
:104a7800000006000200fa00004f78000000000065
:104a8800c128800000202000008060000000e000b5
:104a9800fbff3a001e80fb00d02888000080fa0047
:104aa800000006000000fa00c028800000407800de
:104ab800614060000080fb0000f0a7000000ea00f1
:104ac8000000ea004f00de00004078000080fa0095
:104ad800000006000000fa00c12880000020200025
:104ae800008060000000e00007003a00c128800054
:104af80000402000008060000000e000020032005a
:104b080010002000010037000000eb000040780092
:104b18000080fa00000006000000fa00c0288000ab
:104b28004800de00614060000080fb0000f0a70044
:104b38000000ea000000ea004f00de0000407800b4
:104b48000080fa00000006000000fa00c02880007b
:104b58000080fa00000006000000fa0017e5a8002f
:104b68001945a8000080fa00000006000000fa00bd
:104b780017e5a9001945a9000080fa000000060001
:104b88000000fa004c22ef0030422f00701288001b
:104b98000003280080128800704080000000e000b8
:104ba80002003a00c0612200240007008460a900c6
:104bb8009460a800400a21008040eb00014878007a
:104bc8000080fa00000006000200fa00000f7800da
:104bd8009e00780071128800400a21008040eb0096
:104be800014878000080fa00000006000000fa0082
:104bf800701280000080fa00000006000200fa002f
:104c0800000f78009e00780061128800400a210099
:104c18008040eb00014878000080fa0000000600a0
:104c28000000fa00601280000080fa000000060010
:104c38000000fa000080fa00000006000200fa00f6
:104c4800000f78009460a9009e00780071408800e9
:104c58009460a8000080fa00000006000000fa0036
:104c6800400a21008040eb00014878009460a800c9
:104c780051e2a8000080fa00000006000000fa00d7
:104c880051e2a9009460a9000080fa000000060023
:104c98000200fa00400a2100104f78001e407800f8
:104ca8000004e00003003200400a21008040eb00cd
:104cb800014878001e4078000080fa0000000600d5
:104cc8000000fa00500a2100104078000080fb0024
:104cd8000080fa00000006000000fa00500a2100d7
:104ce8008040eb00014878000080fa0000000600d0
:104cf8000000fa005222ef0030422f00c012880054
:104d080000032800e0128800904080000000e000c6
:104d180002003a00406d22002400070084e0a90048
:104d280094e0a800600a21008040eb000148780068
:104d38000080fa00000006000200fa00000f780068
:104d48009e007800c1128800600a21008040eb00b4
:104d5800014878000080fa00000006000000fa0010
:104d6800c01280000080fa00000006000200fa006d
:104d7800000f78009e00780091128800600a2100d8
:104d88008040eb00014878000080fa00000006002f
:104d98000000fa00901280000080fa00000006006f
:104da8000000fa000080fa00000006000200fa0085
:104db800000f780094e0a9009e00780091408800d8
:104dc80094e0a8000080fa00000006000000fa0045
:104dd800600a21008040eb000148780094e0a800b8
:104de8005de2a8000080fa00000006000000fa005a
:104df8005de2a90094e0a9000080fa000000060026
:104e08000200fa00600a2100104f78001e40780066
:104e18000004e00003003200600a21008040eb003b
:104e2800014878001e4078000080fa000000060063
:104e38000000fa00700a2100104078000080fb0092
:104e48000080fa00000006000000fa00700a210045
:104e58008040eb00014878000080fa00000006005e
:104e68000000fa005622ef0030422f00d0128800ce
:104e780000032800f0128800f04080000000e000e5
:104e880002003a00c0782200240007008500a9002b
:104e98009500a800800a21008040eb0001487800b6
:104ea8000080fa00000006000200fa00000f7800f7
:104eb8009e007800d1128800800a21008040eb0013
:104ec800014878000080fa00000006000000fa009f
:104ed800d01280000080fa00000006000200fa00ec
:104ee800000f78009e007800b1128800800a210027
:104ef8008040eb00014878000080fa0000000600be
:104f08000000fa00b01280000080fa0000000600dd
:104f18000000fa000080fa00000006000200fa0013
:104f2800000f78009500a9009e007800f1408800e5
:104f38009500a8000080fa00000006000000fa00b2
:104f4800800a21008040eb00014878009500a80005
:104f58005fe2a8000080fa00000006000000fa00e6
:104f68005fe2a9009500a9000080fa000000060091
:104f78000200fa00800a2100104f78001e407800d5
:104f88000004e00003003200800a21008040eb00aa
:104f9800014878001e4078000080fa0000000600f2
:104fa8000000fa00900a2100104078000080fb0001
:104fb8000080fa00000006000000fa00900a2100b4
:104fc8008040eb00014878000080fa0000000600ed
:020000040000fa
:104fd800a01000000400000082000000ffffff0096
:104fe800ff0000006e10000020000000800000009c
:104ff800220800000200000082000000ffff0000fd
:105008002408000002000000800000008e1000004c
:105018001200000080000000000800000e000000e0
:1050280080000000a41000000200000080000000c2
:105038000e0800000400000080000000a610000018
:1050480002000000800000001208000004000000b8
:10505800800000002a08000002080000800000000c
:10506800260800000200000080000000160800006a
:1050780004000000800000001a080000040000007e
:1050880080000000280800000200000080000000e6
:10509800a810000002000000800000001e080000a8
:1050a80004000000800000002c10000042000000f6
:1050b800820000003010320010321000010003009e
:1050c8000000000000000000000000000000f000e8
:1050d8000a0000000000000000940a001c070000fd
:1050e80000000000000000000000000000000000b8
:1050f80000000000000000000000000000000000a8
:10510800000000000000000000000000aa100000dd
:0c51180002000000800000000000000009
:020000040000fa
:105124000000fa008421ef0080942000700c8800b5
:1051340070002000000c8800f0eb2f00500c880059
:105144005620ef005820ef005a20ef000000210005
:10515400700388007020ef007220ef008621ef00ba
:105164009021ef0070002000400c8800c000270050
:10517400900c880001088000f00b20000081600082
:10518400600420007105200003102000804978008d
:105194008149780082497800811d800000fc2f003d
:1051a400008060009000b300801d8800911d800085
:1051b40000fc2f00008060007000b300901d880088
